{
  "_format": "hh-sol-artifact-1",
  "contractName": "Credentials",
  "sourceName": "contracts/Credentials.sol",
  "abi": [
    {
      "inputs": [],
      "stateMutability": "nonpayable",
      "type": "constructor"
    },
    {
      "anonymous": false,
      "inputs": [
        {
          "indexed": true,
          "internalType": "address",
          "name": "owner",
          "type": "address"
        },
        {
          "indexed": true,
          "internalType": "address",
          "name": "approved",
          "type": "address"
        },
        {
          "indexed": true,
          "internalType": "uint256",
          "name": "tokenId",
          "type": "uint256"
        }
      ],
      "name": "Approval",
      "type": "event"
    },
    {
      "anonymous": false,
      "inputs": [
        {
          "indexed": true,
          "internalType": "address",
          "name": "owner",
          "type": "address"
        },
        {
          "indexed": true,
          "internalType": "address",
          "name": "operator",
          "type": "address"
        },
        {
          "indexed": false,
          "internalType": "bool",
          "name": "approved",
          "type": "bool"
        }
      ],
      "name": "ApprovalForAll",
      "type": "event"
    },
    {
      "anonymous": false,
      "inputs": [
        {
          "indexed": true,
          "internalType": "address",
          "name": "previousOwner",
          "type": "address"
        },
        {
          "indexed": true,
          "internalType": "address",
          "name": "newOwner",
          "type": "address"
        }
      ],
      "name": "OwnershipTransferred",
      "type": "event"
    },
    {
      "anonymous": false,
      "inputs": [
        {
          "indexed": true,
          "internalType": "address",
          "name": "from",
          "type": "address"
        },
        {
          "indexed": true,
          "internalType": "address",
          "name": "to",
          "type": "address"
        },
        {
          "indexed": true,
          "internalType": "uint256",
          "name": "tokenId",
          "type": "uint256"
        }
      ],
      "name": "Transfer",
      "type": "event"
    },
    {
      "inputs": [
        {
          "internalType": "address",
          "name": "",
          "type": "address"
        },
        {
          "internalType": "uint256",
          "name": "",
          "type": "uint256"
        }
      ],
      "name": "approve",
      "outputs": [],
      "stateMutability": "view",
      "type": "function"
    },
    {
      "inputs": [
        {
          "internalType": "address",
          "name": "_owner",
          "type": "address"
        }
      ],
      "name": "balanceOf",
      "outputs": [
        {
          "internalType": "uint256",
          "name": "",
          "type": "uint256"
        }
      ],
      "stateMutability": "view",
      "type": "function"
    },
    {
      "inputs": [
        {
          "internalType": "uint256",
          "name": "testId",
          "type": "uint256"
        }
      ],
      "name": "credentialReceivers",
      "outputs": [
        {
          "internalType": "address[]",
          "name": "",
          "type": "address[]"
        }
      ],
      "stateMutability": "view",
      "type": "function"
    },
    {
      "inputs": [
        {
          "internalType": "uint256",
          "name": "",
          "type": "uint256"
        }
      ],
      "name": "getApproved",
      "outputs": [
        {
          "internalType": "address",
          "name": "",
          "type": "address"
        }
      ],
      "stateMutability": "view",
      "type": "function"
    },
    {
      "inputs": [
        {
          "internalType": "uint256",
          "name": "testId",
          "type": "uint256"
        }
      ],
      "name": "getCredential",
      "outputs": [
        {
          "internalType": "string",
          "name": "",
          "type": "string"
        }
      ],
      "stateMutability": "view",
      "type": "function"
    },
    {
      "inputs": [
        {
          "internalType": "uint256",
          "name": "testId",
          "type": "uint256"
        }
      ],
      "name": "getCredentialType",
      "outputs": [
        {
          "internalType": "uint8",
          "name": "",
          "type": "uint8"
        }
      ],
      "stateMutability": "view",
      "type": "function"
    },
    {
      "inputs": [
        {
          "internalType": "address",
          "name": "receiver",
          "type": "address"
        },
        {
          "internalType": "uint256",
          "name": "testId",
          "type": "uint256"
        }
      ],
      "name": "getResults",
      "outputs": [
        {
          "internalType": "uint256",
          "name": "",
          "type": "uint256"
        }
      ],
      "stateMutability": "view",
      "type": "function"
    },
    {
      "inputs": [
        {
          "internalType": "address",
          "name": "receiver",
          "type": "address"
        },
        {
          "internalType": "uint256",
          "name": "testId",
          "type": "uint256"
        },
        {
          "internalType": "uint256",
          "name": "results",
          "type": "uint256"
        }
      ],
      "name": "giveCredentials",
      "outputs": [],
      "stateMutability": "nonpayable",
      "type": "function"
    },
    {
      "inputs": [
        {
          "internalType": "address",
          "name": "",
          "type": "address"
        },
        {
          "internalType": "address",
          "name": "",
          "type": "address"
        }
      ],
      "name": "isApprovedForAll",
      "outputs": [
        {
          "internalType": "bool",
          "name": "",
          "type": "bool"
        }
      ],
      "stateMutability": "view",
      "type": "function"
    },
    {
      "inputs": [],
      "name": "name",
      "outputs": [
        {
          "internalType": "string",
          "name": "",
          "type": "string"
        }
      ],
      "stateMutability": "view",
      "type": "function"
    },
    {
      "inputs": [],
      "name": "owner",
      "outputs": [
        {
          "internalType": "address",
          "name": "",
          "type": "address"
        }
      ],
      "stateMutability": "view",
      "type": "function"
    },
    {
      "inputs": [
        {
          "internalType": "uint256",
          "name": "testId",
          "type": "uint256"
        }
      ],
      "name": "ownerOf",
      "outputs": [
        {
          "internalType": "address",
          "name": "",
          "type": "address"
        }
      ],
      "stateMutability": "view",
      "type": "function"
    },
    {
      "inputs": [
        {
          "internalType": "address",
          "name": "receiver",
          "type": "address"
        }
      ],
      "name": "receivedCredentials",
      "outputs": [
        {
          "internalType": "uint256[]",
          "name": "",
          "type": "uint256[]"
        }
      ],
      "stateMutability": "view",
      "type": "function"
    },
    {
      "inputs": [],
      "name": "renounceOwnership",
      "outputs": [],
      "stateMutability": "nonpayable",
      "type": "function"
    },
    {
      "inputs": [
        {
          "internalType": "address",
          "name": "from",
          "type": "address"
        },
        {
          "internalType": "address",
          "name": "to",
          "type": "address"
        },
        {
          "internalType": "uint256",
          "name": "testId",
          "type": "uint256"
        }
      ],
      "name": "safeTransferFrom",
      "outputs": [],
      "stateMutability": "nonpayable",
      "type": "function"
    },
    {
      "inputs": [
        {
          "internalType": "address",
          "name": "",
          "type": "address"
        },
        {
          "internalType": "address",
          "name": "",
          "type": "address"
        },
        {
          "internalType": "uint256",
          "name": "",
          "type": "uint256"
        },
        {
          "internalType": "bytes",
          "name": "",
          "type": "bytes"
        }
      ],
      "name": "safeTransferFrom",
      "outputs": [],
      "stateMutability": "view",
      "type": "function"
    },
    {
      "inputs": [
        {
          "internalType": "address",
          "name": "",
          "type": "address"
        },
        {
          "internalType": "bool",
          "name": "",
          "type": "bool"
        }
      ],
      "name": "setApprovalForAll",
      "outputs": [],
      "stateMutability": "view",
      "type": "function"
    },
    {
      "inputs": [
        {
          "internalType": "bytes4",
          "name": "interfaceId",
          "type": "bytes4"
        }
      ],
      "name": "supportsInterface",
      "outputs": [
        {
          "internalType": "bool",
          "name": "",
          "type": "bool"
        }
      ],
      "stateMutability": "view",
      "type": "function"
    },
    {
      "inputs": [],
      "name": "symbol",
      "outputs": [
        {
          "internalType": "string",
          "name": "",
          "type": "string"
        }
      ],
      "stateMutability": "view",
      "type": "function"
    },
    {
      "inputs": [
        {
          "internalType": "uint256",
          "name": "index",
          "type": "uint256"
        }
      ],
      "name": "tokenByIndex",
      "outputs": [
        {
          "internalType": "uint256",
          "name": "",
          "type": "uint256"
        }
      ],
      "stateMutability": "view",
      "type": "function"
    },
    {
      "inputs": [
        {
          "internalType": "address",
          "name": "_owner",
          "type": "address"
        },
        {
          "internalType": "uint256",
          "name": "index",
          "type": "uint256"
        }
      ],
      "name": "tokenOfOwnerByIndex",
      "outputs": [
        {
          "internalType": "uint256",
          "name": "",
          "type": "uint256"
        }
      ],
      "stateMutability": "view",
      "type": "function"
    },
    {
      "inputs": [
        {
          "internalType": "uint256",
          "name": "testId",
          "type": "uint256"
        }
      ],
      "name": "tokenURI",
      "outputs": [
        {
          "internalType": "string",
          "name": "",
          "type": "string"
        }
      ],
      "stateMutability": "view",
      "type": "function"
    },
    {
      "inputs": [],
      "name": "totalSupply",
      "outputs": [
        {
          "internalType": "uint256",
          "name": "count",
          "type": "uint256"
        }
      ],
      "stateMutability": "view",
      "type": "function"
    },
    {
      "inputs": [
        {
          "internalType": "address",
          "name": "",
          "type": "address"
        },
        {
          "internalType": "address",
          "name": "",
          "type": "address"
        },
        {
          "internalType": "uint256",
          "name": "",
          "type": "uint256"
        }
      ],
      "name": "transferFrom",
      "outputs": [],
      "stateMutability": "view",
      "type": "function"
    },
    {
      "inputs": [
        {
          "internalType": "address",
          "name": "newOwner",
          "type": "address"
        }
      ],
      "name": "transferOwnership",
      "outputs": [],
      "stateMutability": "nonpayable",
      "type": "function"
    }
  ],
  "bytecode": "0x60806040526040518060400160405280601b81526020017f426c6f636b205175616c69666965642043726564656e7469616c730000000000815250600290805190602001906200005192919062000303565b506040518060400160405280600381526020017f4251430000000000000000000000000000000000000000000000000000000000815250600390805190602001906200009f92919062000303565b50348015620000ad57600080fd5b50620000ce620000c26200015d60201b60201c565b6200016560201b60201c565b33600460006101000a81548173ffffffffffffffffffffffffffffffffffffffff021916908373ffffffffffffffffffffffffffffffffffffffff160217905550620001276380ac58cd60e01b6200022b60201b60201c565b6200013f635b5e139f60e01b6200022b60201b60201c565b6200015763780e9d6360e01b6200022b60201b60201c565b6200049b565b600033905090565b6000600160009054906101000a900473ffffffffffffffffffffffffffffffffffffffff16905081600160006101000a81548173ffffffffffffffffffffffffffffffffffffffff021916908373ffffffffffffffffffffffffffffffffffffffff1602179055508173ffffffffffffffffffffffffffffffffffffffff168173ffffffffffffffffffffffffffffffffffffffff167f8be0079c531659141344cd1fd0a4f28419497f9722a3daafe3b4186f6b6457e060405160405180910390a35050565b63ffffffff60e01b817bffffffffffffffffffffffffffffffffffffffffffffffffffffffff1916141562000297576040517f08c379a00000000000000000000000000000000000000000000000000000000081526004016200028e9062000414565b60405180910390fd5b6001600080837bffffffffffffffffffffffffffffffffffffffffffffffffffffffff19167bffffffffffffffffffffffffffffffffffffffffffffffffffffffff1916815260200190815260200160002060006101000a81548160ff02191690831515021790555050565b828054620003119062000465565b90600052602060002090601f01602090048101928262000335576000855562000381565b82601f106200035057805160ff191683800117855562000381565b8280016001018555821562000381579182015b828111156200038057825182559160200191906001019062000363565b5b50905062000390919062000394565b5090565b5b80821115620003af57600081600090555060010162000395565b5090565b600082825260208201905092915050565b7f4552433136353a20696e76616c696420696e7465726661636520696400000000600082015250565b6000620003fc601c83620003b3565b91506200040982620003c4565b602082019050919050565b600060208201905081810360008301526200042f81620003ed565b9050919050565b7f4e487b7100000000000000000000000000000000000000000000000000000000600052602260045260246000fd5b600060028204905060018216806200047e57607f821691505b6020821081141562000495576200049462000436565b5b50919050565b6127cb80620004ab6000396000f3fe608060405234801561001057600080fd5b50600436106101735760003560e01c80636352211e116100de578063a22cb46511610097578063e985e9c511610071578063e985e9c514610482578063f2fde38b146104b2578063f34071da146104ce578063ff4236f8146104fe57610173565b8063a22cb4651461041a578063b88d4fde14610436578063c87b56dd1461045257610173565b80636352211e1461034457806370a0823114610374578063715018a6146103a45780638da5cb5b146103ae5780638dd18d2d146103cc57806395d89b41146103fc57610173565b806323b872dd1161013057806323b872dd1461026057806329edae3a1461027c5780632f745c59146102ac57806332cbe31c146102dc57806342842e0e146102f85780634f6ccce71461031457610173565b806301ffc9a714610178578063061e4dde146101a857806306fdde03146101d8578063081812fc146101f6578063095ea7b31461022657806318160ddd14610242575b600080fd5b610192600480360381019061018d91906117ca565b61052e565b60405161019f9190611812565b60405180910390f35b6101c260048036038101906101bd919061188b565b6105a5565b6040516101cf9190611980565b60405180910390f35b6101e06105f5565b6040516101ed9190611a3b565b60405180910390f35b610210600480360381019061020b9190611a89565b610687565b60405161021d9190611ac5565b60405180910390f35b610240600480360381019061023b9190611ae0565b61068e565b005b61024a6106c9565b6040516102579190611b2f565b60405180910390f35b61027a60048036038101906102759190611b4a565b610867565b005b61029660048036038101906102919190611ae0565b6108a2565b6040516102a39190611b2f565b60405180910390f35b6102c660048036038101906102c19190611ae0565b6108fd565b6040516102d39190611b2f565b60405180910390f35b6102f660048036038101906102f19190611b9d565b6109a2565b005b610312600480360381019061030d9190611b4a565b610b4f565b005b61032e60048036038101906103299190611a89565b610b6f565b60405161033b9190611b2f565b60405180910390f35b61035e60048036038101906103599190611a89565b610c23565b60405161036b9190611ac5565b60405180910390f35b61038e6004803603810190610389919061188b565b610cd7565b60405161039b9190611b2f565b60405180910390f35b6103ac610d96565b005b6103b6610daa565b6040516103c39190611ac5565b60405180910390f35b6103e660048036038101906103e19190611a89565b610dd4565b6040516103f39190611a3b565b60405180910390f35b610404610f7b565b6040516104119190611a3b565b60405180910390f35b610434600480360381019061042f9190611c1c565b61100d565b005b610450600480360381019061044b9190611d91565b611048565b005b61046c60048036038101906104679190611a89565b611083565b6040516104799190611a3b565b60405180910390f35b61049c60048036038101906104979190611e14565b61113c565b6040516104a99190611812565b60405180910390f35b6104cc60048036038101906104c7919061188b565b611144565b005b6104e860048036038101906104e39190611a89565b6111c8565b6040516104f59190611f12565b60405180910390f35b61051860048036038101906105139190611a89565b6111ec565b6040516105259190611f50565b60405180910390f35b600061053982611393565b8061059e5750600080837bffffffffffffffffffffffffffffffffffffffffffffffffffffffff19167bffffffffffffffffffffffffffffffffffffffffffffffffffffffff1916815260200190815260200160002060009054906101000a900460ff165b9050919050565b60606105ee600560008473ffffffffffffffffffffffffffffffffffffffff1673ffffffffffffffffffffffffffffffffffffffff1681526020019081526020016000206113fd565b9050919050565b60606002805461060490611f9a565b80601f016020809104026020016040519081016040528092919081815260200182805461063090611f9a565b801561067d5780601f106106525761010080835404028352916020019161067d565b820191906000526020600020905b81548152906001019060200180831161066057829003601f168201915b5050505050905090565b6000919050565b6040517f08c379a00000000000000000000000000000000000000000000000000000000081526004016106c090612018565b60405180910390fd5b600080600460009054906101000a900473ffffffffffffffffffffffffffffffffffffffff1673ffffffffffffffffffffffffffffffffffffffff166318160ddd6040518163ffffffff1660e01b815260040160206040518083038186803b15801561073457600080fd5b505afa158015610748573d6000803e3d6000fd5b505050506040513d601f19601f8201168201806040525081019061076c919061204d565b905060005b81811015610862576000600460009054906101000a900473ffffffffffffffffffffffffffffffffffffffff1673ffffffffffffffffffffffffffffffffffffffff16634f6ccce7836040518263ffffffff1660e01b81526004016107d69190611b2f565b60206040518083038186803b1580156107ee57600080fd5b505afa158015610802573d6000803e3d6000fd5b505050506040513d601f19601f82011682018060405250810190610826919061204d565b90506108436007600083815260200190815260200160002061141e565b8461084e91906120a9565b9350508061085b906120ff565b9050610771565b505090565b6040517f08c379a000000000000000000000000000000000000000000000000000000000815260040161089990612194565b60405180910390fd5b60006006600083815260200190815260200160002060008473ffffffffffffffffffffffffffffffffffffffff1673ffffffffffffffffffffffffffffffffffffffff16815260200190815260200160002054905092915050565b600061090883610cd7565b8210610949576040517f08c379a000000000000000000000000000000000000000000000000000000000815260040161094090612200565b60405180910390fd5b61099a82600560008673ffffffffffffffffffffffffffffffffffffffff1673ffffffffffffffffffffffffffffffffffffffff16815260200190815260200160002061143390919063ffffffff16565b905092915050565b6109aa61144d565b806006600084815260200190815260200160002060008573ffffffffffffffffffffffffffffffffffffffff1673ffffffffffffffffffffffffffffffffffffffff16815260200190815260200160002081905550610a5082600560008673ffffffffffffffffffffffffffffffffffffffff1673ffffffffffffffffffffffffffffffffffffffff1681526020019081526020016000206114cb90919063ffffffff16565b610b4a57610aa582600560008673ffffffffffffffffffffffffffffffffffffffff1673ffffffffffffffffffffffffffffffffffffffff1681526020019081526020016000206114e590919063ffffffff16565b50610acb83600760008581526020019081526020016000206114ff90919063ffffffff16565b50818373ffffffffffffffffffffffffffffffffffffffff16600460009054906101000a900473ffffffffffffffffffffffffffffffffffffffff1673ffffffffffffffffffffffffffffffffffffffff167fddf252ad1be2c89b69c2b068fc378daa952ba7f163c4a11628f55a4df523b3ef60405160405180910390a45b505050565b610b6a83838360405180602001604052806000815250611048565b505050565b6000600460009054906101000a900473ffffffffffffffffffffffffffffffffffffffff1673ffffffffffffffffffffffffffffffffffffffff16634f6ccce7836040518263ffffffff1660e01b8152600401610bcc9190611b2f565b60206040518083038186803b158015610be457600080fd5b505afa158015610bf8573d6000803e3d6000fd5b505050506040513d601f19601f82011682018060405250810190610c1c919061204d565b9050919050565b6000600460009054906101000a900473ffffffffffffffffffffffffffffffffffffffff1673ffffffffffffffffffffffffffffffffffffffff16636352211e836040518263ffffffff1660e01b8152600401610c809190611b2f565b60206040518083038186803b158015610c9857600080fd5b505afa158015610cac573d6000803e3d6000fd5b505050506040513d601f19601f82011682018060405250810190610cd09190612235565b9050919050565b60008073ffffffffffffffffffffffffffffffffffffffff168273ffffffffffffffffffffffffffffffffffffffff161415610d48576040517f08c379a0000000000000000000000000000000000000000000000000000000008152600401610d3f906122d4565b60405180910390fd5b610d8f600560008473ffffffffffffffffffffffffffffffffffffffff1673ffffffffffffffffffffffffffffffffffffffff16815260200190815260200160002061152f565b9050919050565b610d9e61144d565b610da86000611544565b565b6000600160009054906101000a900473ffffffffffffffffffffffffffffffffffffffff16905090565b6060600460009054906101000a900473ffffffffffffffffffffffffffffffffffffffff1673ffffffffffffffffffffffffffffffffffffffff1663d8b05250836040518263ffffffff1660e01b8152600401610e319190611b2f565b60206040518083038186803b158015610e4957600080fd5b505afa158015610e5d573d6000803e3d6000fd5b505050506040513d601f19601f82011682018060405250810190610e819190612309565b610ec0576040517f08c379a0000000000000000000000000000000000000000000000000000000008152600401610eb790612382565b60405180910390fd5b600460009054906101000a900473ffffffffffffffffffffffffffffffffffffffff1673ffffffffffffffffffffffffffffffffffffffff1663edef019d836040518263ffffffff1660e01b8152600401610f1b9190611b2f565b60006040518083038186803b158015610f3357600080fd5b505afa158015610f47573d6000803e3d6000fd5b505050506040513d6000823e3d601f19601f82011682018060405250810190610f7091906125d6565b60e001519050919050565b606060038054610f8a90611f9a565b80601f0160208091040260200160405190810160405280929190818152602001828054610fb690611f9a565b80156110035780601f10610fd857610100808354040283529160200191611003565b820191906000526020600020905b815481529060010190602001808311610fe657829003601f168201915b5050505050905090565b6040517f08c379a000000000000000000000000000000000000000000000000000000000815260040161103f90612018565b60405180910390fd5b6040517f08c379a000000000000000000000000000000000000000000000000000000000815260040161107a90612194565b60405180910390fd5b6060600460009054906101000a900473ffffffffffffffffffffffffffffffffffffffff1673ffffffffffffffffffffffffffffffffffffffff1663c87b56dd836040518263ffffffff1660e01b81526004016110e09190611b2f565b60006040518083038186803b1580156110f857600080fd5b505afa15801561110c573d6000803e3d6000fd5b505050506040513d6000823e3d601f19601f82011682018060405250810190611135919061261f565b9050919050565b600092915050565b61114c61144d565b600073ffffffffffffffffffffffffffffffffffffffff168173ffffffffffffffffffffffffffffffffffffffff1614156111bc576040517f08c379a00000000000000000000000000000000000000000000000000000000081526004016111b3906126da565b60405180910390fd5b6111c581611544565b50565b60606111e56007600084815260200190815260200160002061160a565b9050919050565b6000600460009054906101000a900473ffffffffffffffffffffffffffffffffffffffff1673ffffffffffffffffffffffffffffffffffffffff1663d8b05250836040518263ffffffff1660e01b81526004016112499190611b2f565b60206040518083038186803b15801561126157600080fd5b505afa158015611275573d6000803e3d6000fd5b505050506040513d601f19601f820116820180604052508101906112999190612309565b6112d8576040517f08c379a00000000000000000000000000000000000000000000000000000000081526004016112cf90612382565b60405180910390fd5b600460009054906101000a900473ffffffffffffffffffffffffffffffffffffffff1673ffffffffffffffffffffffffffffffffffffffff1663edef019d836040518263ffffffff1660e01b81526004016113339190611b2f565b60006040518083038186803b15801561134b57600080fd5b505afa15801561135f573d6000803e3d6000fd5b505050506040513d6000823e3d601f19601f8201168201806040525081019061138891906125d6565b600001519050919050565b60007f01ffc9a7000000000000000000000000000000000000000000000000000000007bffffffffffffffffffffffffffffffffffffffffffffffffffffffff1916827bffffffffffffffffffffffffffffffffffffffffffffffffffffffff1916149050919050565b6060600061140d8360000161162b565b905060608190508092505050919050565b600061142c82600001611687565b9050919050565b60006114428360000183611698565b60001c905092915050565b6114556116c3565b73ffffffffffffffffffffffffffffffffffffffff16611473610daa565b73ffffffffffffffffffffffffffffffffffffffff16146114c9576040517f08c379a00000000000000000000000000000000000000000000000000000000081526004016114c090612746565b60405180910390fd5b565b60006114dd836000018360001b6116cb565b905092915050565b60006114f7836000018360001b6116ee565b905092915050565b6000611527836000018373ffffffffffffffffffffffffffffffffffffffff1660001b6116ee565b905092915050565b600061153d82600001611687565b9050919050565b6000600160009054906101000a900473ffffffffffffffffffffffffffffffffffffffff16905081600160006101000a81548173ffffffffffffffffffffffffffffffffffffffff021916908373ffffffffffffffffffffffffffffffffffffffff1602179055508173ffffffffffffffffffffffffffffffffffffffff168173ffffffffffffffffffffffffffffffffffffffff167f8be0079c531659141344cd1fd0a4f28419497f9722a3daafe3b4186f6b6457e060405160405180910390a35050565b6060600061161a8360000161162b565b905060608190508092505050919050565b60608160000180548060200260200160405190810160405280929190818152602001828054801561167b57602002820191906000526020600020905b815481526020019060010190808311611667575b50505050509050919050565b600081600001805490509050919050565b60008260000182815481106116b0576116af612766565b5b9060005260206000200154905092915050565b600033905090565b600080836001016000848152602001908152602001600020541415905092915050565b60006116fa83836116cb565b611753578260000182908060018154018082558091505060019003906000526020600020016000909190919091505582600001805490508360010160008481526020019081526020016000208190555060019050611758565b600090505b92915050565b6000604051905090565b600080fd5b600080fd5b60007fffffffff0000000000000000000000000000000000000000000000000000000082169050919050565b6117a781611772565b81146117b257600080fd5b50565b6000813590506117c48161179e565b92915050565b6000602082840312156117e0576117df611768565b5b60006117ee848285016117b5565b91505092915050565b60008115159050919050565b61180c816117f7565b82525050565b60006020820190506118276000830184611803565b92915050565b600073ffffffffffffffffffffffffffffffffffffffff82169050919050565b60006118588261182d565b9050919050565b6118688161184d565b811461187357600080fd5b50565b6000813590506118858161185f565b92915050565b6000602082840312156118a1576118a0611768565b5b60006118af84828501611876565b91505092915050565b600081519050919050565b600082825260208201905092915050565b6000819050602082019050919050565b6000819050919050565b6118f7816118e4565b82525050565b600061190983836118ee565b60208301905092915050565b6000602082019050919050565b600061192d826118b8565b61193781856118c3565b9350611942836118d4565b8060005b8381101561197357815161195a88826118fd565b975061196583611915565b925050600181019050611946565b5085935050505092915050565b6000602082019050818103600083015261199a8184611922565b905092915050565b600081519050919050565b600082825260208201905092915050565b60005b838110156119dc5780820151818401526020810190506119c1565b838111156119eb576000848401525b50505050565b6000601f19601f8301169050919050565b6000611a0d826119a2565b611a1781856119ad565b9350611a278185602086016119be565b611a30816119f1565b840191505092915050565b60006020820190508181036000830152611a558184611a02565b905092915050565b611a66816118e4565b8114611a7157600080fd5b50565b600081359050611a8381611a5d565b92915050565b600060208284031215611a9f57611a9e611768565b5b6000611aad84828501611a74565b91505092915050565b611abf8161184d565b82525050565b6000602082019050611ada6000830184611ab6565b92915050565b60008060408385031215611af757611af6611768565b5b6000611b0585828601611876565b9250506020611b1685828601611a74565b9150509250929050565b611b29816118e4565b82525050565b6000602082019050611b446000830184611b20565b92915050565b600080600060608486031215611b6357611b62611768565b5b6000611b7186828701611876565b9350506020611b8286828701611876565b9250506040611b9386828701611a74565b9150509250925092565b600080600060608486031215611bb657611bb5611768565b5b6000611bc486828701611876565b9350506020611bd586828701611a74565b9250506040611be686828701611a74565b9150509250925092565b611bf9816117f7565b8114611c0457600080fd5b50565b600081359050611c1681611bf0565b92915050565b60008060408385031215611c3357611c32611768565b5b6000611c4185828601611876565b9250506020611c5285828601611c07565b9150509250929050565b600080fd5b600080fd5b7f4e487b7100000000000000000000000000000000000000000000000000000000600052604160045260246000fd5b611c9e826119f1565b810181811067ffffffffffffffff82111715611cbd57611cbc611c66565b5b80604052505050565b6000611cd061175e565b9050611cdc8282611c95565b919050565b600067ffffffffffffffff821115611cfc57611cfb611c66565b5b611d05826119f1565b9050602081019050919050565b82818337600083830152505050565b6000611d34611d2f84611ce1565b611cc6565b905082815260208101848484011115611d5057611d4f611c61565b5b611d5b848285611d12565b509392505050565b600082601f830112611d7857611d77611c5c565b5b8135611d88848260208601611d21565b91505092915050565b60008060008060808587031215611dab57611daa611768565b5b6000611db987828801611876565b9450506020611dca87828801611876565b9350506040611ddb87828801611a74565b925050606085013567ffffffffffffffff811115611dfc57611dfb61176d565b5b611e0887828801611d63565b91505092959194509250565b60008060408385031215611e2b57611e2a611768565b5b6000611e3985828601611876565b9250506020611e4a85828601611876565b9150509250929050565b600081519050919050565b600082825260208201905092915050565b6000819050602082019050919050565b611e898161184d565b82525050565b6000611e9b8383611e80565b60208301905092915050565b6000602082019050919050565b6000611ebf82611e54565b611ec98185611e5f565b9350611ed483611e70565b8060005b83811015611f05578151611eec8882611e8f565b9750611ef783611ea7565b925050600181019050611ed8565b5085935050505092915050565b60006020820190508181036000830152611f2c8184611eb4565b905092915050565b600060ff82169050919050565b611f4a81611f34565b82525050565b6000602082019050611f656000830184611f41565b92915050565b7f4e487b7100000000000000000000000000000000000000000000000000000000600052602260045260246000fd5b60006002820490506001821680611fb257607f821691505b60208210811415611fc657611fc5611f6b565b5b50919050565b7f4251433a2063616e6e6f7420617070726f76652063726564656e7469616c7300600082015250565b6000612002601f836119ad565b915061200d82611fcc565b602082019050919050565b6000602082019050818103600083015261203181611ff5565b9050919050565b60008151905061204781611a5d565b92915050565b60006020828403121561206357612062611768565b5b600061207184828501612038565b91505092915050565b7f4e487b7100000000000000000000000000000000000000000000000000000000600052601160045260246000fd5b60006120b4826118e4565b91506120bf836118e4565b9250827fffffffffffffffffffffffffffffffffffffffffffffffffffffffffffffffff038211156120f4576120f361207a565b5b828201905092915050565b600061210a826118e4565b91507fffffffffffffffffffffffffffffffffffffffffffffffffffffffffffffffff82141561213d5761213c61207a565b5b600182019050919050565b7f4251433a2063616e6e6f74207472616e736665722063726564656e7469616c73600082015250565b600061217e6020836119ad565b915061218982612148565b602082019050919050565b600060208201905081810360008301526121ad81612171565b9050919050565b7f496e646578206f7574206f6620626f756e647300000000000000000000000000600082015250565b60006121ea6013836119ad565b91506121f5826121b4565b602082019050919050565b60006020820190508181036000830152612219816121dd565b9050919050565b60008151905061222f8161185f565b92915050565b60006020828403121561224b5761224a611768565b5b600061225984828501612220565b91505092915050565b7f4552433732313a2062616c616e636520717565727920666f7220746865207a6560008201527f726f206164647265737300000000000000000000000000000000000000000000602082015250565b60006122be602a836119ad565b91506122c982612262565b604082019050919050565b600060208201905081810360008301526122ed816122b1565b9050919050565b60008151905061230381611bf0565b92915050565b60006020828403121561231f5761231e611768565b5b600061232d848285016122f4565b91505092915050565b7f5465737420646f6573206e6f7420657869737400000000000000000000000000600082015250565b600061236c6013836119ad565b915061237782612336565b602082019050919050565b6000602082019050818103600083015261239b8161235f565b9050919050565b600080fd5b600080fd5b6123b581611f34565b81146123c057600080fd5b50565b6000815190506123d2816123ac565b92915050565b600062ffffff82169050919050565b6123f0816123d8565b81146123fb57600080fd5b50565b60008151905061240d816123e7565b92915050565b600063ffffffff82169050919050565b61242c81612413565b811461243757600080fd5b50565b60008151905061244981612423565b92915050565b600067ffffffffffffffff82111561246a57612469611c66565b5b612473826119f1565b9050602081019050919050565b600061249361248e8461244f565b611cc6565b9050828152602081018484840111156124af576124ae611c61565b5b6124ba8482856119be565b509392505050565b600082601f8301126124d7576124d6611c5c565b5b81516124e7848260208601612480565b91505092915050565b60006101008284031215612507576125066123a2565b5b612512610100611cc6565b90506000612522848285016123c3565b6000830152506020612536848285016123c3565b602083015250604061254a848285016123c3565b604083015250606061255e848285016123fe565b6060830152506080612572848285016123fe565b60808301525060a06125868482850161243a565b60a08301525060c061259a84828501612220565b60c08301525060e082015167ffffffffffffffff8111156125be576125bd6123a7565b5b6125ca848285016124c2565b60e08301525092915050565b6000602082840312156125ec576125eb611768565b5b600082015167ffffffffffffffff81111561260a5761260961176d565b5b612616848285016124f0565b91505092915050565b60006020828403121561263557612634611768565b5b600082015167ffffffffffffffff8111156126535761265261176d565b5b61265f848285016124c2565b91505092915050565b7f4f776e61626c653a206e6577206f776e657220697320746865207a65726f206160008201527f6464726573730000000000000000000000000000000000000000000000000000602082015250565b60006126c46026836119ad565b91506126cf82612668565b604082019050919050565b600060208201905081810360008301526126f3816126b7565b9050919050565b7f4f776e61626c653a2063616c6c6572206973206e6f7420746865206f776e6572600082015250565b60006127306020836119ad565b915061273b826126fa565b602082019050919050565b6000602082019050818103600083015261275f81612723565b9050919050565b7f4e487b7100000000000000000000000000000000000000000000000000000000600052603260045260246000fdfea26469706673582212203c3836b772daadc8210719d8f23468c90c6a895c4f0c749221713c232898223b64736f6c63430008090033",
  "linkReferences": {},
  "deployedLinkReferences": {}
}