{
  "_format": "hh-sol-artifact-1",
  "contractName": "TestCreator",
  "sourceName": "contracts/TestCreator.sol",
  "abi": [
    {
      "inputs": [],
      "stateMutability": "nonpayable",
      "type": "constructor"
    },
    {
      "anonymous": false,
      "inputs": [
        {
          "indexed": true,
          "internalType": "address",
          "name": "owner",
          "type": "address"
        },
        {
          "indexed": true,
          "internalType": "address",
          "name": "approved",
          "type": "address"
        },
        {
          "indexed": true,
          "internalType": "uint256",
          "name": "tokenId",
          "type": "uint256"
        }
      ],
      "name": "Approval",
      "type": "event"
    },
    {
      "anonymous": false,
      "inputs": [
        {
          "indexed": true,
          "internalType": "address",
          "name": "owner",
          "type": "address"
        },
        {
          "indexed": true,
          "internalType": "address",
          "name": "operator",
          "type": "address"
        },
        {
          "indexed": false,
          "internalType": "bool",
          "name": "approved",
          "type": "bool"
        }
      ],
      "name": "ApprovalForAll",
      "type": "event"
    },
    {
      "anonymous": false,
      "inputs": [
        {
          "indexed": true,
          "internalType": "address",
          "name": "from",
          "type": "address"
        },
        {
          "indexed": true,
          "internalType": "address",
          "name": "to",
          "type": "address"
        },
        {
          "indexed": true,
          "internalType": "uint256",
          "name": "tokenId",
          "type": "uint256"
        }
      ],
      "name": "Transfer",
      "type": "event"
    },
    {
      "inputs": [
        {
          "internalType": "address",
          "name": "",
          "type": "address"
        },
        {
          "internalType": "uint256",
          "name": "",
          "type": "uint256"
        }
      ],
      "name": "approve",
      "outputs": [],
      "stateMutability": "view",
      "type": "function"
    },
    {
      "inputs": [
        {
          "internalType": "address",
          "name": "owner",
          "type": "address"
        }
      ],
      "name": "balanceOf",
      "outputs": [
        {
          "internalType": "uint256",
          "name": "",
          "type": "uint256"
        }
      ],
      "stateMutability": "view",
      "type": "function"
    },
    {
      "inputs": [
        {
          "internalType": "uint8",
          "name": "_testType",
          "type": "uint8"
        },
        {
          "internalType": "uint8",
          "name": "_nQuestions",
          "type": "uint8"
        },
        {
          "internalType": "uint8",
          "name": "_minimumGrade",
          "type": "uint8"
        },
        {
          "internalType": "uint24",
          "name": "_credentialLimit",
          "type": "uint24"
        },
        {
          "internalType": "uint32",
          "name": "_timeLimit",
          "type": "uint32"
        },
        {
          "internalType": "uint256[]",
          "name": "_solvingHashes",
          "type": "uint256[]"
        },
        {
          "internalType": "address",
          "name": "_requiredPass",
          "type": "address"
        },
        {
          "internalType": "string",
          "name": "_credentialsGained",
          "type": "string"
        },
        {
          "internalType": "string",
          "name": "_testURI",
          "type": "string"
        }
      ],
      "name": "createTest",
      "outputs": [],
      "stateMutability": "nonpayable",
      "type": "function"
    },
    {
      "inputs": [],
      "name": "credentialsContract",
      "outputs": [
        {
          "internalType": "contract Credentials",
          "name": "",
          "type": "address"
        }
      ],
      "stateMutability": "view",
      "type": "function"
    },
    {
      "inputs": [
        {
          "internalType": "uint256",
          "name": "",
          "type": "uint256"
        }
      ],
      "name": "getApproved",
      "outputs": [
        {
          "internalType": "address",
          "name": "",
          "type": "address"
        }
      ],
      "stateMutability": "view",
      "type": "function"
    },
    {
      "inputs": [
        {
          "internalType": "uint256",
          "name": "testId",
          "type": "uint256"
        }
      ],
      "name": "getMultipleChoiceRoot",
      "outputs": [
        {
          "internalType": "uint256",
          "name": "",
          "type": "uint256"
        }
      ],
      "stateMutability": "view",
      "type": "function"
    },
    {
      "inputs": [
        {
          "internalType": "uint256",
          "name": "testId",
          "type": "uint256"
        }
      ],
      "name": "getOpenAnswersHashes",
      "outputs": [
        {
          "internalType": "uint256[]",
          "name": "",
          "type": "uint256[]"
        }
      ],
      "stateMutability": "view",
      "type": "function"
    },
    {
      "inputs": [
        {
          "internalType": "uint256",
          "name": "testId",
          "type": "uint256"
        }
      ],
      "name": "getOpenAnswersRoot",
      "outputs": [
        {
          "internalType": "uint256",
          "name": "",
          "type": "uint256"
        }
      ],
      "stateMutability": "view",
      "type": "function"
    },
    {
      "inputs": [
        {
          "internalType": "uint256",
          "name": "testId",
          "type": "uint256"
        }
      ],
      "name": "getTest",
      "outputs": [
        {
          "components": [
            {
              "internalType": "uint8",
              "name": "testType",
              "type": "uint8"
            },
            {
              "internalType": "uint8",
              "name": "nQuestions",
              "type": "uint8"
            },
            {
              "internalType": "uint8",
              "name": "minimumGrade",
              "type": "uint8"
            },
            {
              "internalType": "uint24",
              "name": "solvers",
              "type": "uint24"
            },
            {
              "internalType": "uint24",
              "name": "credentialLimit",
              "type": "uint24"
            },
            {
              "internalType": "uint32",
              "name": "timeLimit",
              "type": "uint32"
            },
            {
              "internalType": "address",
              "name": "requiredPass",
              "type": "address"
            },
            {
              "internalType": "string",
              "name": "credentialsGained",
              "type": "string"
            }
          ],
          "internalType": "struct TestCreator.Test",
          "name": "",
          "type": "tuple"
        }
      ],
      "stateMutability": "view",
      "type": "function"
    },
    {
      "inputs": [
        {
          "internalType": "uint256",
          "name": "testId",
          "type": "uint256"
        }
      ],
      "name": "invalidateTest",
      "outputs": [],
      "stateMutability": "nonpayable",
      "type": "function"
    },
    {
      "inputs": [
        {
          "internalType": "address",
          "name": "",
          "type": "address"
        },
        {
          "internalType": "address",
          "name": "",
          "type": "address"
        }
      ],
      "name": "isApprovedForAll",
      "outputs": [
        {
          "internalType": "bool",
          "name": "",
          "type": "bool"
        }
      ],
      "stateMutability": "view",
      "type": "function"
    },
    {
      "inputs": [],
      "name": "name",
      "outputs": [
        {
          "internalType": "string",
          "name": "",
          "type": "string"
        }
      ],
      "stateMutability": "view",
      "type": "function"
    },
    {
      "inputs": [
        {
          "internalType": "uint256",
          "name": "testId",
          "type": "uint256"
        }
      ],
      "name": "ownerOf",
      "outputs": [
        {
          "internalType": "address",
          "name": "",
          "type": "address"
        }
      ],
      "stateMutability": "view",
      "type": "function"
    },
    {
      "inputs": [
        {
          "internalType": "address",
          "name": "from",
          "type": "address"
        },
        {
          "internalType": "address",
          "name": "to",
          "type": "address"
        },
        {
          "internalType": "uint256",
          "name": "testId",
          "type": "uint256"
        }
      ],
      "name": "safeTransferFrom",
      "outputs": [],
      "stateMutability": "nonpayable",
      "type": "function"
    },
    {
      "inputs": [
        {
          "internalType": "address",
          "name": "",
          "type": "address"
        },
        {
          "internalType": "address",
          "name": "",
          "type": "address"
        },
        {
          "internalType": "uint256",
          "name": "",
          "type": "uint256"
        },
        {
          "internalType": "bytes",
          "name": "",
          "type": "bytes"
        }
      ],
      "name": "safeTransferFrom",
      "outputs": [],
      "stateMutability": "view",
      "type": "function"
    },
    {
      "inputs": [
        {
          "internalType": "address",
          "name": "",
          "type": "address"
        },
        {
          "internalType": "bool",
          "name": "",
          "type": "bool"
        }
      ],
      "name": "setApprovalForAll",
      "outputs": [],
      "stateMutability": "view",
      "type": "function"
    },
    {
      "inputs": [
        {
          "internalType": "uint256",
          "name": "testId",
          "type": "uint256"
        },
        {
          "internalType": "address",
          "name": "recipient",
          "type": "address"
        },
        {
          "internalType": "uint256[2]",
          "name": "a",
          "type": "uint256[2]"
        },
        {
          "internalType": "uint256[2][2]",
          "name": "b",
          "type": "uint256[2][2]"
        },
        {
          "internalType": "uint256[2]",
          "name": "c",
          "type": "uint256[2]"
        },
        {
          "internalType": "uint256[]",
          "name": "input",
          "type": "uint256[]"
        }
      ],
      "name": "solveTest",
      "outputs": [],
      "stateMutability": "nonpayable",
      "type": "function"
    },
    {
      "inputs": [
        {
          "internalType": "bytes4",
          "name": "interfaceId",
          "type": "bytes4"
        }
      ],
      "name": "supportsInterface",
      "outputs": [
        {
          "internalType": "bool",
          "name": "",
          "type": "bool"
        }
      ],
      "stateMutability": "view",
      "type": "function"
    },
    {
      "inputs": [],
      "name": "symbol",
      "outputs": [
        {
          "internalType": "string",
          "name": "",
          "type": "string"
        }
      ],
      "stateMutability": "view",
      "type": "function"
    },
    {
      "inputs": [
        {
          "internalType": "uint256",
          "name": "testId",
          "type": "uint256"
        }
      ],
      "name": "testExists",
      "outputs": [
        {
          "internalType": "bool",
          "name": "",
          "type": "bool"
        }
      ],
      "stateMutability": "view",
      "type": "function"
    },
    {
      "inputs": [
        {
          "internalType": "uint256",
          "name": "testId",
          "type": "uint256"
        }
      ],
      "name": "testIsValid",
      "outputs": [
        {
          "internalType": "bool",
          "name": "",
          "type": "bool"
        }
      ],
      "stateMutability": "view",
      "type": "function"
    },
    {
      "inputs": [
        {
          "internalType": "uint256",
          "name": "index",
          "type": "uint256"
        }
      ],
      "name": "tokenByIndex",
      "outputs": [
        {
          "internalType": "uint256",
          "name": "",
          "type": "uint256"
        }
      ],
      "stateMutability": "view",
      "type": "function"
    },
    {
      "inputs": [
        {
          "internalType": "address",
          "name": "_owner",
          "type": "address"
        },
        {
          "internalType": "uint256",
          "name": "index",
          "type": "uint256"
        }
      ],
      "name": "tokenOfOwnerByIndex",
      "outputs": [
        {
          "internalType": "uint256",
          "name": "",
          "type": "uint256"
        }
      ],
      "stateMutability": "view",
      "type": "function"
    },
    {
      "inputs": [
        {
          "internalType": "uint256",
          "name": "testId",
          "type": "uint256"
        }
      ],
      "name": "tokenURI",
      "outputs": [
        {
          "internalType": "string",
          "name": "",
          "type": "string"
        }
      ],
      "stateMutability": "view",
      "type": "function"
    },
    {
      "inputs": [],
      "name": "totalSupply",
      "outputs": [
        {
          "internalType": "uint256",
          "name": "count",
          "type": "uint256"
        }
      ],
      "stateMutability": "view",
      "type": "function"
    },
    {
      "inputs": [
        {
          "internalType": "address",
          "name": "",
          "type": "address"
        },
        {
          "internalType": "address",
          "name": "",
          "type": "address"
        },
        {
          "internalType": "uint256",
          "name": "",
          "type": "uint256"
        }
      ],
      "name": "transferFrom",
      "outputs": [],
      "stateMutability": "view",
      "type": "function"
    },
    {
      "inputs": [],
      "name": "verifierContract",
      "outputs": [
        {
          "internalType": "contract TestVerifier",
          "name": "",
          "type": "address"
        }
      ],
      "stateMutability": "view",
      "type": "function"
    },
    {
      "inputs": [
        {
          "internalType": "uint256",
          "name": "testId",
          "type": "uint256"
        },
        {
          "internalType": "uint256[]",
          "name": "answerHashes",
          "type": "uint256[]"
        }
      ],
      "name": "verifyTestAnswers",
      "outputs": [],
      "stateMutability": "nonpayable",
      "type": "function"
    }
  ],
  "bytecode": "0x60806040526040518060400160405280601581526020017f426c6f636b205175616c696669656420546573747300000000000000000000008152506002908051906020019062000051929190620002b3565b506040518060400160405280600381526020017f4251540000000000000000000000000000000000000000000000000000000000815250600390805190602001906200009f929190620002b3565b50348015620000ad57600080fd5b5060018081905550604051620000c39062000344565b604051809103906000f080158015620000e0573d6000803e3d6000fd5b50600560006101000a81548173ffffffffffffffffffffffffffffffffffffffff021916908373ffffffffffffffffffffffffffffffffffffffff1602179055506040516200012f9062000352565b604051809103906000f0801580156200014c573d6000803e3d6000fd5b50600460006101000a81548173ffffffffffffffffffffffffffffffffffffffff021916908373ffffffffffffffffffffffffffffffffffffffff160217905550620001a56380ac58cd60e01b620001db60201b60201c565b620001bd635b5e139f60e01b620001db60201b60201c565b620001d563780e9d6360e01b620001db60201b60201c565b62000467565b63ffffffff60e01b817bffffffffffffffffffffffffffffffffffffffffffffffffffffffff1916141562000247576040517f08c379a00000000000000000000000000000000000000000000000000000000081526004016200023e90620003e0565b60405180910390fd5b6001600080837bffffffffffffffffffffffffffffffffffffffffffffffffffffffff19167bffffffffffffffffffffffffffffffffffffffffffffffffffffffff1916815260200190815260200160002060006101000a81548160ff02191690831515021790555050565b828054620002c19062000431565b90600052602060002090601f016020900481019282620002e5576000855562000331565b82601f106200030057805160ff191683800117855562000331565b8280016001018555821562000331579182015b828111156200033057825182559160200191906001019062000313565b5b50905062000340919062000360565b5090565b612c76806200545583390190565b61237e80620080cb83390190565b5b808211156200037b57600081600090555060010162000361565b5090565b600082825260208201905092915050565b7f4552433136353a20696e76616c696420696e7465726661636520696400000000600082015250565b6000620003c8601c836200037f565b9150620003d58262000390565b602082019050919050565b60006020820190508181036000830152620003fb81620003b9565b9050919050565b7f4e487b7100000000000000000000000000000000000000000000000000000000600052602260045260246000fd5b600060028204905060018216806200044a57607f821691505b6020821081141562000461576200046062000402565b5b50919050565b614fde80620004776000396000f3fe608060405234801561001057600080fd5b50600436106101c45760003560e01c806395d89b41116100f9578063ce421e4911610097578063d7887f7311610071578063d7887f731461053b578063d8b052501461056b578063e985e9c51461059b578063edef019d146105cb576101c4565b8063ce421e49146104e3578063cf69568814610501578063d591da201461051f576101c4565b8063b88d4fde116100d3578063b88d4fde1461044b578063c87b56dd14610467578063c8ac410014610497578063ca48621c146104b3576101c4565b806395d89b41146103f5578063a22cb46514610413578063a9998a731461042f576101c4565b8063391f3c79116101665780634f6ccce7116101405780634f6ccce7146103495780636352211e1461037957806370a08231146103a95780638845d284146103d9576101c4565b8063391f3c79146102cd57806342842e0e146102fd5780634980466914610319576101c4565b8063095ea7b3116101a2578063095ea7b31461024757806318160ddd1461026357806323b872dd146102815780632f745c591461029d576101c4565b806301ffc9a7146101c957806306fdde03146101f9578063081812fc14610217575b600080fd5b6101e360048036038101906101de9190612f1a565b6105fb565b6040516101f09190612f62565b60405180910390f35b610201610672565b60405161020e9190613016565b60405180910390f35b610231600480360381019061022c919061306e565b610704565b60405161023e91906130dc565b60405180910390f35b610261600480360381019061025c9190613123565b61070b565b005b61026b610746565b6040516102789190613172565b60405180910390f35b61029b6004803603810190610296919061318d565b610757565b005b6102b760048036038101906102b29190613123565b610792565b6040516102c49190613172565b60405180910390f35b6102e760048036038101906102e2919061306e565b610837565b6040516102f49190613172565b60405180910390f35b6103176004803603810190610312919061318d565b610938565b005b610333600480360381019061032e919061306e565b610958565b6040516103409190613172565b60405180910390f35b610363600480360381019061035e919061306e565b610a26565b6040516103709190613172565b60405180910390f35b610393600480360381019061038e919061306e565b610a93565b6040516103a091906130dc565b60405180910390f35b6103c360048036038101906103be91906131e0565b610ae7565b6040516103d09190613172565b60405180910390f35b6103f360048036038101906103ee9190613452565b610ba6565b005b6103fd61121b565b60405161040a9190613016565b60405180910390f35b61042d600480360381019061042891906135a1565b6112ad565b005b6104496004803603810190610444919061306e565b6112e8565b005b61046560048036038101906104609190613682565b611453565b005b610481600480360381019061047c919061306e565b61148e565b60405161048e9190613016565b60405180910390f35b6104b160048036038101906104ac91906137c8565b61157b565b005b6104cd60048036038101906104c8919061306e565b611790565b6040516104da9190612f62565b60405180910390f35b6104eb61180c565b6040516104f89190613883565b60405180910390f35b610509611832565b60405161051691906138bf565b60405180910390f35b6105396004803603810190610534919061391e565b611858565b005b6105556004803603810190610550919061306e565b612568565b6040516105629190613a8e565b60405180910390f35b6105856004803603810190610580919061306e565b6126dd565b6040516105929190612f62565b60405180910390f35b6105b560048036038101906105b09190613ab0565b6126ef565b6040516105c29190612f62565b60405180910390f35b6105e560048036038101906105e0919061306e565b6126f7565b6040516105f29190613c26565b60405180910390f35b600061060682612918565b8061066b5750600080837bffffffffffffffffffffffffffffffffffffffffffffffffffffffff19167bffffffffffffffffffffffffffffffffffffffffffffffffffffffff1916815260200190815260200160002060009054906101000a900460ff165b9050919050565b60606002805461068190613c77565b80601f01602080910402602001604051908101604052809291908181526020018280546106ad90613c77565b80156106fa5780601f106106cf576101008083540402835291602001916106fa565b820191906000526020600020905b8154815290600101906020018083116106dd57829003601f168201915b5050505050905090565b6000919050565b6040517f08c379a000000000000000000000000000000000000000000000000000000000815260040161073d90613cf5565b60405180910390fd5b60006107526007612982565b905090565b6040517f08c379a000000000000000000000000000000000000000000000000000000000815260040161078990613d61565b60405180910390fd5b600061079d83610ae7565b82106107de576040517f08c379a00000000000000000000000000000000000000000000000000000000081526004016107d590613dcd565b60405180910390fd5b61082f82600660008673ffffffffffffffffffffffffffffffffffffffff1673ffffffffffffffffffffffffffffffffffffffff16815260200190815260200160002061299790919063ffffffff16565b905092915050565b6000610842826129b1565b610881576040517f08c379a000000000000000000000000000000000000000000000000000000000815260040161087890613e39565b60405180910390fd5b6000600b600084815260200190815260200160002060000160009054906101000a900460ff1660ff161180156108de57506064600b600084815260200190815260200160002060000160009054906101000a900460ff1660ff1611155b61091d576040517f08c379a000000000000000000000000000000000000000000000000000000000815260040161091490613ecb565b60405180910390fd5b600c6000838152602001908152602001600020549050919050565b61095383838360405180602001604052806000815250611453565b505050565b6000610963826129b1565b6109a2576040517f08c379a000000000000000000000000000000000000000000000000000000000815260040161099990613e39565b60405180910390fd5b6064600b600084815260200190815260200160002060000160009054906101000a900460ff1660ff1610610a0b576040517f08c379a0000000000000000000000000000000000000000000000000000000008152600401610a0290613f37565b60405180910390fd5b600d6000838152602001908152602001600020549050919050565b6000610a30610746565b8210610a71576040517f08c379a0000000000000000000000000000000000000000000000000000000008152600401610a6890613dcd565b60405180910390fd5b6000610a878360076129ce90919063ffffffff16565b50905080915050919050565b6000610ae0826040518060400160405280601381526020017f5465737420646f6573206e6f742065786973740000000000000000000000000081525060076129fa9092919063ffffffff16565b9050919050565b60008073ffffffffffffffffffffffffffffffffffffffff168273ffffffffffffffffffffffffffffffffffffffff161415610b58576040517f08c379a0000000000000000000000000000000000000000000000000000000008152600401610b4f90613fc9565b60405180910390fd5b610b9f600660008473ffffffffffffffffffffffffffffffffffffffff1673ffffffffffffffffffffffffffffffffffffffff168152602001908152602001600020612a19565b9050919050565b600a6000815480929190610bb990614018565b91905055506000600a549050428763ffffffff161180610bdf575060008763ffffffff16145b610c1e576040517f08c379a0000000000000000000000000000000000000000000000000000000008152600401610c15906140ad565b60405180910390fd5b600073ffffffffffffffffffffffffffffffffffffffff168473ffffffffffffffffffffffffffffffffffffffff1614610ce95760008473ffffffffffffffffffffffffffffffffffffffff166370a08231336040518263ffffffff1660e01b8152600401610c8d91906130dc565b60206040518083038186803b158015610ca557600080fd5b505afa158015610cb9573d6000803e3d6000fd5b505050506040513d601f19601f82011682018060405250810190610cdd91906140e2565b1015610ce857600080fd5b5b60018a60ff1610158015610d01575060408a60ff1611155b610d40576040517f08c379a0000000000000000000000000000000000000000000000000000000008152600401610d379061415b565b60405180910390fd5b60008960ff16118015610d57575060648960ff1611155b610d96576040517f08c379a0000000000000000000000000000000000000000000000000000000008152600401610d8d906141c7565b60405180910390fd5b60008b60ff161415610dd95785856000818110610db657610db56141e7565b5b90506020020135600d600083815260200190815260200160002081905550610f69565b60008b60ff16118015610def575060648b60ff16105b15610e5d5785856000818110610e0857610e076141e7565b5b90506020020135600c60008381526020019081526020016000208190555085856001818110610e3a57610e396141e7565b5b90506020020135600d600083815260200190815260200160002081905550610f68565b60648b60ff161415610f2c5760648960ff1614610eaf576040517f08c379a0000000000000000000000000000000000000000000000000000000008152600401610ea690614288565b60405180910390fd5b60018a60ff1614610ef5576040517f08c379a0000000000000000000000000000000000000000000000000000000008152600401610eec9061431a565b60405180910390fd5b85856000818110610f0957610f086141e7565b5b90506020020135600c600083815260200190815260200160002081905550610f67565b6040517f08c379a0000000000000000000000000000000000000000000000000000000008152600401610f5e90614386565b60405180910390fd5b5b5b81600f60008381526020019081526020016000209080519060200190610f90929190612d4a565b506040518061010001604052808c60ff1681526020018b60ff1681526020018a60ff168152602001600062ffffff1681526020018962ffffff1681526020018863ffffffff1681526020018573ffffffffffffffffffffffffffffffffffffffff16815260200184815250600b600083815260200190815260200160002060008201518160000160006101000a81548160ff021916908360ff16021790555060208201518160000160016101000a81548160ff021916908360ff16021790555060408201518160000160026101000a81548160ff021916908360ff16021790555060608201518160000160036101000a81548162ffffff021916908362ffffff16021790555060808201518160000160066101000a81548162ffffff021916908362ffffff16021790555060a08201518160000160096101000a81548163ffffffff021916908363ffffffff16021790555060c08201518160010160006101000a81548173ffffffffffffffffffffffffffffffffffffffff021916908373ffffffffffffffffffffffffffffffffffffffff16021790555060e0820151816002019080519060200190611145929190612d4a565b5090505061119a81600660003373ffffffffffffffffffffffffffffffffffffffff1673ffffffffffffffffffffffffffffffffffffffff168152602001908152602001600020612a2e90919063ffffffff16565b506111b181336007612a489092919063ffffffff16565b50803373ffffffffffffffffffffffffffffffffffffffff16600073ffffffffffffffffffffffffffffffffffffffff167fddf252ad1be2c89b69c2b068fc378daa952ba7f163c4a11628f55a4df523b3ef60405160405180910390a45050505050505050505050565b60606003805461122a90613c77565b80601f016020809104026020016040519081016040528092919081815260200182805461125690613c77565b80156112a35780601f10611278576101008083540402835291602001916112a3565b820191906000526020600020905b81548152906001019060200180831161128657829003601f168201915b5050505050905090565b6040517f08c379a00000000000000000000000000000000000000000000000000000000081526004016112df90613cf5565b60405180910390fd5b6112f0612a7d565b6112f9816129b1565b611338576040517f08c379a000000000000000000000000000000000000000000000000000000000815260040161132f90613e39565b60405180910390fd5b60ff600b600083815260200190815260200160002060000160009054906101000a900460ff1660ff1614156113a2576040517f08c379a0000000000000000000000000000000000000000000000000000000008152600401611399906143f2565b60405180910390fd5b3373ffffffffffffffffffffffffffffffffffffffff166113c282610a93565b73ffffffffffffffffffffffffffffffffffffffff1614611418576040517f08c379a000000000000000000000000000000000000000000000000000000000815260040161140f90614484565b60405180910390fd5b60ff600b600083815260200190815260200160002060000160006101000a81548160ff021916908360ff160217905550611450612acd565b50565b6040517f08c379a000000000000000000000000000000000000000000000000000000000815260040161148590613d61565b60405180910390fd5b6060611499826129b1565b6114d8576040517f08c379a00000000000000000000000000000000000000000000000000000000081526004016114cf90613e39565b60405180910390fd5b600f600083815260200190815260200160002080546114f690613c77565b80601f016020809104026020016040519081016040528092919081815260200182805461152290613c77565b801561156f5780601f106115445761010080835404028352916020019161156f565b820191906000526020600020905b81548152906001019060200180831161155257829003601f168201915b50505050509050919050565b611584826129b1565b6115c3576040517f08c379a00000000000000000000000000000000000000000000000000000000081526004016115ba90613e39565b60405180910390fd5b6064600b600084815260200190815260200160002060000160009054906101000a900460ff1660ff161061162c576040517f08c379a000000000000000000000000000000000000000000000000000000000815260040161162390613f37565b60405180910390fd5b6000600e60008481526020019081526020016000208054905014611685576040517f08c379a000000000000000000000000000000000000000000000000000000000815260040161167c906144f0565b60405180910390fd5b3373ffffffffffffffffffffffffffffffffffffffff166116a583610a93565b73ffffffffffffffffffffffffffffffffffffffff16146116fb576040517f08c379a00000000000000000000000000000000000000000000000000000000081526004016116f29061455c565b60405180910390fd5b600b600083815260200190815260200160002060000160019054906101000a900460ff1660ff16815114611764576040517f08c379a000000000000000000000000000000000000000000000000000000000815260040161175b906145c8565b60405180910390fd5b80600e6000848152602001908152602001600020908051906020019061178b929190612dd0565b505050565b600061179b826129b1565b6117da576040517f08c379a00000000000000000000000000000000000000000000000000000000081526004016117d190613e39565b60405180910390fd5b60ff600b600084815260200190815260200160002060000160009054906101000a900460ff1660ff1614159050919050565b600560009054906101000a900473ffffffffffffffffffffffffffffffffffffffff1681565b600460009054906101000a900473ffffffffffffffffffffffffffffffffffffffff1681565b611860612a7d565b61186987610a93565b73ffffffffffffffffffffffffffffffffffffffff168673ffffffffffffffffffffffffffffffffffffffff1614156118d7576040517f08c379a00000000000000000000000000000000000000000000000000000000081526004016118ce90614634565b60405180910390fd5b6000600b600089815260200190815260200160002060000160069054906101000a900462ffffff1662ffffff1614806119635750600b600088815260200190815260200160002060000160069054906101000a900462ffffff1662ffffff16600b600089815260200190815260200160002060000160039054906101000a900462ffffff1662ffffff16105b6119a2576040517f08c379a0000000000000000000000000000000000000000000000000000000008152600401611999906146c6565b60405180910390fd5b6000600b600089815260200190815260200160002060000160099054906101000a900463ffffffff1663ffffffff161480611a095750600b600088815260200190815260200160002060000160099054906101000a900463ffffffff1663ffffffff164211155b611a48576040517f08c379a0000000000000000000000000000000000000000000000000000000008152600401611a3f90614758565b60405180910390fd5b600073ffffffffffffffffffffffffffffffffffffffff16600b600089815260200190815260200160002060010160009054906101000a900473ffffffffffffffffffffffffffffffffffffffff1673ffffffffffffffffffffffffffffffffffffffff1614611bb4576000600b600089815260200190815260200160002060010160009054906101000a900473ffffffffffffffffffffffffffffffffffffffff1673ffffffffffffffffffffffffffffffffffffffff166370a08231886040518263ffffffff1660e01b8152600401611b2391906130dc565b60206040518083038186803b158015611b3b57600080fd5b505afa158015611b4f573d6000803e3d6000fd5b505050506040513d601f19601f82011682018060405250810190611b7391906140e2565b11611bb3576040517f08c379a0000000000000000000000000000000000000000000000000000000008152600401611baa906147ea565b60405180910390fd5b5b60008673ffffffffffffffffffffffffffffffffffffffff169050600460009054906101000a900473ffffffffffffffffffffffffffffffffffffffff1673ffffffffffffffffffffffffffffffffffffffff1663796bbf51600b60008b815260200190815260200160002060000160009054906101000a900460ff168888888888886040518863ffffffff1660e01b8152600401611c599796959493929190614949565b60206040518083038186803b158015611c7157600080fd5b505afa158015611c85573d6000803e3d6000fd5b505050506040513d601f19601f82011682018060405250810190611ca991906149cb565b611ce8576040517f08c379a0000000000000000000000000000000000000000000000000000000008152600401611cdf90614a44565b60405180910390fd5b600080600b60008b815260200190815260200160002060000160009054906101000a900460ff1660ff161415611ee757600d60008a81526020019081526020016000205484846001818110611d4057611d3f6141e7565b5b9050602002013514611d87576040517f08c379a0000000000000000000000000000000000000000000000000000000008152600401611d7e90614ab0565b60405180910390fd5b6040600b60008b815260200190815260200160002060000160019054906101000a900460ff1660ff1685856000818110611dc457611dc36141e7565b5b90506020020135611dd59190614ad0565b11611de1576000611e77565b600b60008a815260200190815260200160002060000160019054906101000a900460ff1660ff166040600b60008c815260200190815260200160002060000160019054906101000a900460ff1660ff1686866000818110611e4557611e446141e7565b5b90506020020135611e569190614ad0565b611e609190614b26565b6064611e6c9190614b5a565b611e769190614be3565b5b9050600b60008a815260200190815260200160002060000160029054906101000a900460ff1660ff16811015611ee2576040517f08c379a0000000000000000000000000000000000000000000000000000000008152600401611ed990614c60565b60405180910390fd5b6122c9565b6000600b60008b815260200190815260200160002060000160009054906101000a900460ff1660ff16118015611f4357506064600b60008b815260200190815260200160002060000160009054906101000a900460ff1660ff16105b156121b557600d60008a81526020019081526020016000205484846002818110611f7057611f6f6141e7565b5b9050602002013514611fb7576040517f08c379a0000000000000000000000000000000000000000000000000000000008152600401611fae90614ab0565b60405180910390fd5b6040600b60008b815260200190815260200160002060000160019054906101000a900460ff1660ff1685856001818110611ff457611ff36141e7565b5b905060200201356120059190614ad0565b116120115760006120d8565b600b60008a815260200190815260200160002060000160019054906101000a900460ff1660ff16600b60008b815260200190815260200160002060000160009054906101000a900460ff1660646120689190614c80565b60ff166040600b60008d815260200190815260200160002060000160019054906101000a900460ff1660ff16878760018181106120a8576120a76141e7565b5b905060200201356120b99190614ad0565b6120c39190614b26565b6120cd9190614b5a565b6120d79190614be3565b5b600c60008b81526020019081526020016000205485856000818110612100576120ff6141e7565b5b9050602002013514612113576000612138565b600b60008b815260200190815260200160002060000160009054906101000a900460ff165b60ff166121459190614ad0565b9050600b60008a815260200190815260200160002060000160029054906101000a900460ff1660ff168110156121b0576040517f08c379a00000000000000000000000000000000000000000000000000000000081526004016121a790614c60565b60405180910390fd5b6122c8565b6064600b60008b815260200190815260200160002060000160009054906101000a900460ff1660ff16141561225c5760649050600c60008a815260200190815260200160002054848460008181106122105761220f6141e7565b5b9050602002013514612257576040517f08c379a000000000000000000000000000000000000000000000000000000000815260040161224e90614d00565b60405180910390fd5b6122c7565b60ff600b60008b815260200190815260200160002060000160009054906101000a900460ff1660ff1614156122c6576040517f08c379a00000000000000000000000000000000000000000000000000000000081526004016122bd90614d92565b60405180910390fd5b5b5b5b6000600560009054906101000a900473ffffffffffffffffffffffffffffffffffffffff1673ffffffffffffffffffffffffffffffffffffffff166329edae3a8a8c6040518363ffffffff1660e01b8152600401612328929190614db2565b60206040518083038186803b15801561234057600080fd5b505afa158015612354573d6000803e3d6000fd5b505050506040513d601f19601f8201168201806040525081019061237891906140e2565b14156123d557600b60008a8152602001908152602001600020600001600381819054906101000a900462ffffff16809291906123b390614ddb565b91906101000a81548162ffffff021916908362ffffff160217905550506124c4565b600560009054906101000a900473ffffffffffffffffffffffffffffffffffffffff1673ffffffffffffffffffffffffffffffffffffffff166329edae3a898b6040518363ffffffff1660e01b8152600401612432929190614db2565b60206040518083038186803b15801561244a57600080fd5b505afa15801561245e573d6000803e3d6000fd5b505050506040513d601f19601f8201168201806040525081019061248291906140e2565b81116124c3576040517f08c379a00000000000000000000000000000000000000000000000000000000081526004016124ba90614e79565b60405180910390fd5b5b600560009054906101000a900473ffffffffffffffffffffffffffffffffffffffff1673ffffffffffffffffffffffffffffffffffffffff166332cbe31c898b846040518463ffffffff1660e01b815260040161252393929190614e99565b600060405180830381600087803b15801561253d57600080fd5b505af1158015612551573d6000803e3d6000fd5b50505050505061255f612acd565b50505050505050565b6060612573826129b1565b6125b2576040517f08c379a00000000000000000000000000000000000000000000000000000000081526004016125a990613e39565b60405180910390fd5b6064600b600084815260200190815260200160002060000160009054906101000a900460ff1660ff161061261b576040517f08c379a000000000000000000000000000000000000000000000000000000000815260040161261290613f37565b60405180910390fd5b6000600e60008481526020019081526020016000208054905011612674576040517f08c379a000000000000000000000000000000000000000000000000000000000815260040161266b90614f1c565b60405180910390fd5b600e60008381526020019081526020016000208054806020026020016040519081016040528092919081815260200182805480156126d157602002820191906000526020600020905b8154815260200190600101908083116126bd575b50505050509050919050565b60006126e8826129b1565b9050919050565b600092915050565b6126ff612e1d565b612708826129b1565b612747576040517f08c379a000000000000000000000000000000000000000000000000000000000815260040161273e90613e39565b60405180910390fd5b600b6000838152602001908152602001600020604051806101000160405290816000820160009054906101000a900460ff1660ff1660ff1681526020016000820160019054906101000a900460ff1660ff1660ff1681526020016000820160029054906101000a900460ff1660ff1660ff1681526020016000820160039054906101000a900462ffffff1662ffffff1662ffffff1681526020016000820160069054906101000a900462ffffff1662ffffff1662ffffff1681526020016000820160099054906101000a900463ffffffff1663ffffffff1663ffffffff1681526020016001820160009054906101000a900473ffffffffffffffffffffffffffffffffffffffff1673ffffffffffffffffffffffffffffffffffffffff1673ffffffffffffffffffffffffffffffffffffffff16815260200160028201805461288f90613c77565b80601f01602080910402602001604051908101604052809291908181526020018280546128bb90613c77565b80156129085780601f106128dd57610100808354040283529160200191612908565b820191906000526020600020905b8154815290600101906020018083116128eb57829003601f168201915b5050505050815250509050919050565b60007f01ffc9a7000000000000000000000000000000000000000000000000000000007bffffffffffffffffffffffffffffffffffffffffffffffffffffffff1916827bffffffffffffffffffffffffffffffffffffffffffffffffffffffff1916149050919050565b600061299082600001612ad6565b9050919050565b60006129a68360000183612aeb565b60001c905092915050565b60006129c7826007612b1690919063ffffffff16565b9050919050565b6000806000806129e18660000186612b30565b915091508160001c8160001c9350935050509250929050565b6000612a0d846000018460001b84612b70565b60001c90509392505050565b6000612a2782600001612bf1565b9050919050565b6000612a40836000018360001b612c02565b905092915050565b6000612a74846000018460001b8473ffffffffffffffffffffffffffffffffffffffff1660001b612c72565b90509392505050565b60026001541415612ac3576040517f08c379a0000000000000000000000000000000000000000000000000000000008152600401612aba90614f88565b60405180910390fd5b6002600181905550565b60018081905550565b6000612ae482600001612cad565b9050919050565b6000826000018281548110612b0357612b026141e7565b5b9060005260206000200154905092915050565b6000612b28836000018360001b612cc2565b905092915050565b6000806000612b4b8486600001612ce290919063ffffffff16565b9050808560020160008381526020019081526020016000205492509250509250929050565b6000808460020160008581526020019081526020016000205490506000801b81141580612ba35750612ba28585612cc2565b5b8390612be5576040517f08c379a0000000000000000000000000000000000000000000000000000000008152600401612bdc9190613016565b60405180910390fd5b50809150509392505050565b600081600001805490509050919050565b6000612c0e8383612cf9565b612c67578260000182908060018154018082558091505060019003906000526020600020016000909190919091505582600001805490508360010160008481526020019081526020016000208190555060019050612c6c565b600090505b92915050565b60008184600201600085815260200190815260200160002081905550612ca48385600001612d1c90919063ffffffff16565b90509392505050565b6000612cbb82600001612bf1565b9050919050565b6000612cda8284600001612d3390919063ffffffff16565b905092915050565b6000612cf18360000183612aeb565b905092915050565b600080836001016000848152602001908152602001600020541415905092915050565b6000612d2b8360000183612c02565b905092915050565b6000612d428360000183612cf9565b905092915050565b828054612d5690613c77565b90600052602060002090601f016020900481019282612d785760008555612dbf565b82601f10612d9157805160ff1916838001178555612dbf565b82800160010185558215612dbf579182015b82811115612dbe578251825591602001919060010190612da3565b5b509050612dcc9190612e91565b5090565b828054828255906000526020600020908101928215612e0c579160200282015b82811115612e0b578251825591602001919060010190612df0565b5b509050612e199190612e91565b5090565b604051806101000160405280600060ff168152602001600060ff168152602001600060ff168152602001600062ffffff168152602001600062ffffff168152602001600063ffffffff168152602001600073ffffffffffffffffffffffffffffffffffffffff168152602001606081525090565b5b80821115612eaa576000816000905550600101612e92565b5090565b6000604051905090565b600080fd5b600080fd5b60007fffffffff0000000000000000000000000000000000000000000000000000000082169050919050565b612ef781612ec2565b8114612f0257600080fd5b50565b600081359050612f1481612eee565b92915050565b600060208284031215612f3057612f2f612eb8565b5b6000612f3e84828501612f05565b91505092915050565b60008115159050919050565b612f5c81612f47565b82525050565b6000602082019050612f776000830184612f53565b92915050565b600081519050919050565b600082825260208201905092915050565b60005b83811015612fb7578082015181840152602081019050612f9c565b83811115612fc6576000848401525b50505050565b6000601f19601f8301169050919050565b6000612fe882612f7d565b612ff28185612f88565b9350613002818560208601612f99565b61300b81612fcc565b840191505092915050565b600060208201905081810360008301526130308184612fdd565b905092915050565b6000819050919050565b61304b81613038565b811461305657600080fd5b50565b60008135905061306881613042565b92915050565b60006020828403121561308457613083612eb8565b5b600061309284828501613059565b91505092915050565b600073ffffffffffffffffffffffffffffffffffffffff82169050919050565b60006130c68261309b565b9050919050565b6130d6816130bb565b82525050565b60006020820190506130f160008301846130cd565b92915050565b613100816130bb565b811461310b57600080fd5b50565b60008135905061311d816130f7565b92915050565b6000806040838503121561313a57613139612eb8565b5b60006131488582860161310e565b925050602061315985828601613059565b9150509250929050565b61316c81613038565b82525050565b60006020820190506131876000830184613163565b92915050565b6000806000606084860312156131a6576131a5612eb8565b5b60006131b48682870161310e565b93505060206131c58682870161310e565b92505060406131d686828701613059565b9150509250925092565b6000602082840312156131f6576131f5612eb8565b5b60006132048482850161310e565b91505092915050565b600060ff82169050919050565b6132238161320d565b811461322e57600080fd5b50565b6000813590506132408161321a565b92915050565b600062ffffff82169050919050565b61325e81613246565b811461326957600080fd5b50565b60008135905061327b81613255565b92915050565b600063ffffffff82169050919050565b61329a81613281565b81146132a557600080fd5b50565b6000813590506132b781613291565b92915050565b600080fd5b600080fd5b600080fd5b60008083601f8401126132e2576132e16132bd565b5b8235905067ffffffffffffffff8111156132ff576132fe6132c2565b5b60208301915083602082028301111561331b5761331a6132c7565b5b9250929050565b600080fd5b7f4e487b7100000000000000000000000000000000000000000000000000000000600052604160045260246000fd5b61335f82612fcc565b810181811067ffffffffffffffff8211171561337e5761337d613327565b5b80604052505050565b6000613391612eae565b905061339d8282613356565b919050565b600067ffffffffffffffff8211156133bd576133bc613327565b5b6133c682612fcc565b9050602081019050919050565b82818337600083830152505050565b60006133f56133f0846133a2565b613387565b90508281526020810184848401111561341157613410613322565b5b61341c8482856133d3565b509392505050565b600082601f830112613439576134386132bd565b5b81356134498482602086016133e2565b91505092915050565b6000806000806000806000806000806101208b8d03121561347657613475612eb8565b5b60006134848d828e01613231565b9a505060206134958d828e01613231565b99505060406134a68d828e01613231565b98505060606134b78d828e0161326c565b97505060806134c88d828e016132a8565b96505060a08b013567ffffffffffffffff8111156134e9576134e8612ebd565b5b6134f58d828e016132cc565b955095505060c06135088d828e0161310e565b93505060e08b013567ffffffffffffffff81111561352957613528612ebd565b5b6135358d828e01613424565b9250506101008b013567ffffffffffffffff81111561355757613556612ebd565b5b6135638d828e01613424565b9150509295989b9194979a5092959850565b61357e81612f47565b811461358957600080fd5b50565b60008135905061359b81613575565b92915050565b600080604083850312156135b8576135b7612eb8565b5b60006135c68582860161310e565b92505060206135d78582860161358c565b9150509250929050565b600067ffffffffffffffff8211156135fc576135fb613327565b5b61360582612fcc565b9050602081019050919050565b6000613625613620846135e1565b613387565b90508281526020810184848401111561364157613640613322565b5b61364c8482856133d3565b509392505050565b600082601f830112613669576136686132bd565b5b8135613679848260208601613612565b91505092915050565b6000806000806080858703121561369c5761369b612eb8565b5b60006136aa8782880161310e565b94505060206136bb8782880161310e565b93505060406136cc87828801613059565b925050606085013567ffffffffffffffff8111156136ed576136ec612ebd565b5b6136f987828801613654565b91505092959194509250565b600067ffffffffffffffff8211156137205761371f613327565b5b602082029050602081019050919050565b600061374461373f84613705565b613387565b90508083825260208201905060208402830185811115613767576137666132c7565b5b835b81811015613790578061377c8882613059565b845260208401935050602081019050613769565b5050509392505050565b600082601f8301126137af576137ae6132bd565b5b81356137bf848260208601613731565b91505092915050565b600080604083850312156137df576137de612eb8565b5b60006137ed85828601613059565b925050602083013567ffffffffffffffff81111561380e5761380d612ebd565b5b61381a8582860161379a565b9150509250929050565b6000819050919050565b600061384961384461383f8461309b565b613824565b61309b565b9050919050565b600061385b8261382e565b9050919050565b600061386d82613850565b9050919050565b61387d81613862565b82525050565b60006020820190506138986000830184613874565b92915050565b60006138a982613850565b9050919050565b6138b98161389e565b82525050565b60006020820190506138d460008301846138b0565b92915050565b6000819050826020600202820111156138f6576138f56132c7565b5b92915050565b600081905082604060020282011115613918576139176132c7565b5b92915050565b6000806000806000806000610160888a03121561393e5761393d612eb8565b5b600061394c8a828b01613059565b975050602061395d8a828b0161310e565b965050604061396e8a828b016138da565b955050608061397f8a828b016138fc565b9450506101006139918a828b016138da565b93505061014088013567ffffffffffffffff8111156139b3576139b2612ebd565b5b6139bf8a828b016132cc565b925092505092959891949750929550565b600081519050919050565b600082825260208201905092915050565b6000819050602082019050919050565b613a0581613038565b82525050565b6000613a1783836139fc565b60208301905092915050565b6000602082019050919050565b6000613a3b826139d0565b613a4581856139db565b9350613a50836139ec565b8060005b83811015613a81578151613a688882613a0b565b9750613a7383613a23565b925050600181019050613a54565b5085935050505092915050565b60006020820190508181036000830152613aa88184613a30565b905092915050565b60008060408385031215613ac757613ac6612eb8565b5b6000613ad58582860161310e565b9250506020613ae68582860161310e565b9150509250929050565b613af98161320d565b82525050565b613b0881613246565b82525050565b613b1781613281565b82525050565b613b26816130bb565b82525050565b600082825260208201905092915050565b6000613b4882612f7d565b613b528185613b2c565b9350613b62818560208601612f99565b613b6b81612fcc565b840191505092915050565b600061010083016000830151613b8f6000860182613af0565b506020830151613ba26020860182613af0565b506040830151613bb56040860182613af0565b506060830151613bc86060860182613aff565b506080830151613bdb6080860182613aff565b5060a0830151613bee60a0860182613b0e565b5060c0830151613c0160c0860182613b1d565b5060e083015184820360e0860152613c198282613b3d565b9150508091505092915050565b60006020820190508181036000830152613c408184613b76565b905092915050565b7f4e487b7100000000000000000000000000000000000000000000000000000000600052602260045260246000fd5b60006002820490506001821680613c8f57607f821691505b60208210811415613ca357613ca2613c48565b5b50919050565b7f4251543a2063616e6e6f7420617070726f766520746573747300000000000000600082015250565b6000613cdf601983612f88565b9150613cea82613ca9565b602082019050919050565b60006020820190508181036000830152613d0e81613cd2565b9050919050565b7f4251543a2063616e6e6f74207472616e73666572207465737473000000000000600082015250565b6000613d4b601a83612f88565b9150613d5682613d15565b602082019050919050565b60006020820190508181036000830152613d7a81613d3e565b9050919050565b7f496e646578206f7574206f6620626f756e647300000000000000000000000000600082015250565b6000613db7601383612f88565b9150613dc282613d81565b602082019050919050565b60006020820190508181036000830152613de681613daa565b9050919050565b7f5465737420646f6573206e6f7420657869737400000000000000000000000000600082015250565b6000613e23601383612f88565b9150613e2e82613ded565b602082019050919050565b60006020820190508181036000830152613e5281613e16565b9050919050565b7f54657374206973206e6f74206d756c7469706c652063686f696365206f72206d60008201527f6978656400000000000000000000000000000000000000000000000000000000602082015250565b6000613eb5602483612f88565b9150613ec082613e59565b604082019050919050565b60006020820190508181036000830152613ee481613ea8565b9050919050565b7f54657374206973206e6f74206f70656e20616e73776572206f72206d69786564600082015250565b6000613f21602083612f88565b9150613f2c82613eeb565b602082019050919050565b60006020820190508181036000830152613f5081613f14565b9050919050565b7f4552433732313a2062616c616e636520717565727920666f7220746865207a6560008201527f726f206164647265737300000000000000000000000000000000000000000000602082015250565b6000613fb3602a83612f88565b9150613fbe82613f57565b604082019050919050565b60006020820190508181036000830152613fe281613fa6565b9050919050565b7f4e487b7100000000000000000000000000000000000000000000000000000000600052601160045260246000fd5b600061402382613038565b91507fffffffffffffffffffffffffffffffffffffffffffffffffffffffffffffffff82141561405657614055613fe9565b5b600182019050919050565b7f54696d65206c696d697420697320696e20746865207061737400000000000000600082015250565b6000614097601983612f88565b91506140a282614061565b602082019050919050565b600060208201905081810360008301526140c68161408a565b9050919050565b6000815190506140dc81613042565b92915050565b6000602082840312156140f8576140f7612eb8565b5b6000614106848285016140cd565b91505092915050565b7f496e76616c6964206e756d626572206f66207175657374696f6e730000000000600082015250565b6000614145601b83612f88565b91506141508261410f565b602082019050919050565b6000602082019050818103600083015261417481614138565b9050919050565b7f496e76616c6964206d696e696d756d2067726164650000000000000000000000600082015250565b60006141b1601583612f88565b91506141bc8261417b565b602082019050919050565b600060208201905081810360008301526141e0816141a4565b9050919050565b7f4e487b7100000000000000000000000000000000000000000000000000000000600052603260045260246000fd5b7f4d756c7469706c652063686f6963652074657374206d7573742068617665203160008201527f3030206173206d696e696d756d20677261646500000000000000000000000000602082015250565b6000614272603383612f88565b915061427d82614216565b604082019050919050565b600060208201905081810360008301526142a181614265565b9050919050565b7f4d756c7469706c652063686f6963652074657374206d7573742068617665203160008201527f206173206e756d626572206f66206f70656e207175657374696f6e7300000000602082015250565b6000614304603c83612f88565b915061430f826142a8565b604082019050919050565b60006020820190508181036000830152614333816142f7565b9050919050565b7f496e76616c696420746573742074797065000000000000000000000000000000600082015250565b6000614370601183612f88565b915061437b8261433a565b602082019050919050565b6000602082019050818103600083015261439f81614363565b9050919050565b7f546573742077617320616c726561647920696e76616c69646174656400000000600082015250565b60006143dc601c83612f88565b91506143e7826143a6565b602082019050919050565b6000602082019050818103600083015261440b816143cf565b9050919050565b7f496e76616c69646174696e6720746573742074686174206973206e6f74206f7760008201527f6e00000000000000000000000000000000000000000000000000000000000000602082015250565b600061446e602183612f88565b915061447982614412565b604082019050919050565b6000602082019050818103600083015261449d81614461565b9050919050565b7f546573742077617320616c726561647920766572696669656400000000000000600082015250565b60006144da601983612f88565b91506144e5826144a4565b602082019050919050565b60006020820190508181036000830152614509816144cd565b9050919050565b7f566572696679696e6720746573742074686174206973206e6f74206f776e0000600082015250565b6000614546601e83612f88565b915061455182614510565b602082019050919050565b6000602082019050818103600083015261457581614539565b9050919050565b7f496e76616c6964206e756d6265722070726f7669646564000000000000000000600082015250565b60006145b2601783612f88565b91506145bd8261457c565b602082019050919050565b600060208201905081810360008301526145e1816145a5565b9050919050565b7f546573742063616e6e6f7420626520736f6c766564206279206f776e65720000600082015250565b600061461e601e83612f88565b9150614629826145e8565b602082019050919050565b6000602082019050818103600083015261464d81614611565b9050919050565b7f4d6178696d756d206e756d626572206f662063726564656e7469616c7320726560008201527f6163686564000000000000000000000000000000000000000000000000000000602082015250565b60006146b0602583612f88565b91506146bb82614654565b604082019050919050565b600060208201905081810360008301526146df816146a3565b9050919050565b7f54696d65206c696d697420666f7220746869732063726564656e7469616c207260008201527f6561636865640000000000000000000000000000000000000000000000000000602082015250565b6000614742602683612f88565b915061474d826146e6565b604082019050919050565b6000602082019050818103600083015261477181614735565b9050919050565b7f536f6c76657220646f6573206e6f74206f776e2074686520726571756972656460008201527f20746f6b656e0000000000000000000000000000000000000000000000000000602082015250565b60006147d4602683612f88565b91506147df82614778565b604082019050919050565b60006020820190508181036000830152614803816147c7565b9050919050565b6148138161320d565b82525050565b614825604083836133d3565b5050565b600060029050919050565b600081905092915050565b6000819050919050565b614855604083836133d3565b5050565b60006148658383614849565b60408301905092915050565b600082905092915050565b6000604082019050919050565b61489281614829565b61489c8184614834565b92506148a78261483f565b8060005b838110156148e0576148bd8284614871565b6148c78782614859565b96506148d28361487c565b9250506001810190506148ab565b505050505050565b600080fd5b60006148f983856139db565b93507f07ffffffffffffffffffffffffffffffffffffffffffffffffffffffffffffff83111561492c5761492b6148e8565b5b60208302925061493d8385846133d3565b82840190509392505050565b60006101608201905061495f600083018a61480a565b61496c6020830189614819565b6149796060830188614889565b61498660e0830187614819565b81810361012083015261499a8185876148ed565b90506149aa610140830184613163565b98975050505050505050565b6000815190506149c581613575565b92915050565b6000602082840312156149e1576149e0612eb8565b5b60006149ef848285016149b6565b91505092915050565b7f496e76616c69642070726f6f6600000000000000000000000000000000000000600082015250565b6000614a2e600d83612f88565b9150614a39826149f8565b602082019050919050565b60006020820190508181036000830152614a5d81614a21565b9050919050565b7f536f6c76696e6720666f7220616e6f7468657220746573740000000000000000600082015250565b6000614a9a601883612f88565b9150614aa582614a64565b602082019050919050565b60006020820190508181036000830152614ac981614a8d565b9050919050565b6000614adb82613038565b9150614ae683613038565b9250827fffffffffffffffffffffffffffffffffffffffffffffffffffffffffffffffff03821115614b1b57614b1a613fe9565b5b828201905092915050565b6000614b3182613038565b9150614b3c83613038565b925082821015614b4f57614b4e613fe9565b5b828203905092915050565b6000614b6582613038565b9150614b7083613038565b9250817fffffffffffffffffffffffffffffffffffffffffffffffffffffffffffffffff0483118215151615614ba957614ba8613fe9565b5b828202905092915050565b7f4e487b7100000000000000000000000000000000000000000000000000000000600052601260045260246000fd5b6000614bee82613038565b9150614bf983613038565b925082614c0957614c08614bb4565b5b828204905092915050565b7f47726164652069732062656c6f77206d696e696d756d00000000000000000000600082015250565b6000614c4a601683612f88565b9150614c5582614c14565b602082019050919050565b60006020820190508181036000830152614c7981614c3d565b9050919050565b6000614c8b8261320d565b9150614c968361320d565b925082821015614ca957614ca8613fe9565b5b828203905092915050565b7f57726f6e6720736f6c7574696f6e000000000000000000000000000000000000600082015250565b6000614cea600e83612f88565b9150614cf582614cb4565b602082019050919050565b60006020820190508181036000830152614d1981614cdd565b9050919050565b7f5465737420686173206265656e2064656c6574656420616e642063616e206e6f60008201527f206c6f6e67657220626520736f6c766564000000000000000000000000000000602082015250565b6000614d7c603183612f88565b9150614d8782614d20565b604082019050919050565b60006020820190508181036000830152614dab81614d6f565b9050919050565b6000604082019050614dc760008301856130cd565b614dd46020830184613163565b9392505050565b6000614de682613246565b915062ffffff821415614dfc57614dfb613fe9565b5b600182019050919050565b7f596f7572206578697374696e672063726564656e7469616c206861732061206260008201527f657474657220726573756c740000000000000000000000000000000000000000602082015250565b6000614e63602c83612f88565b9150614e6e82614e07565b604082019050919050565b60006020820190508181036000830152614e9281614e56565b9050919050565b6000606082019050614eae60008301866130cd565b614ebb6020830185613163565b614ec86040830184613163565b949350505050565b7f5465737420776173206e6f742076657269666965640000000000000000000000600082015250565b6000614f06601583612f88565b9150614f1182614ed0565b602082019050919050565b60006020820190508181036000830152614f3581614ef9565b9050919050565b7f5265656e7472616e637947756172643a207265656e7472616e742063616c6c00600082015250565b6000614f72601f83612f88565b9150614f7d82614f3c565b602082019050919050565b60006020820190508181036000830152614fa181614f65565b905091905056fea2646970667358221220805b0527cd8b692e6099de04f810f11707a5d3977b1149d81ca63b4b63583d9064736f6c6343000809003360806040526040518060400160405280601b81526020017f426c6f636b205175616c69666965642043726564656e7469616c730000000000815250600290805190602001906200005192919062000303565b506040518060400160405280600381526020017f4251430000000000000000000000000000000000000000000000000000000000815250600390805190602001906200009f92919062000303565b50348015620000ad57600080fd5b50620000ce620000c26200015d60201b60201c565b6200016560201b60201c565b33600460006101000a81548173ffffffffffffffffffffffffffffffffffffffff021916908373ffffffffffffffffffffffffffffffffffffffff160217905550620001276380ac58cd60e01b6200022b60201b60201c565b6200013f635b5e139f60e01b6200022b60201b60201c565b6200015763780e9d6360e01b6200022b60201b60201c565b6200049b565b600033905090565b6000600160009054906101000a900473ffffffffffffffffffffffffffffffffffffffff16905081600160006101000a81548173ffffffffffffffffffffffffffffffffffffffff021916908373ffffffffffffffffffffffffffffffffffffffff1602179055508173ffffffffffffffffffffffffffffffffffffffff168173ffffffffffffffffffffffffffffffffffffffff167f8be0079c531659141344cd1fd0a4f28419497f9722a3daafe3b4186f6b6457e060405160405180910390a35050565b63ffffffff60e01b817bffffffffffffffffffffffffffffffffffffffffffffffffffffffff1916141562000297576040517f08c379a00000000000000000000000000000000000000000000000000000000081526004016200028e9062000414565b60405180910390fd5b6001600080837bffffffffffffffffffffffffffffffffffffffffffffffffffffffff19167bffffffffffffffffffffffffffffffffffffffffffffffffffffffff1916815260200190815260200160002060006101000a81548160ff02191690831515021790555050565b828054620003119062000465565b90600052602060002090601f01602090048101928262000335576000855562000381565b82601f106200035057805160ff191683800117855562000381565b8280016001018555821562000381579182015b828111156200038057825182559160200191906001019062000363565b5b50905062000390919062000394565b5090565b5b80821115620003af57600081600090555060010162000395565b5090565b600082825260208201905092915050565b7f4552433136353a20696e76616c696420696e7465726661636520696400000000600082015250565b6000620003fc601c83620003b3565b91506200040982620003c4565b602082019050919050565b600060208201905081810360008301526200042f81620003ed565b9050919050565b7f4e487b7100000000000000000000000000000000000000000000000000000000600052602260045260246000fd5b600060028204905060018216806200047e57607f821691505b6020821081141562000495576200049462000436565b5b50919050565b6127cb80620004ab6000396000f3fe608060405234801561001057600080fd5b50600436106101735760003560e01c80636352211e116100de578063a22cb46511610097578063e985e9c511610071578063e985e9c514610482578063f2fde38b146104b2578063f34071da146104ce578063ff4236f8146104fe57610173565b8063a22cb4651461041a578063b88d4fde14610436578063c87b56dd1461045257610173565b80636352211e1461034457806370a0823114610374578063715018a6146103a45780638da5cb5b146103ae5780638dd18d2d146103cc57806395d89b41146103fc57610173565b806323b872dd1161013057806323b872dd1461026057806329edae3a1461027c5780632f745c59146102ac57806332cbe31c146102dc57806342842e0e146102f85780634f6ccce71461031457610173565b806301ffc9a714610178578063061e4dde146101a857806306fdde03146101d8578063081812fc146101f6578063095ea7b31461022657806318160ddd14610242575b600080fd5b610192600480360381019061018d91906117ca565b61052e565b60405161019f9190611812565b60405180910390f35b6101c260048036038101906101bd919061188b565b6105a5565b6040516101cf9190611980565b60405180910390f35b6101e06105f5565b6040516101ed9190611a3b565b60405180910390f35b610210600480360381019061020b9190611a89565b610687565b60405161021d9190611ac5565b60405180910390f35b610240600480360381019061023b9190611ae0565b61068e565b005b61024a6106c9565b6040516102579190611b2f565b60405180910390f35b61027a60048036038101906102759190611b4a565b610867565b005b61029660048036038101906102919190611ae0565b6108a2565b6040516102a39190611b2f565b60405180910390f35b6102c660048036038101906102c19190611ae0565b6108fd565b6040516102d39190611b2f565b60405180910390f35b6102f660048036038101906102f19190611b9d565b6109a2565b005b610312600480360381019061030d9190611b4a565b610b4f565b005b61032e60048036038101906103299190611a89565b610b6f565b60405161033b9190611b2f565b60405180910390f35b61035e60048036038101906103599190611a89565b610c23565b60405161036b9190611ac5565b60405180910390f35b61038e6004803603810190610389919061188b565b610cd7565b60405161039b9190611b2f565b60405180910390f35b6103ac610d96565b005b6103b6610daa565b6040516103c39190611ac5565b60405180910390f35b6103e660048036038101906103e19190611a89565b610dd4565b6040516103f39190611a3b565b60405180910390f35b610404610f7b565b6040516104119190611a3b565b60405180910390f35b610434600480360381019061042f9190611c1c565b61100d565b005b610450600480360381019061044b9190611d91565b611048565b005b61046c60048036038101906104679190611a89565b611083565b6040516104799190611a3b565b60405180910390f35b61049c60048036038101906104979190611e14565b61113c565b6040516104a99190611812565b60405180910390f35b6104cc60048036038101906104c7919061188b565b611144565b005b6104e860048036038101906104e39190611a89565b6111c8565b6040516104f59190611f12565b60405180910390f35b61051860048036038101906105139190611a89565b6111ec565b6040516105259190611f50565b60405180910390f35b600061053982611393565b8061059e5750600080837bffffffffffffffffffffffffffffffffffffffffffffffffffffffff19167bffffffffffffffffffffffffffffffffffffffffffffffffffffffff1916815260200190815260200160002060009054906101000a900460ff165b9050919050565b60606105ee600560008473ffffffffffffffffffffffffffffffffffffffff1673ffffffffffffffffffffffffffffffffffffffff1681526020019081526020016000206113fd565b9050919050565b60606002805461060490611f9a565b80601f016020809104026020016040519081016040528092919081815260200182805461063090611f9a565b801561067d5780601f106106525761010080835404028352916020019161067d565b820191906000526020600020905b81548152906001019060200180831161066057829003601f168201915b5050505050905090565b6000919050565b6040517f08c379a00000000000000000000000000000000000000000000000000000000081526004016106c090612018565b60405180910390fd5b600080600460009054906101000a900473ffffffffffffffffffffffffffffffffffffffff1673ffffffffffffffffffffffffffffffffffffffff166318160ddd6040518163ffffffff1660e01b815260040160206040518083038186803b15801561073457600080fd5b505afa158015610748573d6000803e3d6000fd5b505050506040513d601f19601f8201168201806040525081019061076c919061204d565b905060005b81811015610862576000600460009054906101000a900473ffffffffffffffffffffffffffffffffffffffff1673ffffffffffffffffffffffffffffffffffffffff16634f6ccce7836040518263ffffffff1660e01b81526004016107d69190611b2f565b60206040518083038186803b1580156107ee57600080fd5b505afa158015610802573d6000803e3d6000fd5b505050506040513d601f19601f82011682018060405250810190610826919061204d565b90506108436007600083815260200190815260200160002061141e565b8461084e91906120a9565b9350508061085b906120ff565b9050610771565b505090565b6040517f08c379a000000000000000000000000000000000000000000000000000000000815260040161089990612194565b60405180910390fd5b60006006600083815260200190815260200160002060008473ffffffffffffffffffffffffffffffffffffffff1673ffffffffffffffffffffffffffffffffffffffff16815260200190815260200160002054905092915050565b600061090883610cd7565b8210610949576040517f08c379a000000000000000000000000000000000000000000000000000000000815260040161094090612200565b60405180910390fd5b61099a82600560008673ffffffffffffffffffffffffffffffffffffffff1673ffffffffffffffffffffffffffffffffffffffff16815260200190815260200160002061143390919063ffffffff16565b905092915050565b6109aa61144d565b806006600084815260200190815260200160002060008573ffffffffffffffffffffffffffffffffffffffff1673ffffffffffffffffffffffffffffffffffffffff16815260200190815260200160002081905550610a5082600560008673ffffffffffffffffffffffffffffffffffffffff1673ffffffffffffffffffffffffffffffffffffffff1681526020019081526020016000206114cb90919063ffffffff16565b610b4a57610aa582600560008673ffffffffffffffffffffffffffffffffffffffff1673ffffffffffffffffffffffffffffffffffffffff1681526020019081526020016000206114e590919063ffffffff16565b50610acb83600760008581526020019081526020016000206114ff90919063ffffffff16565b50818373ffffffffffffffffffffffffffffffffffffffff16600460009054906101000a900473ffffffffffffffffffffffffffffffffffffffff1673ffffffffffffffffffffffffffffffffffffffff167fddf252ad1be2c89b69c2b068fc378daa952ba7f163c4a11628f55a4df523b3ef60405160405180910390a45b505050565b610b6a83838360405180602001604052806000815250611048565b505050565b6000600460009054906101000a900473ffffffffffffffffffffffffffffffffffffffff1673ffffffffffffffffffffffffffffffffffffffff16634f6ccce7836040518263ffffffff1660e01b8152600401610bcc9190611b2f565b60206040518083038186803b158015610be457600080fd5b505afa158015610bf8573d6000803e3d6000fd5b505050506040513d601f19601f82011682018060405250810190610c1c919061204d565b9050919050565b6000600460009054906101000a900473ffffffffffffffffffffffffffffffffffffffff1673ffffffffffffffffffffffffffffffffffffffff16636352211e836040518263ffffffff1660e01b8152600401610c809190611b2f565b60206040518083038186803b158015610c9857600080fd5b505afa158015610cac573d6000803e3d6000fd5b505050506040513d601f19601f82011682018060405250810190610cd09190612235565b9050919050565b60008073ffffffffffffffffffffffffffffffffffffffff168273ffffffffffffffffffffffffffffffffffffffff161415610d48576040517f08c379a0000000000000000000000000000000000000000000000000000000008152600401610d3f906122d4565b60405180910390fd5b610d8f600560008473ffffffffffffffffffffffffffffffffffffffff1673ffffffffffffffffffffffffffffffffffffffff16815260200190815260200160002061152f565b9050919050565b610d9e61144d565b610da86000611544565b565b6000600160009054906101000a900473ffffffffffffffffffffffffffffffffffffffff16905090565b6060600460009054906101000a900473ffffffffffffffffffffffffffffffffffffffff1673ffffffffffffffffffffffffffffffffffffffff1663d8b05250836040518263ffffffff1660e01b8152600401610e319190611b2f565b60206040518083038186803b158015610e4957600080fd5b505afa158015610e5d573d6000803e3d6000fd5b505050506040513d601f19601f82011682018060405250810190610e819190612309565b610ec0576040517f08c379a0000000000000000000000000000000000000000000000000000000008152600401610eb790612382565b60405180910390fd5b600460009054906101000a900473ffffffffffffffffffffffffffffffffffffffff1673ffffffffffffffffffffffffffffffffffffffff1663edef019d836040518263ffffffff1660e01b8152600401610f1b9190611b2f565b60006040518083038186803b158015610f3357600080fd5b505afa158015610f47573d6000803e3d6000fd5b505050506040513d6000823e3d601f19601f82011682018060405250810190610f7091906125d6565b60e001519050919050565b606060038054610f8a90611f9a565b80601f0160208091040260200160405190810160405280929190818152602001828054610fb690611f9a565b80156110035780601f10610fd857610100808354040283529160200191611003565b820191906000526020600020905b815481529060010190602001808311610fe657829003601f168201915b5050505050905090565b6040517f08c379a000000000000000000000000000000000000000000000000000000000815260040161103f90612018565b60405180910390fd5b6040517f08c379a000000000000000000000000000000000000000000000000000000000815260040161107a90612194565b60405180910390fd5b6060600460009054906101000a900473ffffffffffffffffffffffffffffffffffffffff1673ffffffffffffffffffffffffffffffffffffffff1663c87b56dd836040518263ffffffff1660e01b81526004016110e09190611b2f565b60006040518083038186803b1580156110f857600080fd5b505afa15801561110c573d6000803e3d6000fd5b505050506040513d6000823e3d601f19601f82011682018060405250810190611135919061261f565b9050919050565b600092915050565b61114c61144d565b600073ffffffffffffffffffffffffffffffffffffffff168173ffffffffffffffffffffffffffffffffffffffff1614156111bc576040517f08c379a00000000000000000000000000000000000000000000000000000000081526004016111b3906126da565b60405180910390fd5b6111c581611544565b50565b60606111e56007600084815260200190815260200160002061160a565b9050919050565b6000600460009054906101000a900473ffffffffffffffffffffffffffffffffffffffff1673ffffffffffffffffffffffffffffffffffffffff1663d8b05250836040518263ffffffff1660e01b81526004016112499190611b2f565b60206040518083038186803b15801561126157600080fd5b505afa158015611275573d6000803e3d6000fd5b505050506040513d601f19601f820116820180604052508101906112999190612309565b6112d8576040517f08c379a00000000000000000000000000000000000000000000000000000000081526004016112cf90612382565b60405180910390fd5b600460009054906101000a900473ffffffffffffffffffffffffffffffffffffffff1673ffffffffffffffffffffffffffffffffffffffff1663edef019d836040518263ffffffff1660e01b81526004016113339190611b2f565b60006040518083038186803b15801561134b57600080fd5b505afa15801561135f573d6000803e3d6000fd5b505050506040513d6000823e3d601f19601f8201168201806040525081019061138891906125d6565b600001519050919050565b60007f01ffc9a7000000000000000000000000000000000000000000000000000000007bffffffffffffffffffffffffffffffffffffffffffffffffffffffff1916827bffffffffffffffffffffffffffffffffffffffffffffffffffffffff1916149050919050565b6060600061140d8360000161162b565b905060608190508092505050919050565b600061142c82600001611687565b9050919050565b60006114428360000183611698565b60001c905092915050565b6114556116c3565b73ffffffffffffffffffffffffffffffffffffffff16611473610daa565b73ffffffffffffffffffffffffffffffffffffffff16146114c9576040517f08c379a00000000000000000000000000000000000000000000000000000000081526004016114c090612746565b60405180910390fd5b565b60006114dd836000018360001b6116cb565b905092915050565b60006114f7836000018360001b6116ee565b905092915050565b6000611527836000018373ffffffffffffffffffffffffffffffffffffffff1660001b6116ee565b905092915050565b600061153d82600001611687565b9050919050565b6000600160009054906101000a900473ffffffffffffffffffffffffffffffffffffffff16905081600160006101000a81548173ffffffffffffffffffffffffffffffffffffffff021916908373ffffffffffffffffffffffffffffffffffffffff1602179055508173ffffffffffffffffffffffffffffffffffffffff168173ffffffffffffffffffffffffffffffffffffffff167f8be0079c531659141344cd1fd0a4f28419497f9722a3daafe3b4186f6b6457e060405160405180910390a35050565b6060600061161a8360000161162b565b905060608190508092505050919050565b60608160000180548060200260200160405190810160405280929190818152602001828054801561167b57602002820191906000526020600020905b815481526020019060010190808311611667575b50505050509050919050565b600081600001805490509050919050565b60008260000182815481106116b0576116af612766565b5b9060005260206000200154905092915050565b600033905090565b600080836001016000848152602001908152602001600020541415905092915050565b60006116fa83836116cb565b611753578260000182908060018154018082558091505060019003906000526020600020016000909190919091505582600001805490508360010160008481526020019081526020016000208190555060019050611758565b600090505b92915050565b6000604051905090565b600080fd5b600080fd5b60007fffffffff0000000000000000000000000000000000000000000000000000000082169050919050565b6117a781611772565b81146117b257600080fd5b50565b6000813590506117c48161179e565b92915050565b6000602082840312156117e0576117df611768565b5b60006117ee848285016117b5565b91505092915050565b60008115159050919050565b61180c816117f7565b82525050565b60006020820190506118276000830184611803565b92915050565b600073ffffffffffffffffffffffffffffffffffffffff82169050919050565b60006118588261182d565b9050919050565b6118688161184d565b811461187357600080fd5b50565b6000813590506118858161185f565b92915050565b6000602082840312156118a1576118a0611768565b5b60006118af84828501611876565b91505092915050565b600081519050919050565b600082825260208201905092915050565b6000819050602082019050919050565b6000819050919050565b6118f7816118e4565b82525050565b600061190983836118ee565b60208301905092915050565b6000602082019050919050565b600061192d826118b8565b61193781856118c3565b9350611942836118d4565b8060005b8381101561197357815161195a88826118fd565b975061196583611915565b925050600181019050611946565b5085935050505092915050565b6000602082019050818103600083015261199a8184611922565b905092915050565b600081519050919050565b600082825260208201905092915050565b60005b838110156119dc5780820151818401526020810190506119c1565b838111156119eb576000848401525b50505050565b6000601f19601f8301169050919050565b6000611a0d826119a2565b611a1781856119ad565b9350611a278185602086016119be565b611a30816119f1565b840191505092915050565b60006020820190508181036000830152611a558184611a02565b905092915050565b611a66816118e4565b8114611a7157600080fd5b50565b600081359050611a8381611a5d565b92915050565b600060208284031215611a9f57611a9e611768565b5b6000611aad84828501611a74565b91505092915050565b611abf8161184d565b82525050565b6000602082019050611ada6000830184611ab6565b92915050565b60008060408385031215611af757611af6611768565b5b6000611b0585828601611876565b9250506020611b1685828601611a74565b9150509250929050565b611b29816118e4565b82525050565b6000602082019050611b446000830184611b20565b92915050565b600080600060608486031215611b6357611b62611768565b5b6000611b7186828701611876565b9350506020611b8286828701611876565b9250506040611b9386828701611a74565b9150509250925092565b600080600060608486031215611bb657611bb5611768565b5b6000611bc486828701611876565b9350506020611bd586828701611a74565b9250506040611be686828701611a74565b9150509250925092565b611bf9816117f7565b8114611c0457600080fd5b50565b600081359050611c1681611bf0565b92915050565b60008060408385031215611c3357611c32611768565b5b6000611c4185828601611876565b9250506020611c5285828601611c07565b9150509250929050565b600080fd5b600080fd5b7f4e487b7100000000000000000000000000000000000000000000000000000000600052604160045260246000fd5b611c9e826119f1565b810181811067ffffffffffffffff82111715611cbd57611cbc611c66565b5b80604052505050565b6000611cd061175e565b9050611cdc8282611c95565b919050565b600067ffffffffffffffff821115611cfc57611cfb611c66565b5b611d05826119f1565b9050602081019050919050565b82818337600083830152505050565b6000611d34611d2f84611ce1565b611cc6565b905082815260208101848484011115611d5057611d4f611c61565b5b611d5b848285611d12565b509392505050565b600082601f830112611d7857611d77611c5c565b5b8135611d88848260208601611d21565b91505092915050565b60008060008060808587031215611dab57611daa611768565b5b6000611db987828801611876565b9450506020611dca87828801611876565b9350506040611ddb87828801611a74565b925050606085013567ffffffffffffffff811115611dfc57611dfb61176d565b5b611e0887828801611d63565b91505092959194509250565b60008060408385031215611e2b57611e2a611768565b5b6000611e3985828601611876565b9250506020611e4a85828601611876565b9150509250929050565b600081519050919050565b600082825260208201905092915050565b6000819050602082019050919050565b611e898161184d565b82525050565b6000611e9b8383611e80565b60208301905092915050565b6000602082019050919050565b6000611ebf82611e54565b611ec98185611e5f565b9350611ed483611e70565b8060005b83811015611f05578151611eec8882611e8f565b9750611ef783611ea7565b925050600181019050611ed8565b5085935050505092915050565b60006020820190508181036000830152611f2c8184611eb4565b905092915050565b600060ff82169050919050565b611f4a81611f34565b82525050565b6000602082019050611f656000830184611f41565b92915050565b7f4e487b7100000000000000000000000000000000000000000000000000000000600052602260045260246000fd5b60006002820490506001821680611fb257607f821691505b60208210811415611fc657611fc5611f6b565b5b50919050565b7f4251433a2063616e6e6f7420617070726f76652063726564656e7469616c7300600082015250565b6000612002601f836119ad565b915061200d82611fcc565b602082019050919050565b6000602082019050818103600083015261203181611ff5565b9050919050565b60008151905061204781611a5d565b92915050565b60006020828403121561206357612062611768565b5b600061207184828501612038565b91505092915050565b7f4e487b7100000000000000000000000000000000000000000000000000000000600052601160045260246000fd5b60006120b4826118e4565b91506120bf836118e4565b9250827fffffffffffffffffffffffffffffffffffffffffffffffffffffffffffffffff038211156120f4576120f361207a565b5b828201905092915050565b600061210a826118e4565b91507fffffffffffffffffffffffffffffffffffffffffffffffffffffffffffffffff82141561213d5761213c61207a565b5b600182019050919050565b7f4251433a2063616e6e6f74207472616e736665722063726564656e7469616c73600082015250565b600061217e6020836119ad565b915061218982612148565b602082019050919050565b600060208201905081810360008301526121ad81612171565b9050919050565b7f496e646578206f7574206f6620626f756e647300000000000000000000000000600082015250565b60006121ea6013836119ad565b91506121f5826121b4565b602082019050919050565b60006020820190508181036000830152612219816121dd565b9050919050565b60008151905061222f8161185f565b92915050565b60006020828403121561224b5761224a611768565b5b600061225984828501612220565b91505092915050565b7f4552433732313a2062616c616e636520717565727920666f7220746865207a6560008201527f726f206164647265737300000000000000000000000000000000000000000000602082015250565b60006122be602a836119ad565b91506122c982612262565b604082019050919050565b600060208201905081810360008301526122ed816122b1565b9050919050565b60008151905061230381611bf0565b92915050565b60006020828403121561231f5761231e611768565b5b600061232d848285016122f4565b91505092915050565b7f5465737420646f6573206e6f7420657869737400000000000000000000000000600082015250565b600061236c6013836119ad565b915061237782612336565b602082019050919050565b6000602082019050818103600083015261239b8161235f565b9050919050565b600080fd5b600080fd5b6123b581611f34565b81146123c057600080fd5b50565b6000815190506123d2816123ac565b92915050565b600062ffffff82169050919050565b6123f0816123d8565b81146123fb57600080fd5b50565b60008151905061240d816123e7565b92915050565b600063ffffffff82169050919050565b61242c81612413565b811461243757600080fd5b50565b60008151905061244981612423565b92915050565b600067ffffffffffffffff82111561246a57612469611c66565b5b612473826119f1565b9050602081019050919050565b600061249361248e8461244f565b611cc6565b9050828152602081018484840111156124af576124ae611c61565b5b6124ba8482856119be565b509392505050565b600082601f8301126124d7576124d6611c5c565b5b81516124e7848260208601612480565b91505092915050565b60006101008284031215612507576125066123a2565b5b612512610100611cc6565b90506000612522848285016123c3565b6000830152506020612536848285016123c3565b602083015250604061254a848285016123c3565b604083015250606061255e848285016123fe565b6060830152506080612572848285016123fe565b60808301525060a06125868482850161243a565b60a08301525060c061259a84828501612220565b60c08301525060e082015167ffffffffffffffff8111156125be576125bd6123a7565b5b6125ca848285016124c2565b60e08301525092915050565b6000602082840312156125ec576125eb611768565b5b600082015167ffffffffffffffff81111561260a5761260961176d565b5b612616848285016124f0565b91505092915050565b60006020828403121561263557612634611768565b5b600082015167ffffffffffffffff8111156126535761265261176d565b5b61265f848285016124c2565b91505092915050565b7f4f776e61626c653a206e6577206f776e657220697320746865207a65726f206160008201527f6464726573730000000000000000000000000000000000000000000000000000602082015250565b60006126c46026836119ad565b91506126cf82612668565b604082019050919050565b600060208201905081810360008301526126f3816126b7565b9050919050565b7f4f776e61626c653a2063616c6c6572206973206e6f7420746865206f776e6572600082015250565b60006127306020836119ad565b915061273b826126fa565b602082019050919050565b6000602082019050818103600083015261275f81612723565b9050919050565b7f4e487b7100000000000000000000000000000000000000000000000000000000600052603260045260246000fdfea26469706673582212203c3836b772daadc8210719d8f23468c90c6a895c4f0c749221713c232898223b64736f6c6343000809003360806040527f30644e72e131a029b85045b68181585d2833e84879b9709143e1f593f000000160005534801561003457600080fd5b5061233a806100446000396000f3fe608060405234801561001057600080fd5b506004361061002b5760003560e01c8063796bbf5114610030575b600080fd5b61004a60048036038101906100459190611dd5565b610060565b6040516100579190611ea2565b60405180910390f35b600061006a611b71565b60405180604001604052808960006002811061008957610088611ebd565b5b60200201358152602001896001600281106100a7576100a6611ebd565b5b60200201358152508160000181905250604051806040016040528060405180604001604052808a6000600281106100e1576100e0611ebd565b5b604002016000600281106100f8576100f7611ebd565b5b602002013581526020018a60006002811061011657610115611ebd565b5b6040020160016002811061012d5761012c611ebd565b5b6020020135815250815260200160405180604001604052808a60016002811061015957610158611ebd565b5b604002016000600281106101705761016f611ebd565b5b602002013581526020018a60016002811061018e5761018d611ebd565b5b604002016001600281106101a5576101a4611ebd565b5b602002013581525081525081602001819052506040518060400160405280876000600281106101d7576101d6611ebd565b5b60200201358152602001876001600281106101f5576101f4611ebd565b5b6020020135815250816040018190525061020d611ba4565b60008a60ff161415610238576002868690501461022957600080fd5b61023161047c565b90506102a4565b60008a60ff1611801561024e575060648a60ff16105b15610272576003868690501461026357600080fd5b61026b610970565b90506102a3565b60648a60ff16141561029d576001868690501461028e57600080fd5b610296610edc565b90506102a2565b600080fd5b5b5b600081608001516000815181106102be576102bd611ebd565b5b6020026020010151905060005b8787905081101561039e576000548888838181106102ec576102eb611ebd565b5b9050602002013510610333576040517f08c379a000000000000000000000000000000000000000000000000000000000815260040161032a90611f49565b60405180910390fd5b61038982610384856080015160018561034c9190611f98565b8151811061035d5761035c611ebd565b5b60200260200101518b8b8681811061037857610377611ebd565b5b90506020020135611358565b611435565b9150808061039690611fee565b9150506102cb565b5060005485106103e3576040517f08c379a00000000000000000000000000000000000000000000000000000000081526004016103da90611f49565b60405180910390fd5b6104238161041e846080015160018b8b90506103ff9190611f98565b815181106104105761040f611ebd565b5b602002602001015188611358565b611435565b90506104596104358460000151611538565b846020015184600001518560200151858760400151896040015189606001516115dd565b6104695760009350505050610471565b600193505050505b979650505050505050565b610484611ba4565b60405180604001604052807f2d4d9aa7e302d9df41749d5507949d05dbea33fbb16c643b22f599a2be6df2e281526020017f14bedd503c37ceb061d8ec60209fe345ce89830a19230301f076caff004d19268152508160000181905250604051806040016040528060405180604001604052807f0967032fcbf776d1afc985f88877f182d38480a653f2decaa9794cbc3bf3060c81526020017f0e187847ad4c798374d0d6732bf501847dd68bc0e071241e0213bc7fc13db7ab815250815260200160405180604001604052807f304cfbd1e08a704a99f5e847d93f8c3caafddec46b7a0d379da69a4d112346a781526020017f1739c1b1a457a8c7313123d24d2f9192f896b7c63eea05a9d57f06547ad0cec88152508152508160200181905250604051806040016040528060405180604001604052807f198e9393920d483a7260bfb731fb5d25f1aa493335a9e71297e485b7aef312c281526020017f1800deef121f1e76426a00665e5c4479674322d4f75edadd46debd5cd992f6ed815250815260200160405180604001604052807f090689d0585ff075ec9e99ad690c3395bc4b313370b38ef355acdadcd122975b81526020017f12c85ea5db8c6deb4aab71808dcb408fe3d1e7690c43d37b4ce6cc0166fa7daa8152508152508160400181905250604051806040016040528060405180604001604052807f11d84303b858fd1d8237c37b0338773c276dcfaa191b00198f96210f151d4e9481526020017f2903f8298e37db0281cbd132358739376a077b4a98078f7d86d3d8292f887200815250815260200160405180604001604052807f0e900d0b9da56dfd9a5aca7a37efd302afa2c06d23de43c21ce2f8e2689e6c8a81526020017f19852e360e1caedef0dd8710a604bd4cad7ef7a6444f3b0ce82ea8e8c8b959188152508152508160600181905250600467ffffffffffffffff81111561074b5761074a612037565b5b60405190808252806020026020018201604052801561078457816020015b610771611beb565b8152602001906001900390816107695790505b50816080018190525060405180604001604052807f2f1634eb673a2f1557942185fb57319a7095d9fc027574beeff07fd9b32a3d6281526020017f1f469af27dadfad4e6ae3c63d561a11d7e0837ca99ecc9a5085d4aaade658c6981525081608001516000815181106107fa576107f9611ebd565b5b602002602001018190525060405180604001604052807f131f19b4f1bc77f6f0a6331ef61402f894c6dbe98d70788d807ae5a6f7c26f8a81526020017f148a89a0c840ac542d120e2be1725920ce91585241fd96ccc78e31c8edd4142d815250816080015160018151811061087257610871611ebd565b5b602002602001018190525060405180604001604052807f037ab1a6ad9b39a14e696e1a43b969e44cf99ddc86699268ae0e91b769743fca81526020017f015316314cddc2ae170c1c7033abf8e0b7713a95c7255771141d927447b58b6381525081608001516002815181106108ea576108e9611ebd565b5b602002602001018190525060405180604001604052807f2caf9b5246d8cabee9910ad40e0d8e3f85e78afe11796e5e348c3e215ba072b281526020017f19e8b4d2fdb9710cd17c517417e46b84ca7ba2b02f53f20d5c1067d483e2251e815250816080015160038151811061096257610961611ebd565b5b602002602001018190525090565b610978611ba4565b60405180604001604052807f2d4d9aa7e302d9df41749d5507949d05dbea33fbb16c643b22f599a2be6df2e281526020017f14bedd503c37ceb061d8ec60209fe345ce89830a19230301f076caff004d19268152508160000181905250604051806040016040528060405180604001604052807f0967032fcbf776d1afc985f88877f182d38480a653f2decaa9794cbc3bf3060c81526020017f0e187847ad4c798374d0d6732bf501847dd68bc0e071241e0213bc7fc13db7ab815250815260200160405180604001604052807f304cfbd1e08a704a99f5e847d93f8c3caafddec46b7a0d379da69a4d112346a781526020017f1739c1b1a457a8c7313123d24d2f9192f896b7c63eea05a9d57f06547ad0cec88152508152508160200181905250604051806040016040528060405180604001604052807f198e9393920d483a7260bfb731fb5d25f1aa493335a9e71297e485b7aef312c281526020017f1800deef121f1e76426a00665e5c4479674322d4f75edadd46debd5cd992f6ed815250815260200160405180604001604052807f090689d0585ff075ec9e99ad690c3395bc4b313370b38ef355acdadcd122975b81526020017f12c85ea5db8c6deb4aab71808dcb408fe3d1e7690c43d37b4ce6cc0166fa7daa8152508152508160400181905250604051806040016040528060405180604001604052807f03179f18e9add38a413fe5d67963f45e13513078f81dab5cd8eaeb3e6d5f512e81526020017f06a9f1906418e09b35c374f8e87c2e1bb00dec65160a24b22bc08d9a73e40400815250815260200160405180604001604052807f1d01ed8f097ff600333affec5769b0ed803c179805de9cdf1aa16bc83fcd7ab781526020017f05b144d8430d2fd3713716e998930d410b04d3555712c26feccbdac2cd559e0d8152508152508160600181905250600567ffffffffffffffff811115610c3f57610c3e612037565b5b604051908082528060200260200182016040528015610c7857816020015b610c65611beb565b815260200190600190039081610c5d5790505b50816080018190525060405180604001604052807f1f4ba445cbf433891463eb34658a228cfc139224a18303d72006d4e16968a2e581526020017f2b3550e8cd8eb7b1bafcbfb4e7a914bbffbeb9e5dee527413d4ac53be6733efa8152508160800151600081518110610cee57610ced611ebd565b5b602002602001018190525060405180604001604052807f2d98e1dc7ebea7d6bab829bd81766fe856a49e7d49420a354786102aa9d59f4f81526020017f19b06c99722d87f37c6e2295c6a97d04b045c08a2956df595de95a58c3b761448152508160800151600181518110610d6657610d65611ebd565b5b602002602001018190525060405180604001604052807f180d8c99486e96ea6ecf52f5e08852bc3e8ad4c883e32224aca673d3ef34ee4e81526020017f2ab1c0f5045d94dd3f348719de26492286fae4bef4cfbcd11ffda6b4a02659418152508160800151600281518110610dde57610ddd611ebd565b5b602002602001018190525060405180604001604052807f0a351bfe28d2e5bfee0ba5c331df4a6952f029e067cb219ade05744ae1b531a781526020017f2402bb748a5439a5e1d4232b19085d94c80f195f602fb97ba4419d4e0876afb08152508160800151600381518110610e5657610e55611ebd565b5b602002602001018190525060405180604001604052807f0b3cc3fc5e3447798b849c4eb03522c77ed18456f10b5bb57378855fe60055ee81526020017f2921bdcc7325f2f38396b8ac29f85dc993105843e76c0225482479e56556bcaa8152508160800151600481518110610ece57610ecd611ebd565b5b602002602001018190525090565b610ee4611ba4565b60405180604001604052807f2d4d9aa7e302d9df41749d5507949d05dbea33fbb16c643b22f599a2be6df2e281526020017f14bedd503c37ceb061d8ec60209fe345ce89830a19230301f076caff004d19268152508160000181905250604051806040016040528060405180604001604052807f0967032fcbf776d1afc985f88877f182d38480a653f2decaa9794cbc3bf3060c81526020017f0e187847ad4c798374d0d6732bf501847dd68bc0e071241e0213bc7fc13db7ab815250815260200160405180604001604052807f304cfbd1e08a704a99f5e847d93f8c3caafddec46b7a0d379da69a4d112346a781526020017f1739c1b1a457a8c7313123d24d2f9192f896b7c63eea05a9d57f06547ad0cec88152508152508160200181905250604051806040016040528060405180604001604052807f198e9393920d483a7260bfb731fb5d25f1aa493335a9e71297e485b7aef312c281526020017f1800deef121f1e76426a00665e5c4479674322d4f75edadd46debd5cd992f6ed815250815260200160405180604001604052807f090689d0585ff075ec9e99ad690c3395bc4b313370b38ef355acdadcd122975b81526020017f12c85ea5db8c6deb4aab71808dcb408fe3d1e7690c43d37b4ce6cc0166fa7daa8152508152508160400181905250604051806040016040528060405180604001604052807f12d6e8a737766e6f60ca44e8668bd92d3a149f83f71f37759102688a7a023ca781526020017f1e424e7df6a5f5eeea518273f7f6cf2cf4956705625a9390b538d23bd8e2f5a4815250815260200160405180604001604052807f288de2493371363b1430e70ad1c78c84cabe44a678741277c89e3bee33b6ce7681526020017f13d32a179fbd3bd83f84f0a232e38c3d65e02d0d7c65e8461278d9a1deefb6438152508152508160600181905250600367ffffffffffffffff8111156111ab576111aa612037565b5b6040519080825280602002602001820160405280156111e457816020015b6111d1611beb565b8152602001906001900390816111c95790505b50816080018190525060405180604001604052807f1a89a0ded0f3385a8fc7b7b8a7c8681b5a9f3610e7ff1e982f519fe60045f67a81526020017f15e8dfe8148c111cd380dd55bea709b86989d294097d56d699a29c5a65d7f08a815250816080015160008151811061125a57611259611ebd565b5b602002602001018190525060405180604001604052807f2ef9e0d038f6956cc25a116cc80ccbf434f0745311273adcdf1f90b79b1c282b81526020017f120a3439fcbe29f6a8c21ac6d699403275b0f975f2054b1183f2b91681ff12c181525081608001516001815181106112d2576112d1611ebd565b5b602002602001018190525060405180604001604052807f26cb329ab5c21d41c4046ed3dfa13a046c8d9da444122104cd58f01e7f2e071081526020017f263cba2d47ba222c684257ce2a7feecedb82fbc2d67bc11cc13eb3203646a51f815250816080015160028151811061134a57611349611ebd565b5b602002602001018190525090565b611360611beb565b611368611c05565b83600001518160006003811061138157611380611ebd565b5b6020020181815250508360200151816001600381106113a3576113a2611ebd565b5b60200201818152505082816002600381106113c1576113c0611ebd565b5b602002018181525050600060608360808460076107d05a03fa905080600081146113ea576113ec565bfe5b508061142d576040517f08c379a0000000000000000000000000000000000000000000000000000000008152600401611424906120b2565b60405180910390fd5b505092915050565b61143d611beb565b611445611c27565b83600001518160006004811061145e5761145d611ebd565b5b6020020181815250508360200151816001600481106114805761147f611ebd565b5b6020020181815250508260000151816002600481106114a2576114a1611ebd565b5b6020020181815250508260200151816003600481106114c4576114c3611ebd565b5b602002018181525050600060608360c08460066107d05a03fa905080600081146114ed576114ef565bfe5b5080611530576040517f08c379a00000000000000000000000000000000000000000000000000000000081526004016115279061211e565b60405180910390fd5b505092915050565b611540611beb565b60007f30644e72e131a029b85045b68181585d97816a916871ca8d3c208c16d87cfd4790506000836000015114801561157d575060008360200151145b156115a15760405180604001604052806000815260200160008152509150506115d8565b6040518060400160405280846000015181526020018285602001516115c6919061216d565b836115d1919061219e565b8152509150505b919050565b600080600467ffffffffffffffff8111156115fb576115fa612037565b5b60405190808252806020026020018201604052801561163457816020015b611621611beb565b8152602001906001900390816116195790505b5090506000600467ffffffffffffffff81111561165457611653612037565b5b60405190808252806020026020018201604052801561168d57816020015b61167a611c49565b8152602001906001900390816116725790505b5090508a826000815181106116a5576116a4611ebd565b5b602002602001018190525088826001815181106116c5576116c4611ebd565b5b602002602001018190525086826002815181106116e5576116e4611ebd565b5b6020026020010181905250848260038151811061170557611704611ebd565b5b6020026020010181905250898160008151811061172557611724611ebd565b5b6020026020010181905250878160018151811061174557611744611ebd565b5b6020026020010181905250858160028151811061176557611764611ebd565b5b6020026020010181905250838160038151811061178557611784611ebd565b5b602002602001018190525061179a82826117aa565b9250505098975050505050505050565b600081518351146117f0576040517f08c379a00000000000000000000000000000000000000000000000000000000081526004016117e79061221e565b60405180910390fd5b6000835190506000600682611805919061223e565b905060008167ffffffffffffffff81111561182357611822612037565b5b6040519080825280602002602001820160405280156118515781602001602082028036833780820191505090505b50905060005b83811015611ad65786818151811061187257611871611ebd565b5b60200260200101516000015182600060068461188e919061223e565b6118989190611f98565b815181106118a9576118a8611ebd565b5b6020026020010181815250508681815181106118c8576118c7611ebd565b5b6020026020010151602001518260016006846118e4919061223e565b6118ee9190611f98565b815181106118ff576118fe611ebd565b5b60200260200101818152505085818151811061191e5761191d611ebd565b5b60200260200101516000015160006002811061193d5761193c611ebd565b5b6020020151826002600684611952919061223e565b61195c9190611f98565b8151811061196d5761196c611ebd565b5b60200260200101818152505085818151811061198c5761198b611ebd565b5b6020026020010151600001516001600281106119ab576119aa611ebd565b5b60200201518260036006846119c0919061223e565b6119ca9190611f98565b815181106119db576119da611ebd565b5b6020026020010181815250508581815181106119fa576119f9611ebd565b5b602002602001015160200151600060028110611a1957611a18611ebd565b5b6020020151826004600684611a2e919061223e565b611a389190611f98565b81518110611a4957611a48611ebd565b5b602002602001018181525050858181518110611a6857611a67611ebd565b5b602002602001015160200151600160028110611a8757611a86611ebd565b5b6020020151826005600684611a9c919061223e565b611aa69190611f98565b81518110611ab757611ab6611ebd565b5b6020026020010181815250508080611ace90611fee565b915050611857565b50611adf611c6f565b6000602082602086026020860160086107d05a03fa90508060008114611b0457611b06565bfe5b5080611b47576040517f08c379a0000000000000000000000000000000000000000000000000000000008152600401611b3e906122e4565b60405180910390fd5b600082600060018110611b5d57611b5c611ebd565b5b602002015114159550505050505092915050565b6040518060600160405280611b84611beb565b8152602001611b91611c49565b8152602001611b9e611beb565b81525090565b6040518060a00160405280611bb7611beb565b8152602001611bc4611c49565b8152602001611bd1611c49565b8152602001611bde611c49565b8152602001606081525090565b604051806040016040528060008152602001600081525090565b6040518060600160405280600390602082028036833780820191505090505090565b6040518060800160405280600490602082028036833780820191505090505090565b6040518060400160405280611c5c611c91565b8152602001611c69611c91565b81525090565b6040518060200160405280600190602082028036833780820191505090505090565b6040518060400160405280600290602082028036833780820191505090505090565b600080fd5b600080fd5b600060ff82169050919050565b611cd381611cbd565b8114611cde57600080fd5b50565b600081359050611cf081611cca565b92915050565b600080fd5b600081905082602060020282011115611d1757611d16611cf6565b5b92915050565b600081905082604060020282011115611d3957611d38611cf6565b5b92915050565b600080fd5b600080fd5b60008083601f840112611d5f57611d5e611d3f565b5b8235905067ffffffffffffffff811115611d7c57611d7b611d44565b5b602083019150836020820283011115611d9857611d97611cf6565b5b9250929050565b6000819050919050565b611db281611d9f565b8114611dbd57600080fd5b50565b600081359050611dcf81611da9565b92915050565b6000806000806000806000610160888a031215611df557611df4611cb3565b5b6000611e038a828b01611ce1565b9750506020611e148a828b01611cfb565b9650506060611e258a828b01611d1d565b95505060e0611e368a828b01611cfb565b94505061012088013567ffffffffffffffff811115611e5857611e57611cb8565b5b611e648a828b01611d49565b9350935050610140611e788a828b01611dc0565b91505092959891949750929550565b60008115159050919050565b611e9c81611e87565b82525050565b6000602082019050611eb76000830184611e93565b92915050565b7f4e487b7100000000000000000000000000000000000000000000000000000000600052603260045260246000fd5b600082825260208201905092915050565b7f76657269666965722d6774652d736e61726b2d7363616c61722d6669656c6400600082015250565b6000611f33601f83611eec565b9150611f3e82611efd565b602082019050919050565b60006020820190508181036000830152611f6281611f26565b9050919050565b7f4e487b7100000000000000000000000000000000000000000000000000000000600052601160045260246000fd5b6000611fa382611d9f565b9150611fae83611d9f565b9250827fffffffffffffffffffffffffffffffffffffffffffffffffffffffffffffffff03821115611fe357611fe2611f69565b5b828201905092915050565b6000611ff982611d9f565b91507fffffffffffffffffffffffffffffffffffffffffffffffffffffffffffffffff82141561202c5761202b611f69565b5b600182019050919050565b7f4e487b7100000000000000000000000000000000000000000000000000000000600052604160045260246000fd5b7f70616972696e672d6d756c2d6661696c65640000000000000000000000000000600082015250565b600061209c601283611eec565b91506120a782612066565b602082019050919050565b600060208201905081810360008301526120cb8161208f565b9050919050565b7f70616972696e672d6164642d6661696c65640000000000000000000000000000600082015250565b6000612108601283611eec565b9150612113826120d2565b602082019050919050565b60006020820190508181036000830152612137816120fb565b9050919050565b7f4e487b7100000000000000000000000000000000000000000000000000000000600052601260045260246000fd5b600061217882611d9f565b915061218383611d9f565b9250826121935761219261213e565b5b828206905092915050565b60006121a982611d9f565b91506121b483611d9f565b9250828210156121c7576121c6611f69565b5b828203905092915050565b7f70616972696e672d6c656e677468732d6661696c656400000000000000000000600082015250565b6000612208601683611eec565b9150612213826121d2565b602082019050919050565b60006020820190508181036000830152612237816121fb565b9050919050565b600061224982611d9f565b915061225483611d9f565b9250817fffffffffffffffffffffffffffffffffffffffffffffffffffffffffffffffff048311821515161561228d5761228c611f69565b5b828202905092915050565b7f70616972696e672d6f70636f64652d6661696c65640000000000000000000000600082015250565b60006122ce601583611eec565b91506122d982612298565b602082019050919050565b600060208201905081810360008301526122fd816122c1565b905091905056fea264697066735822122054f4cceb4050abe920064d454a13733ca3080a6cdcebcfca29538ae1709fc76664736f6c63430008090033",
  "linkReferences": {},
  "deployedLinkReferences": {}
}