{
  "_format": "hh-sol-artifact-1",
  "contractName": "TestCreator",
  "sourceName": "contracts/TestCreator.sol",
  "abi": [
    {
      "inputs": [],
      "stateMutability": "nonpayable",
      "type": "constructor"
    },
    {
      "inputs": [],
      "name": "ExistingCredentialHasBetterResult",
      "type": "error"
    },
    {
      "inputs": [],
      "name": "GradeBelowMinimum",
      "type": "error"
    },
    {
      "inputs": [],
      "name": "InvalidMinimumGrade",
      "type": "error"
    },
    {
      "inputs": [],
      "name": "InvalidNumberOfQuestions",
      "type": "error"
    },
    {
      "inputs": [],
      "name": "InvalidTestType",
      "type": "error"
    },
    {
      "inputs": [],
      "name": "InvalidatingTestThatIsNotOwn",
      "type": "error"
    },
    {
      "inputs": [],
      "name": "MaximumNumberOfCredentialsReached",
      "type": "error"
    },
    {
      "inputs": [],
      "name": "RecipientDoesNotOwnRequiredToken",
      "type": "error"
    },
    {
      "inputs": [],
      "name": "SolvingForAnotherTest",
      "type": "error"
    },
    {
      "inputs": [],
      "name": "TestAlreadyVerified",
      "type": "error"
    },
    {
      "inputs": [],
      "name": "TestCannotBeSolvedByOwner",
      "type": "error"
    },
    {
      "inputs": [],
      "name": "TestDoesNotExist",
      "type": "error"
    },
    {
      "inputs": [],
      "name": "TestDoesNotHaveMultipleChoiceComponent",
      "type": "error"
    },
    {
      "inputs": [],
      "name": "TestDoesNotHaveOpenAnswerComponent",
      "type": "error"
    },
    {
      "inputs": [],
      "name": "TestWasInvalidated",
      "type": "error"
    },
    {
      "inputs": [],
      "name": "TestWasNotVerified",
      "type": "error"
    },
    {
      "inputs": [],
      "name": "TimeLimitInThePast",
      "type": "error"
    },
    {
      "inputs": [],
      "name": "TimeLimitReached",
      "type": "error"
    },
    {
      "inputs": [],
      "name": "VerifyingTestThatIsNotOwn",
      "type": "error"
    },
    {
      "anonymous": false,
      "inputs": [
        {
          "indexed": true,
          "internalType": "address",
          "name": "owner",
          "type": "address"
        },
        {
          "indexed": true,
          "internalType": "address",
          "name": "approved",
          "type": "address"
        },
        {
          "indexed": true,
          "internalType": "uint256",
          "name": "tokenId",
          "type": "uint256"
        }
      ],
      "name": "Approval",
      "type": "event"
    },
    {
      "anonymous": false,
      "inputs": [
        {
          "indexed": true,
          "internalType": "address",
          "name": "owner",
          "type": "address"
        },
        {
          "indexed": true,
          "internalType": "address",
          "name": "operator",
          "type": "address"
        },
        {
          "indexed": false,
          "internalType": "bool",
          "name": "approved",
          "type": "bool"
        }
      ],
      "name": "ApprovalForAll",
      "type": "event"
    },
    {
      "anonymous": false,
      "inputs": [
        {
          "indexed": true,
          "internalType": "address",
          "name": "from",
          "type": "address"
        },
        {
          "indexed": true,
          "internalType": "address",
          "name": "to",
          "type": "address"
        },
        {
          "indexed": true,
          "internalType": "uint256",
          "name": "tokenId",
          "type": "uint256"
        }
      ],
      "name": "Transfer",
      "type": "event"
    },
    {
      "inputs": [
        {
          "internalType": "address",
          "name": "",
          "type": "address"
        },
        {
          "internalType": "uint256",
          "name": "",
          "type": "uint256"
        }
      ],
      "name": "approve",
      "outputs": [],
      "stateMutability": "view",
      "type": "function"
    },
    {
      "inputs": [
        {
          "internalType": "address",
          "name": "owner",
          "type": "address"
        }
      ],
      "name": "balanceOf",
      "outputs": [
        {
          "internalType": "uint256",
          "name": "",
          "type": "uint256"
        }
      ],
      "stateMutability": "view",
      "type": "function"
    },
    {
      "inputs": [
        {
          "internalType": "uint8",
          "name": "_testType",
          "type": "uint8"
        },
        {
          "internalType": "uint8",
          "name": "_nQuestions",
          "type": "uint8"
        },
        {
          "internalType": "uint8",
          "name": "_minimumGrade",
          "type": "uint8"
        },
        {
          "internalType": "uint24",
          "name": "_credentialLimit",
          "type": "uint24"
        },
        {
          "internalType": "uint32",
          "name": "_timeLimit",
          "type": "uint32"
        },
        {
          "internalType": "uint256[]",
          "name": "_solvingHashes",
          "type": "uint256[]"
        },
        {
          "internalType": "address",
          "name": "_requiredPass",
          "type": "address"
        },
        {
          "internalType": "string",
          "name": "_credentialsGained",
          "type": "string"
        },
        {
          "internalType": "string",
          "name": "_testURI",
          "type": "string"
        }
      ],
      "name": "createTest",
      "outputs": [],
      "stateMutability": "nonpayable",
      "type": "function"
    },
    {
      "inputs": [],
      "name": "credentialsContract",
      "outputs": [
        {
          "internalType": "contract Credentials",
          "name": "",
          "type": "address"
        }
      ],
      "stateMutability": "view",
      "type": "function"
    },
    {
      "inputs": [
        {
          "internalType": "uint256",
          "name": "",
          "type": "uint256"
        }
      ],
      "name": "getApproved",
      "outputs": [
        {
          "internalType": "address",
          "name": "",
          "type": "address"
        }
      ],
      "stateMutability": "view",
      "type": "function"
    },
    {
      "inputs": [
        {
          "internalType": "uint256",
          "name": "testId",
          "type": "uint256"
        }
      ],
      "name": "getMultipleChoiceRoot",
      "outputs": [
        {
          "internalType": "uint256",
          "name": "",
          "type": "uint256"
        }
      ],
      "stateMutability": "view",
      "type": "function"
    },
    {
      "inputs": [
        {
          "internalType": "uint256",
          "name": "testId",
          "type": "uint256"
        }
      ],
      "name": "getOpenAnswersHashes",
      "outputs": [
        {
          "internalType": "uint256[]",
          "name": "",
          "type": "uint256[]"
        }
      ],
      "stateMutability": "view",
      "type": "function"
    },
    {
      "inputs": [
        {
          "internalType": "uint256",
          "name": "testId",
          "type": "uint256"
        }
      ],
      "name": "getOpenAnswersRoot",
      "outputs": [
        {
          "internalType": "uint256",
          "name": "",
          "type": "uint256"
        }
      ],
      "stateMutability": "view",
      "type": "function"
    },
    {
      "inputs": [
        {
          "internalType": "uint256",
          "name": "testId",
          "type": "uint256"
        }
      ],
      "name": "getTest",
      "outputs": [
        {
          "components": [
            {
              "internalType": "uint8",
              "name": "testType",
              "type": "uint8"
            },
            {
              "internalType": "uint8",
              "name": "nQuestions",
              "type": "uint8"
            },
            {
              "internalType": "uint8",
              "name": "minimumGrade",
              "type": "uint8"
            },
            {
              "internalType": "uint24",
              "name": "solvers",
              "type": "uint24"
            },
            {
              "internalType": "uint24",
              "name": "credentialLimit",
              "type": "uint24"
            },
            {
              "internalType": "uint32",
              "name": "timeLimit",
              "type": "uint32"
            },
            {
              "internalType": "address",
              "name": "requiredPass",
              "type": "address"
            },
            {
              "internalType": "string",
              "name": "credentialsGained",
              "type": "string"
            }
          ],
          "internalType": "struct TestCreator.Test",
          "name": "",
          "type": "tuple"
        }
      ],
      "stateMutability": "view",
      "type": "function"
    },
    {
      "inputs": [
        {
          "internalType": "uint256",
          "name": "testId",
          "type": "uint256"
        }
      ],
      "name": "invalidateTest",
      "outputs": [],
      "stateMutability": "nonpayable",
      "type": "function"
    },
    {
      "inputs": [
        {
          "internalType": "address",
          "name": "",
          "type": "address"
        },
        {
          "internalType": "address",
          "name": "",
          "type": "address"
        }
      ],
      "name": "isApprovedForAll",
      "outputs": [
        {
          "internalType": "bool",
          "name": "",
          "type": "bool"
        }
      ],
      "stateMutability": "view",
      "type": "function"
    },
    {
      "inputs": [],
      "name": "name",
      "outputs": [
        {
          "internalType": "string",
          "name": "",
          "type": "string"
        }
      ],
      "stateMutability": "view",
      "type": "function"
    },
    {
      "inputs": [
        {
          "internalType": "uint256",
          "name": "testId",
          "type": "uint256"
        }
      ],
      "name": "ownerOf",
      "outputs": [
        {
          "internalType": "address",
          "name": "",
          "type": "address"
        }
      ],
      "stateMutability": "view",
      "type": "function"
    },
    {
      "inputs": [
        {
          "internalType": "address",
          "name": "from",
          "type": "address"
        },
        {
          "internalType": "address",
          "name": "to",
          "type": "address"
        },
        {
          "internalType": "uint256",
          "name": "testId",
          "type": "uint256"
        }
      ],
      "name": "safeTransferFrom",
      "outputs": [],
      "stateMutability": "nonpayable",
      "type": "function"
    },
    {
      "inputs": [
        {
          "internalType": "address",
          "name": "",
          "type": "address"
        },
        {
          "internalType": "address",
          "name": "",
          "type": "address"
        },
        {
          "internalType": "uint256",
          "name": "",
          "type": "uint256"
        },
        {
          "internalType": "bytes",
          "name": "",
          "type": "bytes"
        }
      ],
      "name": "safeTransferFrom",
      "outputs": [],
      "stateMutability": "view",
      "type": "function"
    },
    {
      "inputs": [
        {
          "internalType": "address",
          "name": "",
          "type": "address"
        },
        {
          "internalType": "bool",
          "name": "",
          "type": "bool"
        }
      ],
      "name": "setApprovalForAll",
      "outputs": [],
      "stateMutability": "view",
      "type": "function"
    },
    {
      "inputs": [
        {
          "internalType": "uint256",
          "name": "testId",
          "type": "uint256"
        },
        {
          "internalType": "address",
          "name": "recipient",
          "type": "address"
        },
        {
          "internalType": "uint256[2]",
          "name": "a",
          "type": "uint256[2]"
        },
        {
          "internalType": "uint256[2][2]",
          "name": "b",
          "type": "uint256[2][2]"
        },
        {
          "internalType": "uint256[2]",
          "name": "c",
          "type": "uint256[2]"
        },
        {
          "internalType": "uint256[]",
          "name": "input",
          "type": "uint256[]"
        }
      ],
      "name": "solveTest",
      "outputs": [],
      "stateMutability": "nonpayable",
      "type": "function"
    },
    {
      "inputs": [
        {
          "internalType": "bytes4",
          "name": "interfaceId",
          "type": "bytes4"
        }
      ],
      "name": "supportsInterface",
      "outputs": [
        {
          "internalType": "bool",
          "name": "",
          "type": "bool"
        }
      ],
      "stateMutability": "view",
      "type": "function"
    },
    {
      "inputs": [],
      "name": "symbol",
      "outputs": [
        {
          "internalType": "string",
          "name": "",
          "type": "string"
        }
      ],
      "stateMutability": "view",
      "type": "function"
    },
    {
      "inputs": [
        {
          "internalType": "uint256",
          "name": "testId",
          "type": "uint256"
        }
      ],
      "name": "testExists",
      "outputs": [
        {
          "internalType": "bool",
          "name": "",
          "type": "bool"
        }
      ],
      "stateMutability": "view",
      "type": "function"
    },
    {
      "inputs": [
        {
          "internalType": "uint256",
          "name": "testId",
          "type": "uint256"
        }
      ],
      "name": "testIsValid",
      "outputs": [
        {
          "internalType": "bool",
          "name": "",
          "type": "bool"
        }
      ],
      "stateMutability": "view",
      "type": "function"
    },
    {
      "inputs": [
        {
          "internalType": "uint256",
          "name": "index",
          "type": "uint256"
        }
      ],
      "name": "tokenByIndex",
      "outputs": [
        {
          "internalType": "uint256",
          "name": "",
          "type": "uint256"
        }
      ],
      "stateMutability": "view",
      "type": "function"
    },
    {
      "inputs": [
        {
          "internalType": "address",
          "name": "_owner",
          "type": "address"
        },
        {
          "internalType": "uint256",
          "name": "index",
          "type": "uint256"
        }
      ],
      "name": "tokenOfOwnerByIndex",
      "outputs": [
        {
          "internalType": "uint256",
          "name": "",
          "type": "uint256"
        }
      ],
      "stateMutability": "view",
      "type": "function"
    },
    {
      "inputs": [
        {
          "internalType": "uint256",
          "name": "testId",
          "type": "uint256"
        }
      ],
      "name": "tokenURI",
      "outputs": [
        {
          "internalType": "string",
          "name": "",
          "type": "string"
        }
      ],
      "stateMutability": "view",
      "type": "function"
    },
    {
      "inputs": [],
      "name": "totalSupply",
      "outputs": [
        {
          "internalType": "uint256",
          "name": "count",
          "type": "uint256"
        }
      ],
      "stateMutability": "view",
      "type": "function"
    },
    {
      "inputs": [
        {
          "internalType": "address",
          "name": "",
          "type": "address"
        },
        {
          "internalType": "address",
          "name": "",
          "type": "address"
        },
        {
          "internalType": "uint256",
          "name": "",
          "type": "uint256"
        }
      ],
      "name": "transferFrom",
      "outputs": [],
      "stateMutability": "view",
      "type": "function"
    },
    {
      "inputs": [],
      "name": "verifierContract",
      "outputs": [
        {
          "internalType": "contract TestVerifier",
          "name": "",
          "type": "address"
        }
      ],
      "stateMutability": "view",
      "type": "function"
    },
    {
      "inputs": [
        {
          "internalType": "uint256",
          "name": "testId",
          "type": "uint256"
        },
        {
          "internalType": "uint256[]",
          "name": "answerHashes",
          "type": "uint256[]"
        }
      ],
      "name": "verifyTestAnswers",
      "outputs": [],
      "stateMutability": "nonpayable",
      "type": "function"
    }
  ],
  "bytecode": "0x60806040526040518060400160405280601581526020017f426c6f636b205175616c696669656420546573747300000000000000000000008152506002908051906020019062000051929190620002b3565b506040518060400160405280600381526020017f4251540000000000000000000000000000000000000000000000000000000000815250600390805190602001906200009f929190620002b3565b50348015620000ad57600080fd5b5060018081905550604051620000c39062000344565b604051809103906000f080158015620000e0573d6000803e3d6000fd5b50600560006101000a81548173ffffffffffffffffffffffffffffffffffffffff021916908373ffffffffffffffffffffffffffffffffffffffff1602179055506040516200012f9062000352565b604051809103906000f0801580156200014c573d6000803e3d6000fd5b50600460006101000a81548173ffffffffffffffffffffffffffffffffffffffff021916908373ffffffffffffffffffffffffffffffffffffffff160217905550620001a56380ac58cd60e01b620001db60201b60201c565b620001bd635b5e139f60e01b620001db60201b60201c565b620001d563780e9d6360e01b620001db60201b60201c565b62000467565b63ffffffff60e01b817bffffffffffffffffffffffffffffffffffffffffffffffffffffffff1916141562000247576040517f08c379a00000000000000000000000000000000000000000000000000000000081526004016200023e90620003e0565b60405180910390fd5b6001600080837bffffffffffffffffffffffffffffffffffffffffffffffffffffffff19167bffffffffffffffffffffffffffffffffffffffffffffffffffffffff1916815260200190815260200160002060006101000a81548160ff02191690831515021790555050565b828054620002c19062000431565b90600052602060002090601f016020900481019282620002e5576000855562000331565b82601f106200030057805160ff191683800117855562000331565b8280016001018555821562000331579182015b828111156200033057825182559160200191906001019062000313565b5b50905062000340919062000360565b5090565b612c76806200483283390190565b61237e80620074a883390190565b5b808211156200037b57600081600090555060010162000361565b5090565b600082825260208201905092915050565b7f4552433136353a20696e76616c696420696e7465726661636520696400000000600082015250565b6000620003c8601c836200037f565b9150620003d58262000390565b602082019050919050565b60006020820190508181036000830152620003fb81620003b9565b9050919050565b7f4e487b7100000000000000000000000000000000000000000000000000000000600052602260045260246000fd5b600060028204905060018216806200044a57607f821691505b6020821081141562000461576200046062000402565b5b50919050565b6143bb80620004776000396000f3fe608060405234801561001057600080fd5b50600436106101c45760003560e01c806395d89b41116100f9578063ce421e4911610097578063d7887f7311610071578063d7887f731461053b578063d8b052501461056b578063e985e9c51461059b578063edef019d146105cb576101c4565b8063ce421e49146104e3578063cf69568814610501578063d591da201461051f576101c4565b8063b88d4fde116100d3578063b88d4fde1461044b578063c87b56dd14610467578063c8ac410014610497578063ca48621c146104b3576101c4565b806395d89b41146103f5578063a22cb46514610413578063a9998a731461042f576101c4565b8063391f3c79116101665780634f6ccce7116101405780634f6ccce7146103495780636352211e1461037957806370a08231146103a95780638845d284146103d9576101c4565b8063391f3c79146102cd57806342842e0e146102fd5780634980466914610319576101c4565b8063095ea7b3116101a2578063095ea7b31461024757806318160ddd1461026357806323b872dd146102815780632f745c591461029d576101c4565b806301ffc9a7146101c957806306fdde03146101f9578063081812fc14610217575b600080fd5b6101e360048036038101906101de9190612e01565b6105fb565b6040516101f09190612e49565b60405180910390f35b610201610672565b60405161020e9190612efd565b60405180910390f35b610231600480360381019061022c9190612f55565b610704565b60405161023e9190612fc3565b60405180910390f35b610261600480360381019061025c919061300a565b61070b565b005b61026b610746565b6040516102789190613059565b60405180910390f35b61029b60048036038101906102969190613074565b610757565b005b6102b760048036038101906102b2919061300a565b610792565b6040516102c49190613059565b60405180910390f35b6102e760048036038101906102e29190612f55565b610837565b6040516102f49190613059565b60405180910390f35b61031760048036038101906103129190613074565b610925565b005b610333600480360381019061032e9190612f55565b610945565b6040516103409190613059565b60405180910390f35b610363600480360381019061035e9190612f55565b610a02565b6040516103709190613059565b60405180910390f35b610393600480360381019061038e9190612f55565b610a6f565b6040516103a09190612fc3565b60405180910390f35b6103c360048036038101906103be91906130c7565b610ac3565b6040516103d09190613059565b60405180910390f35b6103f360048036038101906103ee9190613339565b610b82565b005b6103fd6111c2565b60405161040a9190612efd565b60405180910390f35b61042d60048036038101906104289190613488565b611254565b005b61044960048036038101906104449190612f55565b61128f565b005b61046560048036038101906104609190613569565b6113df565b005b610481600480360381019061047c9190612f55565b61141a565b60405161048e9190612efd565b60405180910390f35b6104b160048036038101906104ac91906136af565b611507565b005b6104cd60048036038101906104c89190612f55565b6116f1565b6040516104da9190612e49565b60405180910390f35b6104eb61176d565b6040516104f8919061376a565b60405180910390f35b610509611793565b60405161051691906137a6565b60405180910390f35b61053960048036038101906105349190613805565b6117b9565b005b61055560048036038101906105509190612f55565b612471565b6040516105629190613975565b60405180910390f35b61058560048036038101906105809190612f55565b6125cd565b6040516105929190612e49565b60405180910390f35b6105b560048036038101906105b09190613997565b6125df565b6040516105c29190612e49565b60405180910390f35b6105e560048036038101906105e09190612f55565b6125e7565b6040516105f29190613b0d565b60405180910390f35b6000610606826127ff565b8061066b5750600080837bffffffffffffffffffffffffffffffffffffffffffffffffffffffff19167bffffffffffffffffffffffffffffffffffffffffffffffffffffffff1916815260200190815260200160002060009054906101000a900460ff165b9050919050565b60606002805461068190613b5e565b80601f01602080910402602001604051908101604052809291908181526020018280546106ad90613b5e565b80156106fa5780601f106106cf576101008083540402835291602001916106fa565b820191906000526020600020905b8154815290600101906020018083116106dd57829003601f168201915b5050505050905090565b6000919050565b6040517f08c379a000000000000000000000000000000000000000000000000000000000815260040161073d90613bdc565b60405180910390fd5b60006107526007612869565b905090565b6040517f08c379a000000000000000000000000000000000000000000000000000000000815260040161078990613c48565b60405180910390fd5b600061079d83610ac3565b82106107de576040517f08c379a00000000000000000000000000000000000000000000000000000000081526004016107d590613cb4565b60405180910390fd5b61082f82600660008673ffffffffffffffffffffffffffffffffffffffff1673ffffffffffffffffffffffffffffffffffffffff16815260200190815260200160002061287e90919063ffffffff16565b905092915050565b600061084282612898565b610878576040517fae8c6c4400000000000000000000000000000000000000000000000000000000815260040160405180910390fd5b6000600b600084815260200190815260200160002060000160009054906101000a900460ff1660ff1614806108d357506064600b600084815260200190815260200160002060000160009054906101000a900460ff1660ff16115b1561090a576040517fdf3cc45800000000000000000000000000000000000000000000000000000000815260040160405180910390fd5b600c6000838152602001908152602001600020549050919050565b610940838383604051806020016040528060008152506113df565b505050565b600061095082612898565b610986576040517fae8c6c4400000000000000000000000000000000000000000000000000000000815260040160405180910390fd5b6064600b600084815260200190815260200160002060000160009054906101000a900460ff1660ff1614156109e7576040517f6eaa9a7500000000000000000000000000000000000000000000000000000000815260040160405180910390fd5b600d6000838152602001908152602001600020549050919050565b6000610a0c610746565b8210610a4d576040517f08c379a0000000000000000000000000000000000000000000000000000000008152600401610a4490613cb4565b60405180910390fd5b6000610a638360076128b590919063ffffffff16565b50905080915050919050565b6000610abc826040518060400160405280601381526020017f5465737420646f6573206e6f742065786973740000000000000000000000000081525060076128e19092919063ffffffff16565b9050919050565b60008073ffffffffffffffffffffffffffffffffffffffff168273ffffffffffffffffffffffffffffffffffffffff161415610b34576040517f08c379a0000000000000000000000000000000000000000000000000000000008152600401610b2b90613d46565b60405180910390fd5b610b7b600660008473ffffffffffffffffffffffffffffffffffffffff1673ffffffffffffffffffffffffffffffffffffffff168152602001908152602001600020612900565b9050919050565b600a6000815480929190610b9590613d95565b91905055506000600a54905060008763ffffffff1614158015610bbe5750428763ffffffff1611155b15610bf5576040517f92d0679800000000000000000000000000000000000000000000000000000000815260040160405180910390fd5b600073ffffffffffffffffffffffffffffffffffffffff168473ffffffffffffffffffffffffffffffffffffffff1614610cc05760008473ffffffffffffffffffffffffffffffffffffffff166370a08231336040518263ffffffff1660e01b8152600401610c649190612fc3565b60206040518083038186803b158015610c7c57600080fd5b505afa158015610c90573d6000803e3d6000fd5b505050506040513d601f19601f82011682018060405250810190610cb49190613df3565b1015610cbf57600080fd5b5b60008a60ff161480610cd5575060408a60ff16115b15610d0c576040517f38eabbe000000000000000000000000000000000000000000000000000000000815260040160405180910390fd5b60008960ff161480610d21575060648960ff16115b15610d58576040517f4148137e00000000000000000000000000000000000000000000000000000000815260040160405180910390fd5b60008b60ff161415610d9b5785856000818110610d7857610d77613e20565b5b90506020020135600d600083815260200190815260200160002081905550610f10565b60008b60ff16118015610db1575060648b60ff16105b15610e1f5785856000818110610dca57610dc9613e20565b5b90506020020135600c60008381526020019081526020016000208190555085856001818110610dfc57610dfb613e20565b5b90506020020135600d600083815260200190815260200160002081905550610f0f565b60648b60ff161415610edc5760648960ff1614610e68576040517f4148137e00000000000000000000000000000000000000000000000000000000815260040160405180910390fd5b60018a60ff1614610ea5576040517f38eabbe000000000000000000000000000000000000000000000000000000000815260040160405180910390fd5b85856000818110610eb957610eb8613e20565b5b90506020020135600c600083815260200190815260200160002081905550610f0e565b6040517f80dc477300000000000000000000000000000000000000000000000000000000815260040160405180910390fd5b5b5b81600f60008381526020019081526020016000209080519060200190610f37929190612c31565b506040518061010001604052808c60ff1681526020018b60ff1681526020018a60ff168152602001600062ffffff1681526020018962ffffff1681526020018863ffffffff1681526020018573ffffffffffffffffffffffffffffffffffffffff16815260200184815250600b600083815260200190815260200160002060008201518160000160006101000a81548160ff021916908360ff16021790555060208201518160000160016101000a81548160ff021916908360ff16021790555060408201518160000160026101000a81548160ff021916908360ff16021790555060608201518160000160036101000a81548162ffffff021916908362ffffff16021790555060808201518160000160066101000a81548162ffffff021916908362ffffff16021790555060a08201518160000160096101000a81548163ffffffff021916908363ffffffff16021790555060c08201518160010160006101000a81548173ffffffffffffffffffffffffffffffffffffffff021916908373ffffffffffffffffffffffffffffffffffffffff16021790555060e08201518160020190805190602001906110ec929190612c31565b5090505061114181600660003373ffffffffffffffffffffffffffffffffffffffff1673ffffffffffffffffffffffffffffffffffffffff16815260200190815260200160002061291590919063ffffffff16565b506111588133600761292f9092919063ffffffff16565b50803373ffffffffffffffffffffffffffffffffffffffff16600073ffffffffffffffffffffffffffffffffffffffff167fddf252ad1be2c89b69c2b068fc378daa952ba7f163c4a11628f55a4df523b3ef60405160405180910390a45050505050505050505050565b6060600380546111d190613b5e565b80601f01602080910402602001604051908101604052809291908181526020018280546111fd90613b5e565b801561124a5780601f1061121f5761010080835404028352916020019161124a565b820191906000526020600020905b81548152906001019060200180831161122d57829003601f168201915b5050505050905090565b6040517f08c379a000000000000000000000000000000000000000000000000000000000815260040161128690613bdc565b60405180910390fd5b611297612964565b6112a081612898565b6112d6576040517fae8c6c4400000000000000000000000000000000000000000000000000000000815260040160405180910390fd5b60ff600b600083815260200190815260200160002060000160009054906101000a900460ff1660ff161415611337576040517f36fd562600000000000000000000000000000000000000000000000000000000815260040160405180910390fd5b3373ffffffffffffffffffffffffffffffffffffffff1661135782610a6f565b73ffffffffffffffffffffffffffffffffffffffff16146113a4576040517f1962aa1800000000000000000000000000000000000000000000000000000000815260040160405180910390fd5b60ff600b600083815260200190815260200160002060000160006101000a81548160ff021916908360ff1602179055506113dc6129b4565b50565b6040517f08c379a000000000000000000000000000000000000000000000000000000000815260040161141190613c48565b60405180910390fd5b606061142582612898565b611464576040517f08c379a000000000000000000000000000000000000000000000000000000000815260040161145b90613e9b565b60405180910390fd5b600f6000838152602001908152602001600020805461148290613b5e565b80601f01602080910402602001604051908101604052809291908181526020018280546114ae90613b5e565b80156114fb5780601f106114d0576101008083540402835291602001916114fb565b820191906000526020600020905b8154815290600101906020018083116114de57829003601f168201915b50505050509050919050565b61151082612898565b611546576040517fae8c6c4400000000000000000000000000000000000000000000000000000000815260040160405180910390fd5b6064600b600084815260200190815260200160002060000160009054906101000a900460ff1660ff1614156115a7576040517f6eaa9a7500000000000000000000000000000000000000000000000000000000815260040160405180910390fd5b6000600e60008481526020019081526020016000208054905011156115f8576040517f5b537f3200000000000000000000000000000000000000000000000000000000815260040160405180910390fd5b3373ffffffffffffffffffffffffffffffffffffffff1661161883610a6f565b73ffffffffffffffffffffffffffffffffffffffff1614611665576040517fffbccbf700000000000000000000000000000000000000000000000000000000815260040160405180910390fd5b600b600083815260200190815260200160002060000160019054906101000a900460ff1660ff168151146116c5576040517f38eabbe000000000000000000000000000000000000000000000000000000000815260040160405180910390fd5b80600e600084815260200190815260200160002090805190602001906116ec929190612cb7565b505050565b60006116fc82612898565b61173b576040517f08c379a000000000000000000000000000000000000000000000000000000000815260040161173290613e9b565b60405180910390fd5b60ff600b600084815260200190815260200160002060000160009054906101000a900460ff1660ff1614159050919050565b600560009054906101000a900473ffffffffffffffffffffffffffffffffffffffff1681565b600460009054906101000a900473ffffffffffffffffffffffffffffffffffffffff1681565b6117c1612964565b6117ca87610a6f565b73ffffffffffffffffffffffffffffffffffffffff168673ffffffffffffffffffffffffffffffffffffffff16141561182f576040517fed40d42000000000000000000000000000000000000000000000000000000000815260040160405180910390fd5b6000600b600089815260200190815260200160002060000160069054906101000a900462ffffff1662ffffff16141580156118bd5750600b600088815260200190815260200160002060000160069054906101000a900462ffffff1662ffffff16600b600089815260200190815260200160002060000160039054906101000a900462ffffff1662ffffff16145b156118f4576040517f7c8aa3a500000000000000000000000000000000000000000000000000000000815260040160405180910390fd5b6000600b600089815260200190815260200160002060000160099054906101000a900463ffffffff1663ffffffff161415801561195d5750600b600088815260200190815260200160002060000160099054906101000a900463ffffffff1663ffffffff164210155b15611994576040517f5cde67a100000000000000000000000000000000000000000000000000000000815260040160405180910390fd5b600073ffffffffffffffffffffffffffffffffffffffff16600b600089815260200190815260200160002060010160009054906101000a900473ffffffffffffffffffffffffffffffffffffffff1673ffffffffffffffffffffffffffffffffffffffff1614158015611ac557506000600b600089815260200190815260200160002060010160009054906101000a900473ffffffffffffffffffffffffffffffffffffffff1673ffffffffffffffffffffffffffffffffffffffff166370a08231886040518263ffffffff1660e01b8152600401611a739190612fc3565b60206040518083038186803b158015611a8b57600080fd5b505afa158015611a9f573d6000803e3d6000fd5b505050506040513d601f19601f82011682018060405250810190611ac39190613df3565b145b15611afc576040517fe0b0f4d900000000000000000000000000000000000000000000000000000000815260040160405180910390fd5b60008673ffffffffffffffffffffffffffffffffffffffff169050600460009054906101000a900473ffffffffffffffffffffffffffffffffffffffff1673ffffffffffffffffffffffffffffffffffffffff1663796bbf51600b60008b815260200190815260200160002060000160009054906101000a900460ff168888888888886040518863ffffffff1660e01b8152600401611ba19796959493929190613ffa565b60206040518083038186803b158015611bb957600080fd5b505afa158015611bcd573d6000803e3d6000fd5b505050506040513d601f19601f82011682018060405250810190611bf1919061407c565b611c30576040517f08c379a0000000000000000000000000000000000000000000000000000000008152600401611c27906140f5565b60405180910390fd5b600080600b60008b815260200190815260200160002060000160009054906101000a900460ff1660ff161415611e1d57600d60008a81526020019081526020016000205484846001818110611c8857611c87613e20565b5b9050602002013514611cc6576040517fc5805c3200000000000000000000000000000000000000000000000000000000815260040160405180910390fd5b6040600b60008b815260200190815260200160002060000160019054906101000a900460ff1660ff1685856000818110611d0357611d02613e20565b5b90506020020135611d149190614115565b11611d20576000611db6565b600b60008a815260200190815260200160002060000160019054906101000a900460ff1660ff166040600b60008c815260200190815260200160002060000160019054906101000a900460ff1660ff1686866000818110611d8457611d83613e20565b5b90506020020135611d959190614115565b611d9f919061416b565b6064611dab919061419f565b611db59190614228565b5b9050600b60008a815260200190815260200160002060000160029054906101000a900460ff1660ff16811015611e18576040517feafb140600000000000000000000000000000000000000000000000000000000815260040160405180910390fd5b6121db565b6000600b60008b815260200190815260200160002060000160009054906101000a900460ff1660ff16118015611e7957506064600b60008b815260200190815260200160002060000160009054906101000a900460ff1660ff16105b156120d957600d60008a81526020019081526020016000205484846002818110611ea657611ea5613e20565b5b9050602002013514611ee4576040517fc5805c3200000000000000000000000000000000000000000000000000000000815260040160405180910390fd5b6040600b60008b815260200190815260200160002060000160019054906101000a900460ff1660ff1685856001818110611f2157611f20613e20565b5b90506020020135611f329190614115565b11611f3e576000612005565b600b60008a815260200190815260200160002060000160019054906101000a900460ff1660ff16600b60008b815260200190815260200160002060000160009054906101000a900460ff166064611f959190614259565b60ff166040600b60008d815260200190815260200160002060000160019054906101000a900460ff1660ff1687876001818110611fd557611fd4613e20565b5b90506020020135611fe69190614115565b611ff0919061416b565b611ffa919061419f565b6120049190614228565b5b600c60008b8152602001908152602001600020548585600081811061202d5761202c613e20565b5b9050602002013514612040576000612065565b600b60008b815260200190815260200160002060000160009054906101000a900460ff165b60ff166120729190614115565b9050600b60008a815260200190815260200160002060000160029054906101000a900460ff1660ff168110156120d4576040517feafb140600000000000000000000000000000000000000000000000000000000815260040160405180910390fd5b6121da565b6064600b60008b815260200190815260200160002060000160009054906101000a900460ff1660ff16141561217757600c60008a815260200190815260200160002054848460008181106121305761212f613e20565b5b905060200201351461216e576040517fc5805c3200000000000000000000000000000000000000000000000000000000815260040160405180910390fd5b606490506121d9565b60ff600b60008b815260200190815260200160002060000160009054906101000a900460ff1660ff1614156121d8576040517f36fd562600000000000000000000000000000000000000000000000000000000815260040160405180910390fd5b5b5b5b6000600560009054906101000a900473ffffffffffffffffffffffffffffffffffffffff1673ffffffffffffffffffffffffffffffffffffffff166329edae3a8a8c6040518363ffffffff1660e01b815260040161223a92919061428d565b60206040518083038186803b15801561225257600080fd5b505afa158015612266573d6000803e3d6000fd5b505050506040513d601f19601f8201168201806040525081019061228a9190613df3565b14156122e757600b60008a8152602001908152602001600020600001600381819054906101000a900462ffffff16809291906122c5906142b6565b91906101000a81548162ffffff021916908362ffffff160217905550506123cd565b600560009054906101000a900473ffffffffffffffffffffffffffffffffffffffff1673ffffffffffffffffffffffffffffffffffffffff166329edae3a898b6040518363ffffffff1660e01b815260040161234492919061428d565b60206040518083038186803b15801561235c57600080fd5b505afa158015612370573d6000803e3d6000fd5b505050506040513d601f19601f820116820180604052508101906123949190613df3565b81116123cc576040517fd5da5c4500000000000000000000000000000000000000000000000000000000815260040160405180910390fd5b5b600560009054906101000a900473ffffffffffffffffffffffffffffffffffffffff1673ffffffffffffffffffffffffffffffffffffffff166332cbe31c898b846040518463ffffffff1660e01b815260040161242c939291906142e2565b600060405180830381600087803b15801561244657600080fd5b505af115801561245a573d6000803e3d6000fd5b5050505050506124686129b4565b50505050505050565b606061247c82612898565b6124b2576040517fae8c6c4400000000000000000000000000000000000000000000000000000000815260040160405180910390fd5b6064600b600084815260200190815260200160002060000160009054906101000a900460ff1660ff161415612513576040517f6eaa9a7500000000000000000000000000000000000000000000000000000000815260040160405180910390fd5b6000600e6000848152602001908152602001600020805490501415612564576040517f8429974800000000000000000000000000000000000000000000000000000000815260040160405180910390fd5b600e60008381526020019081526020016000208054806020026020016040519081016040528092919081815260200182805480156125c157602002820191906000526020600020905b8154815260200190600101908083116125ad575b50505050509050919050565b60006125d882612898565b9050919050565b600092915050565b6125ef612d04565b6125f882612898565b61262e576040517fae8c6c4400000000000000000000000000000000000000000000000000000000815260040160405180910390fd5b600b6000838152602001908152602001600020604051806101000160405290816000820160009054906101000a900460ff1660ff1660ff1681526020016000820160019054906101000a900460ff1660ff1660ff1681526020016000820160029054906101000a900460ff1660ff1660ff1681526020016000820160039054906101000a900462ffffff1662ffffff1662ffffff1681526020016000820160069054906101000a900462ffffff1662ffffff1662ffffff1681526020016000820160099054906101000a900463ffffffff1663ffffffff1663ffffffff1681526020016001820160009054906101000a900473ffffffffffffffffffffffffffffffffffffffff1673ffffffffffffffffffffffffffffffffffffffff1673ffffffffffffffffffffffffffffffffffffffff16815260200160028201805461277690613b5e565b80601f01602080910402602001604051908101604052809291908181526020018280546127a290613b5e565b80156127ef5780601f106127c4576101008083540402835291602001916127ef565b820191906000526020600020905b8154815290600101906020018083116127d257829003601f168201915b5050505050815250509050919050565b60007f01ffc9a7000000000000000000000000000000000000000000000000000000007bffffffffffffffffffffffffffffffffffffffffffffffffffffffff1916827bffffffffffffffffffffffffffffffffffffffffffffffffffffffff1916149050919050565b6000612877826000016129bd565b9050919050565b600061288d83600001836129d2565b60001c905092915050565b60006128ae8260076129fd90919063ffffffff16565b9050919050565b6000806000806128c88660000186612a17565b915091508160001c8160001c9350935050509250929050565b60006128f4846000018460001b84612a57565b60001c90509392505050565b600061290e82600001612ad8565b9050919050565b6000612927836000018360001b612ae9565b905092915050565b600061295b846000018460001b8473ffffffffffffffffffffffffffffffffffffffff1660001b612b59565b90509392505050565b600260015414156129aa576040517f08c379a00000000000000000000000000000000000000000000000000000000081526004016129a190614365565b60405180910390fd5b6002600181905550565b60018081905550565b60006129cb82600001612b94565b9050919050565b60008260000182815481106129ea576129e9613e20565b5b9060005260206000200154905092915050565b6000612a0f836000018360001b612ba9565b905092915050565b6000806000612a328486600001612bc990919063ffffffff16565b9050808560020160008381526020019081526020016000205492509250509250929050565b6000808460020160008581526020019081526020016000205490506000801b81141580612a8a5750612a898585612ba9565b5b8390612acc576040517f08c379a0000000000000000000000000000000000000000000000000000000008152600401612ac39190612efd565b60405180910390fd5b50809150509392505050565b600081600001805490509050919050565b6000612af58383612be0565b612b4e578260000182908060018154018082558091505060019003906000526020600020016000909190919091505582600001805490508360010160008481526020019081526020016000208190555060019050612b53565b600090505b92915050565b60008184600201600085815260200190815260200160002081905550612b8b8385600001612c0390919063ffffffff16565b90509392505050565b6000612ba282600001612ad8565b9050919050565b6000612bc18284600001612c1a90919063ffffffff16565b905092915050565b6000612bd883600001836129d2565b905092915050565b600080836001016000848152602001908152602001600020541415905092915050565b6000612c128360000183612ae9565b905092915050565b6000612c298360000183612be0565b905092915050565b828054612c3d90613b5e565b90600052602060002090601f016020900481019282612c5f5760008555612ca6565b82601f10612c7857805160ff1916838001178555612ca6565b82800160010185558215612ca6579182015b82811115612ca5578251825591602001919060010190612c8a565b5b509050612cb39190612d78565b5090565b828054828255906000526020600020908101928215612cf3579160200282015b82811115612cf2578251825591602001919060010190612cd7565b5b509050612d009190612d78565b5090565b604051806101000160405280600060ff168152602001600060ff168152602001600060ff168152602001600062ffffff168152602001600062ffffff168152602001600063ffffffff168152602001600073ffffffffffffffffffffffffffffffffffffffff168152602001606081525090565b5b80821115612d91576000816000905550600101612d79565b5090565b6000604051905090565b600080fd5b600080fd5b60007fffffffff0000000000000000000000000000000000000000000000000000000082169050919050565b612dde81612da9565b8114612de957600080fd5b50565b600081359050612dfb81612dd5565b92915050565b600060208284031215612e1757612e16612d9f565b5b6000612e2584828501612dec565b91505092915050565b60008115159050919050565b612e4381612e2e565b82525050565b6000602082019050612e5e6000830184612e3a565b92915050565b600081519050919050565b600082825260208201905092915050565b60005b83811015612e9e578082015181840152602081019050612e83565b83811115612ead576000848401525b50505050565b6000601f19601f8301169050919050565b6000612ecf82612e64565b612ed98185612e6f565b9350612ee9818560208601612e80565b612ef281612eb3565b840191505092915050565b60006020820190508181036000830152612f178184612ec4565b905092915050565b6000819050919050565b612f3281612f1f565b8114612f3d57600080fd5b50565b600081359050612f4f81612f29565b92915050565b600060208284031215612f6b57612f6a612d9f565b5b6000612f7984828501612f40565b91505092915050565b600073ffffffffffffffffffffffffffffffffffffffff82169050919050565b6000612fad82612f82565b9050919050565b612fbd81612fa2565b82525050565b6000602082019050612fd86000830184612fb4565b92915050565b612fe781612fa2565b8114612ff257600080fd5b50565b60008135905061300481612fde565b92915050565b6000806040838503121561302157613020612d9f565b5b600061302f85828601612ff5565b925050602061304085828601612f40565b9150509250929050565b61305381612f1f565b82525050565b600060208201905061306e600083018461304a565b92915050565b60008060006060848603121561308d5761308c612d9f565b5b600061309b86828701612ff5565b93505060206130ac86828701612ff5565b92505060406130bd86828701612f40565b9150509250925092565b6000602082840312156130dd576130dc612d9f565b5b60006130eb84828501612ff5565b91505092915050565b600060ff82169050919050565b61310a816130f4565b811461311557600080fd5b50565b60008135905061312781613101565b92915050565b600062ffffff82169050919050565b6131458161312d565b811461315057600080fd5b50565b6000813590506131628161313c565b92915050565b600063ffffffff82169050919050565b61318181613168565b811461318c57600080fd5b50565b60008135905061319e81613178565b92915050565b600080fd5b600080fd5b600080fd5b60008083601f8401126131c9576131c86131a4565b5b8235905067ffffffffffffffff8111156131e6576131e56131a9565b5b602083019150836020820283011115613202576132016131ae565b5b9250929050565b600080fd5b7f4e487b7100000000000000000000000000000000000000000000000000000000600052604160045260246000fd5b61324682612eb3565b810181811067ffffffffffffffff821117156132655761326461320e565b5b80604052505050565b6000613278612d95565b9050613284828261323d565b919050565b600067ffffffffffffffff8211156132a4576132a361320e565b5b6132ad82612eb3565b9050602081019050919050565b82818337600083830152505050565b60006132dc6132d784613289565b61326e565b9050828152602081018484840111156132f8576132f7613209565b5b6133038482856132ba565b509392505050565b600082601f8301126133205761331f6131a4565b5b81356133308482602086016132c9565b91505092915050565b6000806000806000806000806000806101208b8d03121561335d5761335c612d9f565b5b600061336b8d828e01613118565b9a5050602061337c8d828e01613118565b995050604061338d8d828e01613118565b985050606061339e8d828e01613153565b97505060806133af8d828e0161318f565b96505060a08b013567ffffffffffffffff8111156133d0576133cf612da4565b5b6133dc8d828e016131b3565b955095505060c06133ef8d828e01612ff5565b93505060e08b013567ffffffffffffffff8111156134105761340f612da4565b5b61341c8d828e0161330b565b9250506101008b013567ffffffffffffffff81111561343e5761343d612da4565b5b61344a8d828e0161330b565b9150509295989b9194979a5092959850565b61346581612e2e565b811461347057600080fd5b50565b6000813590506134828161345c565b92915050565b6000806040838503121561349f5761349e612d9f565b5b60006134ad85828601612ff5565b92505060206134be85828601613473565b9150509250929050565b600067ffffffffffffffff8211156134e3576134e261320e565b5b6134ec82612eb3565b9050602081019050919050565b600061350c613507846134c8565b61326e565b90508281526020810184848401111561352857613527613209565b5b6135338482856132ba565b509392505050565b600082601f8301126135505761354f6131a4565b5b81356135608482602086016134f9565b91505092915050565b6000806000806080858703121561358357613582612d9f565b5b600061359187828801612ff5565b94505060206135a287828801612ff5565b93505060406135b387828801612f40565b925050606085013567ffffffffffffffff8111156135d4576135d3612da4565b5b6135e08782880161353b565b91505092959194509250565b600067ffffffffffffffff8211156136075761360661320e565b5b602082029050602081019050919050565b600061362b613626846135ec565b61326e565b9050808382526020820190506020840283018581111561364e5761364d6131ae565b5b835b8181101561367757806136638882612f40565b845260208401935050602081019050613650565b5050509392505050565b600082601f830112613696576136956131a4565b5b81356136a6848260208601613618565b91505092915050565b600080604083850312156136c6576136c5612d9f565b5b60006136d485828601612f40565b925050602083013567ffffffffffffffff8111156136f5576136f4612da4565b5b61370185828601613681565b9150509250929050565b6000819050919050565b600061373061372b61372684612f82565b61370b565b612f82565b9050919050565b600061374282613715565b9050919050565b600061375482613737565b9050919050565b61376481613749565b82525050565b600060208201905061377f600083018461375b565b92915050565b600061379082613737565b9050919050565b6137a081613785565b82525050565b60006020820190506137bb6000830184613797565b92915050565b6000819050826020600202820111156137dd576137dc6131ae565b5b92915050565b6000819050826040600202820111156137ff576137fe6131ae565b5b92915050565b6000806000806000806000610160888a03121561382557613824612d9f565b5b60006138338a828b01612f40565b97505060206138448a828b01612ff5565b96505060406138558a828b016137c1565b95505060806138668a828b016137e3565b9450506101006138788a828b016137c1565b93505061014088013567ffffffffffffffff81111561389a57613899612da4565b5b6138a68a828b016131b3565b925092505092959891949750929550565b600081519050919050565b600082825260208201905092915050565b6000819050602082019050919050565b6138ec81612f1f565b82525050565b60006138fe83836138e3565b60208301905092915050565b6000602082019050919050565b6000613922826138b7565b61392c81856138c2565b9350613937836138d3565b8060005b8381101561396857815161394f88826138f2565b975061395a8361390a565b92505060018101905061393b565b5085935050505092915050565b6000602082019050818103600083015261398f8184613917565b905092915050565b600080604083850312156139ae576139ad612d9f565b5b60006139bc85828601612ff5565b92505060206139cd85828601612ff5565b9150509250929050565b6139e0816130f4565b82525050565b6139ef8161312d565b82525050565b6139fe81613168565b82525050565b613a0d81612fa2565b82525050565b600082825260208201905092915050565b6000613a2f82612e64565b613a398185613a13565b9350613a49818560208601612e80565b613a5281612eb3565b840191505092915050565b600061010083016000830151613a7660008601826139d7565b506020830151613a8960208601826139d7565b506040830151613a9c60408601826139d7565b506060830151613aaf60608601826139e6565b506080830151613ac260808601826139e6565b5060a0830151613ad560a08601826139f5565b5060c0830151613ae860c0860182613a04565b5060e083015184820360e0860152613b008282613a24565b9150508091505092915050565b60006020820190508181036000830152613b278184613a5d565b905092915050565b7f4e487b7100000000000000000000000000000000000000000000000000000000600052602260045260246000fd5b60006002820490506001821680613b7657607f821691505b60208210811415613b8a57613b89613b2f565b5b50919050565b7f4251543a2063616e6e6f7420617070726f766520746573747300000000000000600082015250565b6000613bc6601983612e6f565b9150613bd182613b90565b602082019050919050565b60006020820190508181036000830152613bf581613bb9565b9050919050565b7f4251543a2063616e6e6f74207472616e73666572207465737473000000000000600082015250565b6000613c32601a83612e6f565b9150613c3d82613bfc565b602082019050919050565b60006020820190508181036000830152613c6181613c25565b9050919050565b7f496e646578206f7574206f6620626f756e647300000000000000000000000000600082015250565b6000613c9e601383612e6f565b9150613ca982613c68565b602082019050919050565b60006020820190508181036000830152613ccd81613c91565b9050919050565b7f4552433732313a2062616c616e636520717565727920666f7220746865207a6560008201527f726f206164647265737300000000000000000000000000000000000000000000602082015250565b6000613d30602a83612e6f565b9150613d3b82613cd4565b604082019050919050565b60006020820190508181036000830152613d5f81613d23565b9050919050565b7f4e487b7100000000000000000000000000000000000000000000000000000000600052601160045260246000fd5b6000613da082612f1f565b91507fffffffffffffffffffffffffffffffffffffffffffffffffffffffffffffffff821415613dd357613dd2613d66565b5b600182019050919050565b600081519050613ded81612f29565b92915050565b600060208284031215613e0957613e08612d9f565b5b6000613e1784828501613dde565b91505092915050565b7f4e487b7100000000000000000000000000000000000000000000000000000000600052603260045260246000fd5b7f5465737420646f6573206e6f7420657869737400000000000000000000000000600082015250565b6000613e85601383612e6f565b9150613e9082613e4f565b602082019050919050565b60006020820190508181036000830152613eb481613e78565b9050919050565b613ec4816130f4565b82525050565b613ed6604083836132ba565b5050565b600060029050919050565b600081905092915050565b6000819050919050565b613f06604083836132ba565b5050565b6000613f168383613efa565b60408301905092915050565b600082905092915050565b6000604082019050919050565b613f4381613eda565b613f4d8184613ee5565b9250613f5882613ef0565b8060005b83811015613f9157613f6e8284613f22565b613f788782613f0a565b9650613f8383613f2d565b925050600181019050613f5c565b505050505050565b600080fd5b6000613faa83856138c2565b93507f07ffffffffffffffffffffffffffffffffffffffffffffffffffffffffffffff831115613fdd57613fdc613f99565b5b602083029250613fee8385846132ba565b82840190509392505050565b600061016082019050614010600083018a613ebb565b61401d6020830189613eca565b61402a6060830188613f3a565b61403760e0830187613eca565b81810361012083015261404b818587613f9e565b905061405b61014083018461304a565b98975050505050505050565b6000815190506140768161345c565b92915050565b60006020828403121561409257614091612d9f565b5b60006140a084828501614067565b91505092915050565b7f496e76616c69642070726f6f6600000000000000000000000000000000000000600082015250565b60006140df600d83612e6f565b91506140ea826140a9565b602082019050919050565b6000602082019050818103600083015261410e816140d2565b9050919050565b600061412082612f1f565b915061412b83612f1f565b9250827fffffffffffffffffffffffffffffffffffffffffffffffffffffffffffffffff038211156141605761415f613d66565b5b828201905092915050565b600061417682612f1f565b915061418183612f1f565b92508282101561419457614193613d66565b5b828203905092915050565b60006141aa82612f1f565b91506141b583612f1f565b9250817fffffffffffffffffffffffffffffffffffffffffffffffffffffffffffffffff04831182151516156141ee576141ed613d66565b5b828202905092915050565b7f4e487b7100000000000000000000000000000000000000000000000000000000600052601260045260246000fd5b600061423382612f1f565b915061423e83612f1f565b92508261424e5761424d6141f9565b5b828204905092915050565b6000614264826130f4565b915061426f836130f4565b92508282101561428257614281613d66565b5b828203905092915050565b60006040820190506142a26000830185612fb4565b6142af602083018461304a565b9392505050565b60006142c18261312d565b915062ffffff8214156142d7576142d6613d66565b5b600182019050919050565b60006060820190506142f76000830186612fb4565b614304602083018561304a565b614311604083018461304a565b949350505050565b7f5265656e7472616e637947756172643a207265656e7472616e742063616c6c00600082015250565b600061434f601f83612e6f565b915061435a82614319565b602082019050919050565b6000602082019050818103600083015261437e81614342565b905091905056fea2646970667358221220c332993287c42789cad61e538e87c67510474a38d25bbc1f2000809698b1035a64736f6c6343000809003360806040526040518060400160405280601b81526020017f426c6f636b205175616c69666965642043726564656e7469616c730000000000815250600290805190602001906200005192919062000303565b506040518060400160405280600381526020017f4251430000000000000000000000000000000000000000000000000000000000815250600390805190602001906200009f92919062000303565b50348015620000ad57600080fd5b50620000ce620000c26200015d60201b60201c565b6200016560201b60201c565b33600460006101000a81548173ffffffffffffffffffffffffffffffffffffffff021916908373ffffffffffffffffffffffffffffffffffffffff160217905550620001276380ac58cd60e01b6200022b60201b60201c565b6200013f635b5e139f60e01b6200022b60201b60201c565b6200015763780e9d6360e01b6200022b60201b60201c565b6200049b565b600033905090565b6000600160009054906101000a900473ffffffffffffffffffffffffffffffffffffffff16905081600160006101000a81548173ffffffffffffffffffffffffffffffffffffffff021916908373ffffffffffffffffffffffffffffffffffffffff1602179055508173ffffffffffffffffffffffffffffffffffffffff168173ffffffffffffffffffffffffffffffffffffffff167f8be0079c531659141344cd1fd0a4f28419497f9722a3daafe3b4186f6b6457e060405160405180910390a35050565b63ffffffff60e01b817bffffffffffffffffffffffffffffffffffffffffffffffffffffffff1916141562000297576040517f08c379a00000000000000000000000000000000000000000000000000000000081526004016200028e9062000414565b60405180910390fd5b6001600080837bffffffffffffffffffffffffffffffffffffffffffffffffffffffff19167bffffffffffffffffffffffffffffffffffffffffffffffffffffffff1916815260200190815260200160002060006101000a81548160ff02191690831515021790555050565b828054620003119062000465565b90600052602060002090601f01602090048101928262000335576000855562000381565b82601f106200035057805160ff191683800117855562000381565b8280016001018555821562000381579182015b828111156200038057825182559160200191906001019062000363565b5b50905062000390919062000394565b5090565b5b80821115620003af57600081600090555060010162000395565b5090565b600082825260208201905092915050565b7f4552433136353a20696e76616c696420696e7465726661636520696400000000600082015250565b6000620003fc601c83620003b3565b91506200040982620003c4565b602082019050919050565b600060208201905081810360008301526200042f81620003ed565b9050919050565b7f4e487b7100000000000000000000000000000000000000000000000000000000600052602260045260246000fd5b600060028204905060018216806200047e57607f821691505b6020821081141562000495576200049462000436565b5b50919050565b6127cb80620004ab6000396000f3fe608060405234801561001057600080fd5b50600436106101735760003560e01c80636352211e116100de578063a22cb46511610097578063e985e9c511610071578063e985e9c514610482578063f2fde38b146104b2578063f34071da146104ce578063ff4236f8146104fe57610173565b8063a22cb4651461041a578063b88d4fde14610436578063c87b56dd1461045257610173565b80636352211e1461034457806370a0823114610374578063715018a6146103a45780638da5cb5b146103ae5780638dd18d2d146103cc57806395d89b41146103fc57610173565b806323b872dd1161013057806323b872dd1461026057806329edae3a1461027c5780632f745c59146102ac57806332cbe31c146102dc57806342842e0e146102f85780634f6ccce71461031457610173565b806301ffc9a714610178578063061e4dde146101a857806306fdde03146101d8578063081812fc146101f6578063095ea7b31461022657806318160ddd14610242575b600080fd5b610192600480360381019061018d91906117ca565b61052e565b60405161019f9190611812565b60405180910390f35b6101c260048036038101906101bd919061188b565b6105a5565b6040516101cf9190611980565b60405180910390f35b6101e06105f5565b6040516101ed9190611a3b565b60405180910390f35b610210600480360381019061020b9190611a89565b610687565b60405161021d9190611ac5565b60405180910390f35b610240600480360381019061023b9190611ae0565b61068e565b005b61024a6106c9565b6040516102579190611b2f565b60405180910390f35b61027a60048036038101906102759190611b4a565b610867565b005b61029660048036038101906102919190611ae0565b6108a2565b6040516102a39190611b2f565b60405180910390f35b6102c660048036038101906102c19190611ae0565b6108fd565b6040516102d39190611b2f565b60405180910390f35b6102f660048036038101906102f19190611b9d565b6109a2565b005b610312600480360381019061030d9190611b4a565b610b4f565b005b61032e60048036038101906103299190611a89565b610b6f565b60405161033b9190611b2f565b60405180910390f35b61035e60048036038101906103599190611a89565b610c23565b60405161036b9190611ac5565b60405180910390f35b61038e6004803603810190610389919061188b565b610cd7565b60405161039b9190611b2f565b60405180910390f35b6103ac610d96565b005b6103b6610daa565b6040516103c39190611ac5565b60405180910390f35b6103e660048036038101906103e19190611a89565b610dd4565b6040516103f39190611a3b565b60405180910390f35b610404610f7b565b6040516104119190611a3b565b60405180910390f35b610434600480360381019061042f9190611c1c565b61100d565b005b610450600480360381019061044b9190611d91565b611048565b005b61046c60048036038101906104679190611a89565b611083565b6040516104799190611a3b565b60405180910390f35b61049c60048036038101906104979190611e14565b61113c565b6040516104a99190611812565b60405180910390f35b6104cc60048036038101906104c7919061188b565b611144565b005b6104e860048036038101906104e39190611a89565b6111c8565b6040516104f59190611f12565b60405180910390f35b61051860048036038101906105139190611a89565b6111ec565b6040516105259190611f50565b60405180910390f35b600061053982611393565b8061059e5750600080837bffffffffffffffffffffffffffffffffffffffffffffffffffffffff19167bffffffffffffffffffffffffffffffffffffffffffffffffffffffff1916815260200190815260200160002060009054906101000a900460ff165b9050919050565b60606105ee600560008473ffffffffffffffffffffffffffffffffffffffff1673ffffffffffffffffffffffffffffffffffffffff1681526020019081526020016000206113fd565b9050919050565b60606002805461060490611f9a565b80601f016020809104026020016040519081016040528092919081815260200182805461063090611f9a565b801561067d5780601f106106525761010080835404028352916020019161067d565b820191906000526020600020905b81548152906001019060200180831161066057829003601f168201915b5050505050905090565b6000919050565b6040517f08c379a00000000000000000000000000000000000000000000000000000000081526004016106c090612018565b60405180910390fd5b600080600460009054906101000a900473ffffffffffffffffffffffffffffffffffffffff1673ffffffffffffffffffffffffffffffffffffffff166318160ddd6040518163ffffffff1660e01b815260040160206040518083038186803b15801561073457600080fd5b505afa158015610748573d6000803e3d6000fd5b505050506040513d601f19601f8201168201806040525081019061076c919061204d565b905060005b81811015610862576000600460009054906101000a900473ffffffffffffffffffffffffffffffffffffffff1673ffffffffffffffffffffffffffffffffffffffff16634f6ccce7836040518263ffffffff1660e01b81526004016107d69190611b2f565b60206040518083038186803b1580156107ee57600080fd5b505afa158015610802573d6000803e3d6000fd5b505050506040513d601f19601f82011682018060405250810190610826919061204d565b90506108436007600083815260200190815260200160002061141e565b8461084e91906120a9565b9350508061085b906120ff565b9050610771565b505090565b6040517f08c379a000000000000000000000000000000000000000000000000000000000815260040161089990612194565b60405180910390fd5b60006006600083815260200190815260200160002060008473ffffffffffffffffffffffffffffffffffffffff1673ffffffffffffffffffffffffffffffffffffffff16815260200190815260200160002054905092915050565b600061090883610cd7565b8210610949576040517f08c379a000000000000000000000000000000000000000000000000000000000815260040161094090612200565b60405180910390fd5b61099a82600560008673ffffffffffffffffffffffffffffffffffffffff1673ffffffffffffffffffffffffffffffffffffffff16815260200190815260200160002061143390919063ffffffff16565b905092915050565b6109aa61144d565b806006600084815260200190815260200160002060008573ffffffffffffffffffffffffffffffffffffffff1673ffffffffffffffffffffffffffffffffffffffff16815260200190815260200160002081905550610a5082600560008673ffffffffffffffffffffffffffffffffffffffff1673ffffffffffffffffffffffffffffffffffffffff1681526020019081526020016000206114cb90919063ffffffff16565b610b4a57610aa582600560008673ffffffffffffffffffffffffffffffffffffffff1673ffffffffffffffffffffffffffffffffffffffff1681526020019081526020016000206114e590919063ffffffff16565b50610acb83600760008581526020019081526020016000206114ff90919063ffffffff16565b50818373ffffffffffffffffffffffffffffffffffffffff16600460009054906101000a900473ffffffffffffffffffffffffffffffffffffffff1673ffffffffffffffffffffffffffffffffffffffff167fddf252ad1be2c89b69c2b068fc378daa952ba7f163c4a11628f55a4df523b3ef60405160405180910390a45b505050565b610b6a83838360405180602001604052806000815250611048565b505050565b6000600460009054906101000a900473ffffffffffffffffffffffffffffffffffffffff1673ffffffffffffffffffffffffffffffffffffffff16634f6ccce7836040518263ffffffff1660e01b8152600401610bcc9190611b2f565b60206040518083038186803b158015610be457600080fd5b505afa158015610bf8573d6000803e3d6000fd5b505050506040513d601f19601f82011682018060405250810190610c1c919061204d565b9050919050565b6000600460009054906101000a900473ffffffffffffffffffffffffffffffffffffffff1673ffffffffffffffffffffffffffffffffffffffff16636352211e836040518263ffffffff1660e01b8152600401610c809190611b2f565b60206040518083038186803b158015610c9857600080fd5b505afa158015610cac573d6000803e3d6000fd5b505050506040513d601f19601f82011682018060405250810190610cd09190612235565b9050919050565b60008073ffffffffffffffffffffffffffffffffffffffff168273ffffffffffffffffffffffffffffffffffffffff161415610d48576040517f08c379a0000000000000000000000000000000000000000000000000000000008152600401610d3f906122d4565b60405180910390fd5b610d8f600560008473ffffffffffffffffffffffffffffffffffffffff1673ffffffffffffffffffffffffffffffffffffffff16815260200190815260200160002061152f565b9050919050565b610d9e61144d565b610da86000611544565b565b6000600160009054906101000a900473ffffffffffffffffffffffffffffffffffffffff16905090565b6060600460009054906101000a900473ffffffffffffffffffffffffffffffffffffffff1673ffffffffffffffffffffffffffffffffffffffff1663d8b05250836040518263ffffffff1660e01b8152600401610e319190611b2f565b60206040518083038186803b158015610e4957600080fd5b505afa158015610e5d573d6000803e3d6000fd5b505050506040513d601f19601f82011682018060405250810190610e819190612309565b610ec0576040517f08c379a0000000000000000000000000000000000000000000000000000000008152600401610eb790612382565b60405180910390fd5b600460009054906101000a900473ffffffffffffffffffffffffffffffffffffffff1673ffffffffffffffffffffffffffffffffffffffff1663edef019d836040518263ffffffff1660e01b8152600401610f1b9190611b2f565b60006040518083038186803b158015610f3357600080fd5b505afa158015610f47573d6000803e3d6000fd5b505050506040513d6000823e3d601f19601f82011682018060405250810190610f7091906125d6565b60e001519050919050565b606060038054610f8a90611f9a565b80601f0160208091040260200160405190810160405280929190818152602001828054610fb690611f9a565b80156110035780601f10610fd857610100808354040283529160200191611003565b820191906000526020600020905b815481529060010190602001808311610fe657829003601f168201915b5050505050905090565b6040517f08c379a000000000000000000000000000000000000000000000000000000000815260040161103f90612018565b60405180910390fd5b6040517f08c379a000000000000000000000000000000000000000000000000000000000815260040161107a90612194565b60405180910390fd5b6060600460009054906101000a900473ffffffffffffffffffffffffffffffffffffffff1673ffffffffffffffffffffffffffffffffffffffff1663c87b56dd836040518263ffffffff1660e01b81526004016110e09190611b2f565b60006040518083038186803b1580156110f857600080fd5b505afa15801561110c573d6000803e3d6000fd5b505050506040513d6000823e3d601f19601f82011682018060405250810190611135919061261f565b9050919050565b600092915050565b61114c61144d565b600073ffffffffffffffffffffffffffffffffffffffff168173ffffffffffffffffffffffffffffffffffffffff1614156111bc576040517f08c379a00000000000000000000000000000000000000000000000000000000081526004016111b3906126da565b60405180910390fd5b6111c581611544565b50565b60606111e56007600084815260200190815260200160002061160a565b9050919050565b6000600460009054906101000a900473ffffffffffffffffffffffffffffffffffffffff1673ffffffffffffffffffffffffffffffffffffffff1663d8b05250836040518263ffffffff1660e01b81526004016112499190611b2f565b60206040518083038186803b15801561126157600080fd5b505afa158015611275573d6000803e3d6000fd5b505050506040513d601f19601f820116820180604052508101906112999190612309565b6112d8576040517f08c379a00000000000000000000000000000000000000000000000000000000081526004016112cf90612382565b60405180910390fd5b600460009054906101000a900473ffffffffffffffffffffffffffffffffffffffff1673ffffffffffffffffffffffffffffffffffffffff1663edef019d836040518263ffffffff1660e01b81526004016113339190611b2f565b60006040518083038186803b15801561134b57600080fd5b505afa15801561135f573d6000803e3d6000fd5b505050506040513d6000823e3d601f19601f8201168201806040525081019061138891906125d6565b600001519050919050565b60007f01ffc9a7000000000000000000000000000000000000000000000000000000007bffffffffffffffffffffffffffffffffffffffffffffffffffffffff1916827bffffffffffffffffffffffffffffffffffffffffffffffffffffffff1916149050919050565b6060600061140d8360000161162b565b905060608190508092505050919050565b600061142c82600001611687565b9050919050565b60006114428360000183611698565b60001c905092915050565b6114556116c3565b73ffffffffffffffffffffffffffffffffffffffff16611473610daa565b73ffffffffffffffffffffffffffffffffffffffff16146114c9576040517f08c379a00000000000000000000000000000000000000000000000000000000081526004016114c090612746565b60405180910390fd5b565b60006114dd836000018360001b6116cb565b905092915050565b60006114f7836000018360001b6116ee565b905092915050565b6000611527836000018373ffffffffffffffffffffffffffffffffffffffff1660001b6116ee565b905092915050565b600061153d82600001611687565b9050919050565b6000600160009054906101000a900473ffffffffffffffffffffffffffffffffffffffff16905081600160006101000a81548173ffffffffffffffffffffffffffffffffffffffff021916908373ffffffffffffffffffffffffffffffffffffffff1602179055508173ffffffffffffffffffffffffffffffffffffffff168173ffffffffffffffffffffffffffffffffffffffff167f8be0079c531659141344cd1fd0a4f28419497f9722a3daafe3b4186f6b6457e060405160405180910390a35050565b6060600061161a8360000161162b565b905060608190508092505050919050565b60608160000180548060200260200160405190810160405280929190818152602001828054801561167b57602002820191906000526020600020905b815481526020019060010190808311611667575b50505050509050919050565b600081600001805490509050919050565b60008260000182815481106116b0576116af612766565b5b9060005260206000200154905092915050565b600033905090565b600080836001016000848152602001908152602001600020541415905092915050565b60006116fa83836116cb565b611753578260000182908060018154018082558091505060019003906000526020600020016000909190919091505582600001805490508360010160008481526020019081526020016000208190555060019050611758565b600090505b92915050565b6000604051905090565b600080fd5b600080fd5b60007fffffffff0000000000000000000000000000000000000000000000000000000082169050919050565b6117a781611772565b81146117b257600080fd5b50565b6000813590506117c48161179e565b92915050565b6000602082840312156117e0576117df611768565b5b60006117ee848285016117b5565b91505092915050565b60008115159050919050565b61180c816117f7565b82525050565b60006020820190506118276000830184611803565b92915050565b600073ffffffffffffffffffffffffffffffffffffffff82169050919050565b60006118588261182d565b9050919050565b6118688161184d565b811461187357600080fd5b50565b6000813590506118858161185f565b92915050565b6000602082840312156118a1576118a0611768565b5b60006118af84828501611876565b91505092915050565b600081519050919050565b600082825260208201905092915050565b6000819050602082019050919050565b6000819050919050565b6118f7816118e4565b82525050565b600061190983836118ee565b60208301905092915050565b6000602082019050919050565b600061192d826118b8565b61193781856118c3565b9350611942836118d4565b8060005b8381101561197357815161195a88826118fd565b975061196583611915565b925050600181019050611946565b5085935050505092915050565b6000602082019050818103600083015261199a8184611922565b905092915050565b600081519050919050565b600082825260208201905092915050565b60005b838110156119dc5780820151818401526020810190506119c1565b838111156119eb576000848401525b50505050565b6000601f19601f8301169050919050565b6000611a0d826119a2565b611a1781856119ad565b9350611a278185602086016119be565b611a30816119f1565b840191505092915050565b60006020820190508181036000830152611a558184611a02565b905092915050565b611a66816118e4565b8114611a7157600080fd5b50565b600081359050611a8381611a5d565b92915050565b600060208284031215611a9f57611a9e611768565b5b6000611aad84828501611a74565b91505092915050565b611abf8161184d565b82525050565b6000602082019050611ada6000830184611ab6565b92915050565b60008060408385031215611af757611af6611768565b5b6000611b0585828601611876565b9250506020611b1685828601611a74565b9150509250929050565b611b29816118e4565b82525050565b6000602082019050611b446000830184611b20565b92915050565b600080600060608486031215611b6357611b62611768565b5b6000611b7186828701611876565b9350506020611b8286828701611876565b9250506040611b9386828701611a74565b9150509250925092565b600080600060608486031215611bb657611bb5611768565b5b6000611bc486828701611876565b9350506020611bd586828701611a74565b9250506040611be686828701611a74565b9150509250925092565b611bf9816117f7565b8114611c0457600080fd5b50565b600081359050611c1681611bf0565b92915050565b60008060408385031215611c3357611c32611768565b5b6000611c4185828601611876565b9250506020611c5285828601611c07565b9150509250929050565b600080fd5b600080fd5b7f4e487b7100000000000000000000000000000000000000000000000000000000600052604160045260246000fd5b611c9e826119f1565b810181811067ffffffffffffffff82111715611cbd57611cbc611c66565b5b80604052505050565b6000611cd061175e565b9050611cdc8282611c95565b919050565b600067ffffffffffffffff821115611cfc57611cfb611c66565b5b611d05826119f1565b9050602081019050919050565b82818337600083830152505050565b6000611d34611d2f84611ce1565b611cc6565b905082815260208101848484011115611d5057611d4f611c61565b5b611d5b848285611d12565b509392505050565b600082601f830112611d7857611d77611c5c565b5b8135611d88848260208601611d21565b91505092915050565b60008060008060808587031215611dab57611daa611768565b5b6000611db987828801611876565b9450506020611dca87828801611876565b9350506040611ddb87828801611a74565b925050606085013567ffffffffffffffff811115611dfc57611dfb61176d565b5b611e0887828801611d63565b91505092959194509250565b60008060408385031215611e2b57611e2a611768565b5b6000611e3985828601611876565b9250506020611e4a85828601611876565b9150509250929050565b600081519050919050565b600082825260208201905092915050565b6000819050602082019050919050565b611e898161184d565b82525050565b6000611e9b8383611e80565b60208301905092915050565b6000602082019050919050565b6000611ebf82611e54565b611ec98185611e5f565b9350611ed483611e70565b8060005b83811015611f05578151611eec8882611e8f565b9750611ef783611ea7565b925050600181019050611ed8565b5085935050505092915050565b60006020820190508181036000830152611f2c8184611eb4565b905092915050565b600060ff82169050919050565b611f4a81611f34565b82525050565b6000602082019050611f656000830184611f41565b92915050565b7f4e487b7100000000000000000000000000000000000000000000000000000000600052602260045260246000fd5b60006002820490506001821680611fb257607f821691505b60208210811415611fc657611fc5611f6b565b5b50919050565b7f4251433a2063616e6e6f7420617070726f76652063726564656e7469616c7300600082015250565b6000612002601f836119ad565b915061200d82611fcc565b602082019050919050565b6000602082019050818103600083015261203181611ff5565b9050919050565b60008151905061204781611a5d565b92915050565b60006020828403121561206357612062611768565b5b600061207184828501612038565b91505092915050565b7f4e487b7100000000000000000000000000000000000000000000000000000000600052601160045260246000fd5b60006120b4826118e4565b91506120bf836118e4565b9250827fffffffffffffffffffffffffffffffffffffffffffffffffffffffffffffffff038211156120f4576120f361207a565b5b828201905092915050565b600061210a826118e4565b91507fffffffffffffffffffffffffffffffffffffffffffffffffffffffffffffffff82141561213d5761213c61207a565b5b600182019050919050565b7f4251433a2063616e6e6f74207472616e736665722063726564656e7469616c73600082015250565b600061217e6020836119ad565b915061218982612148565b602082019050919050565b600060208201905081810360008301526121ad81612171565b9050919050565b7f496e646578206f7574206f6620626f756e647300000000000000000000000000600082015250565b60006121ea6013836119ad565b91506121f5826121b4565b602082019050919050565b60006020820190508181036000830152612219816121dd565b9050919050565b60008151905061222f8161185f565b92915050565b60006020828403121561224b5761224a611768565b5b600061225984828501612220565b91505092915050565b7f4552433732313a2062616c616e636520717565727920666f7220746865207a6560008201527f726f206164647265737300000000000000000000000000000000000000000000602082015250565b60006122be602a836119ad565b91506122c982612262565b604082019050919050565b600060208201905081810360008301526122ed816122b1565b9050919050565b60008151905061230381611bf0565b92915050565b60006020828403121561231f5761231e611768565b5b600061232d848285016122f4565b91505092915050565b7f5465737420646f6573206e6f7420657869737400000000000000000000000000600082015250565b600061236c6013836119ad565b915061237782612336565b602082019050919050565b6000602082019050818103600083015261239b8161235f565b9050919050565b600080fd5b600080fd5b6123b581611f34565b81146123c057600080fd5b50565b6000815190506123d2816123ac565b92915050565b600062ffffff82169050919050565b6123f0816123d8565b81146123fb57600080fd5b50565b60008151905061240d816123e7565b92915050565b600063ffffffff82169050919050565b61242c81612413565b811461243757600080fd5b50565b60008151905061244981612423565b92915050565b600067ffffffffffffffff82111561246a57612469611c66565b5b612473826119f1565b9050602081019050919050565b600061249361248e8461244f565b611cc6565b9050828152602081018484840111156124af576124ae611c61565b5b6124ba8482856119be565b509392505050565b600082601f8301126124d7576124d6611c5c565b5b81516124e7848260208601612480565b91505092915050565b60006101008284031215612507576125066123a2565b5b612512610100611cc6565b90506000612522848285016123c3565b6000830152506020612536848285016123c3565b602083015250604061254a848285016123c3565b604083015250606061255e848285016123fe565b6060830152506080612572848285016123fe565b60808301525060a06125868482850161243a565b60a08301525060c061259a84828501612220565b60c08301525060e082015167ffffffffffffffff8111156125be576125bd6123a7565b5b6125ca848285016124c2565b60e08301525092915050565b6000602082840312156125ec576125eb611768565b5b600082015167ffffffffffffffff81111561260a5761260961176d565b5b612616848285016124f0565b91505092915050565b60006020828403121561263557612634611768565b5b600082015167ffffffffffffffff8111156126535761265261176d565b5b61265f848285016124c2565b91505092915050565b7f4f776e61626c653a206e6577206f776e657220697320746865207a65726f206160008201527f6464726573730000000000000000000000000000000000000000000000000000602082015250565b60006126c46026836119ad565b91506126cf82612668565b604082019050919050565b600060208201905081810360008301526126f3816126b7565b9050919050565b7f4f776e61626c653a2063616c6c6572206973206e6f7420746865206f776e6572600082015250565b60006127306020836119ad565b915061273b826126fa565b602082019050919050565b6000602082019050818103600083015261275f81612723565b9050919050565b7f4e487b7100000000000000000000000000000000000000000000000000000000600052603260045260246000fdfea2646970667358221220eef6bf3c1d6eb6983fd347764852eb9a9ade2a8dc01e7d0ec61fac9db6ce4c0c64736f6c6343000809003360806040527f30644e72e131a029b85045b68181585d2833e84879b9709143e1f593f000000160005534801561003457600080fd5b5061233a806100446000396000f3fe608060405234801561001057600080fd5b506004361061002b5760003560e01c8063796bbf5114610030575b600080fd5b61004a60048036038101906100459190611dd5565b610060565b6040516100579190611ea2565b60405180910390f35b600061006a611b71565b60405180604001604052808960006002811061008957610088611ebd565b5b60200201358152602001896001600281106100a7576100a6611ebd565b5b60200201358152508160000181905250604051806040016040528060405180604001604052808a6000600281106100e1576100e0611ebd565b5b604002016000600281106100f8576100f7611ebd565b5b602002013581526020018a60006002811061011657610115611ebd565b5b6040020160016002811061012d5761012c611ebd565b5b6020020135815250815260200160405180604001604052808a60016002811061015957610158611ebd565b5b604002016000600281106101705761016f611ebd565b5b602002013581526020018a60016002811061018e5761018d611ebd565b5b604002016001600281106101a5576101a4611ebd565b5b602002013581525081525081602001819052506040518060400160405280876000600281106101d7576101d6611ebd565b5b60200201358152602001876001600281106101f5576101f4611ebd565b5b6020020135815250816040018190525061020d611ba4565b60008a60ff161415610238576002868690501461022957600080fd5b61023161047c565b90506102a4565b60008a60ff1611801561024e575060648a60ff16105b15610272576003868690501461026357600080fd5b61026b610970565b90506102a3565b60648a60ff16141561029d576001868690501461028e57600080fd5b610296610edc565b90506102a2565b600080fd5b5b5b600081608001516000815181106102be576102bd611ebd565b5b6020026020010151905060005b8787905081101561039e576000548888838181106102ec576102eb611ebd565b5b9050602002013510610333576040517f08c379a000000000000000000000000000000000000000000000000000000000815260040161032a90611f49565b60405180910390fd5b61038982610384856080015160018561034c9190611f98565b8151811061035d5761035c611ebd565b5b60200260200101518b8b8681811061037857610377611ebd565b5b90506020020135611358565b611435565b9150808061039690611fee565b9150506102cb565b5060005485106103e3576040517f08c379a00000000000000000000000000000000000000000000000000000000081526004016103da90611f49565b60405180910390fd5b6104238161041e846080015160018b8b90506103ff9190611f98565b815181106104105761040f611ebd565b5b602002602001015188611358565b611435565b90506104596104358460000151611538565b846020015184600001518560200151858760400151896040015189606001516115dd565b6104695760009350505050610471565b600193505050505b979650505050505050565b610484611ba4565b60405180604001604052807f2d4d9aa7e302d9df41749d5507949d05dbea33fbb16c643b22f599a2be6df2e281526020017f14bedd503c37ceb061d8ec60209fe345ce89830a19230301f076caff004d19268152508160000181905250604051806040016040528060405180604001604052807f0967032fcbf776d1afc985f88877f182d38480a653f2decaa9794cbc3bf3060c81526020017f0e187847ad4c798374d0d6732bf501847dd68bc0e071241e0213bc7fc13db7ab815250815260200160405180604001604052807f304cfbd1e08a704a99f5e847d93f8c3caafddec46b7a0d379da69a4d112346a781526020017f1739c1b1a457a8c7313123d24d2f9192f896b7c63eea05a9d57f06547ad0cec88152508152508160200181905250604051806040016040528060405180604001604052807f198e9393920d483a7260bfb731fb5d25f1aa493335a9e71297e485b7aef312c281526020017f1800deef121f1e76426a00665e5c4479674322d4f75edadd46debd5cd992f6ed815250815260200160405180604001604052807f090689d0585ff075ec9e99ad690c3395bc4b313370b38ef355acdadcd122975b81526020017f12c85ea5db8c6deb4aab71808dcb408fe3d1e7690c43d37b4ce6cc0166fa7daa8152508152508160400181905250604051806040016040528060405180604001604052807f11d84303b858fd1d8237c37b0338773c276dcfaa191b00198f96210f151d4e9481526020017f2903f8298e37db0281cbd132358739376a077b4a98078f7d86d3d8292f887200815250815260200160405180604001604052807f0e900d0b9da56dfd9a5aca7a37efd302afa2c06d23de43c21ce2f8e2689e6c8a81526020017f19852e360e1caedef0dd8710a604bd4cad7ef7a6444f3b0ce82ea8e8c8b959188152508152508160600181905250600467ffffffffffffffff81111561074b5761074a612037565b5b60405190808252806020026020018201604052801561078457816020015b610771611beb565b8152602001906001900390816107695790505b50816080018190525060405180604001604052807f2f1634eb673a2f1557942185fb57319a7095d9fc027574beeff07fd9b32a3d6281526020017f1f469af27dadfad4e6ae3c63d561a11d7e0837ca99ecc9a5085d4aaade658c6981525081608001516000815181106107fa576107f9611ebd565b5b602002602001018190525060405180604001604052807f131f19b4f1bc77f6f0a6331ef61402f894c6dbe98d70788d807ae5a6f7c26f8a81526020017f148a89a0c840ac542d120e2be1725920ce91585241fd96ccc78e31c8edd4142d815250816080015160018151811061087257610871611ebd565b5b602002602001018190525060405180604001604052807f037ab1a6ad9b39a14e696e1a43b969e44cf99ddc86699268ae0e91b769743fca81526020017f015316314cddc2ae170c1c7033abf8e0b7713a95c7255771141d927447b58b6381525081608001516002815181106108ea576108e9611ebd565b5b602002602001018190525060405180604001604052807f2caf9b5246d8cabee9910ad40e0d8e3f85e78afe11796e5e348c3e215ba072b281526020017f19e8b4d2fdb9710cd17c517417e46b84ca7ba2b02f53f20d5c1067d483e2251e815250816080015160038151811061096257610961611ebd565b5b602002602001018190525090565b610978611ba4565b60405180604001604052807f2d4d9aa7e302d9df41749d5507949d05dbea33fbb16c643b22f599a2be6df2e281526020017f14bedd503c37ceb061d8ec60209fe345ce89830a19230301f076caff004d19268152508160000181905250604051806040016040528060405180604001604052807f0967032fcbf776d1afc985f88877f182d38480a653f2decaa9794cbc3bf3060c81526020017f0e187847ad4c798374d0d6732bf501847dd68bc0e071241e0213bc7fc13db7ab815250815260200160405180604001604052807f304cfbd1e08a704a99f5e847d93f8c3caafddec46b7a0d379da69a4d112346a781526020017f1739c1b1a457a8c7313123d24d2f9192f896b7c63eea05a9d57f06547ad0cec88152508152508160200181905250604051806040016040528060405180604001604052807f198e9393920d483a7260bfb731fb5d25f1aa493335a9e71297e485b7aef312c281526020017f1800deef121f1e76426a00665e5c4479674322d4f75edadd46debd5cd992f6ed815250815260200160405180604001604052807f090689d0585ff075ec9e99ad690c3395bc4b313370b38ef355acdadcd122975b81526020017f12c85ea5db8c6deb4aab71808dcb408fe3d1e7690c43d37b4ce6cc0166fa7daa8152508152508160400181905250604051806040016040528060405180604001604052807f03179f18e9add38a413fe5d67963f45e13513078f81dab5cd8eaeb3e6d5f512e81526020017f06a9f1906418e09b35c374f8e87c2e1bb00dec65160a24b22bc08d9a73e40400815250815260200160405180604001604052807f1d01ed8f097ff600333affec5769b0ed803c179805de9cdf1aa16bc83fcd7ab781526020017f05b144d8430d2fd3713716e998930d410b04d3555712c26feccbdac2cd559e0d8152508152508160600181905250600567ffffffffffffffff811115610c3f57610c3e612037565b5b604051908082528060200260200182016040528015610c7857816020015b610c65611beb565b815260200190600190039081610c5d5790505b50816080018190525060405180604001604052807f1f4ba445cbf433891463eb34658a228cfc139224a18303d72006d4e16968a2e581526020017f2b3550e8cd8eb7b1bafcbfb4e7a914bbffbeb9e5dee527413d4ac53be6733efa8152508160800151600081518110610cee57610ced611ebd565b5b602002602001018190525060405180604001604052807f2d98e1dc7ebea7d6bab829bd81766fe856a49e7d49420a354786102aa9d59f4f81526020017f19b06c99722d87f37c6e2295c6a97d04b045c08a2956df595de95a58c3b761448152508160800151600181518110610d6657610d65611ebd565b5b602002602001018190525060405180604001604052807f180d8c99486e96ea6ecf52f5e08852bc3e8ad4c883e32224aca673d3ef34ee4e81526020017f2ab1c0f5045d94dd3f348719de26492286fae4bef4cfbcd11ffda6b4a02659418152508160800151600281518110610dde57610ddd611ebd565b5b602002602001018190525060405180604001604052807f0a351bfe28d2e5bfee0ba5c331df4a6952f029e067cb219ade05744ae1b531a781526020017f2402bb748a5439a5e1d4232b19085d94c80f195f602fb97ba4419d4e0876afb08152508160800151600381518110610e5657610e55611ebd565b5b602002602001018190525060405180604001604052807f0b3cc3fc5e3447798b849c4eb03522c77ed18456f10b5bb57378855fe60055ee81526020017f2921bdcc7325f2f38396b8ac29f85dc993105843e76c0225482479e56556bcaa8152508160800151600481518110610ece57610ecd611ebd565b5b602002602001018190525090565b610ee4611ba4565b60405180604001604052807f2d4d9aa7e302d9df41749d5507949d05dbea33fbb16c643b22f599a2be6df2e281526020017f14bedd503c37ceb061d8ec60209fe345ce89830a19230301f076caff004d19268152508160000181905250604051806040016040528060405180604001604052807f0967032fcbf776d1afc985f88877f182d38480a653f2decaa9794cbc3bf3060c81526020017f0e187847ad4c798374d0d6732bf501847dd68bc0e071241e0213bc7fc13db7ab815250815260200160405180604001604052807f304cfbd1e08a704a99f5e847d93f8c3caafddec46b7a0d379da69a4d112346a781526020017f1739c1b1a457a8c7313123d24d2f9192f896b7c63eea05a9d57f06547ad0cec88152508152508160200181905250604051806040016040528060405180604001604052807f198e9393920d483a7260bfb731fb5d25f1aa493335a9e71297e485b7aef312c281526020017f1800deef121f1e76426a00665e5c4479674322d4f75edadd46debd5cd992f6ed815250815260200160405180604001604052807f090689d0585ff075ec9e99ad690c3395bc4b313370b38ef355acdadcd122975b81526020017f12c85ea5db8c6deb4aab71808dcb408fe3d1e7690c43d37b4ce6cc0166fa7daa8152508152508160400181905250604051806040016040528060405180604001604052807f12d6e8a737766e6f60ca44e8668bd92d3a149f83f71f37759102688a7a023ca781526020017f1e424e7df6a5f5eeea518273f7f6cf2cf4956705625a9390b538d23bd8e2f5a4815250815260200160405180604001604052807f288de2493371363b1430e70ad1c78c84cabe44a678741277c89e3bee33b6ce7681526020017f13d32a179fbd3bd83f84f0a232e38c3d65e02d0d7c65e8461278d9a1deefb6438152508152508160600181905250600367ffffffffffffffff8111156111ab576111aa612037565b5b6040519080825280602002602001820160405280156111e457816020015b6111d1611beb565b8152602001906001900390816111c95790505b50816080018190525060405180604001604052807f1a89a0ded0f3385a8fc7b7b8a7c8681b5a9f3610e7ff1e982f519fe60045f67a81526020017f15e8dfe8148c111cd380dd55bea709b86989d294097d56d699a29c5a65d7f08a815250816080015160008151811061125a57611259611ebd565b5b602002602001018190525060405180604001604052807f2ef9e0d038f6956cc25a116cc80ccbf434f0745311273adcdf1f90b79b1c282b81526020017f120a3439fcbe29f6a8c21ac6d699403275b0f975f2054b1183f2b91681ff12c181525081608001516001815181106112d2576112d1611ebd565b5b602002602001018190525060405180604001604052807f26cb329ab5c21d41c4046ed3dfa13a046c8d9da444122104cd58f01e7f2e071081526020017f263cba2d47ba222c684257ce2a7feecedb82fbc2d67bc11cc13eb3203646a51f815250816080015160028151811061134a57611349611ebd565b5b602002602001018190525090565b611360611beb565b611368611c05565b83600001518160006003811061138157611380611ebd565b5b6020020181815250508360200151816001600381106113a3576113a2611ebd565b5b60200201818152505082816002600381106113c1576113c0611ebd565b5b602002018181525050600060608360808460076107d05a03fa905080600081146113ea576113ec565bfe5b508061142d576040517f08c379a0000000000000000000000000000000000000000000000000000000008152600401611424906120b2565b60405180910390fd5b505092915050565b61143d611beb565b611445611c27565b83600001518160006004811061145e5761145d611ebd565b5b6020020181815250508360200151816001600481106114805761147f611ebd565b5b6020020181815250508260000151816002600481106114a2576114a1611ebd565b5b6020020181815250508260200151816003600481106114c4576114c3611ebd565b5b602002018181525050600060608360c08460066107d05a03fa905080600081146114ed576114ef565bfe5b5080611530576040517f08c379a00000000000000000000000000000000000000000000000000000000081526004016115279061211e565b60405180910390fd5b505092915050565b611540611beb565b60007f30644e72e131a029b85045b68181585d97816a916871ca8d3c208c16d87cfd4790506000836000015114801561157d575060008360200151145b156115a15760405180604001604052806000815260200160008152509150506115d8565b6040518060400160405280846000015181526020018285602001516115c6919061216d565b836115d1919061219e565b8152509150505b919050565b600080600467ffffffffffffffff8111156115fb576115fa612037565b5b60405190808252806020026020018201604052801561163457816020015b611621611beb565b8152602001906001900390816116195790505b5090506000600467ffffffffffffffff81111561165457611653612037565b5b60405190808252806020026020018201604052801561168d57816020015b61167a611c49565b8152602001906001900390816116725790505b5090508a826000815181106116a5576116a4611ebd565b5b602002602001018190525088826001815181106116c5576116c4611ebd565b5b602002602001018190525086826002815181106116e5576116e4611ebd565b5b6020026020010181905250848260038151811061170557611704611ebd565b5b6020026020010181905250898160008151811061172557611724611ebd565b5b6020026020010181905250878160018151811061174557611744611ebd565b5b6020026020010181905250858160028151811061176557611764611ebd565b5b6020026020010181905250838160038151811061178557611784611ebd565b5b602002602001018190525061179a82826117aa565b9250505098975050505050505050565b600081518351146117f0576040517f08c379a00000000000000000000000000000000000000000000000000000000081526004016117e79061221e565b60405180910390fd5b6000835190506000600682611805919061223e565b905060008167ffffffffffffffff81111561182357611822612037565b5b6040519080825280602002602001820160405280156118515781602001602082028036833780820191505090505b50905060005b83811015611ad65786818151811061187257611871611ebd565b5b60200260200101516000015182600060068461188e919061223e565b6118989190611f98565b815181106118a9576118a8611ebd565b5b6020026020010181815250508681815181106118c8576118c7611ebd565b5b6020026020010151602001518260016006846118e4919061223e565b6118ee9190611f98565b815181106118ff576118fe611ebd565b5b60200260200101818152505085818151811061191e5761191d611ebd565b5b60200260200101516000015160006002811061193d5761193c611ebd565b5b6020020151826002600684611952919061223e565b61195c9190611f98565b8151811061196d5761196c611ebd565b5b60200260200101818152505085818151811061198c5761198b611ebd565b5b6020026020010151600001516001600281106119ab576119aa611ebd565b5b60200201518260036006846119c0919061223e565b6119ca9190611f98565b815181106119db576119da611ebd565b5b6020026020010181815250508581815181106119fa576119f9611ebd565b5b602002602001015160200151600060028110611a1957611a18611ebd565b5b6020020151826004600684611a2e919061223e565b611a389190611f98565b81518110611a4957611a48611ebd565b5b602002602001018181525050858181518110611a6857611a67611ebd565b5b602002602001015160200151600160028110611a8757611a86611ebd565b5b6020020151826005600684611a9c919061223e565b611aa69190611f98565b81518110611ab757611ab6611ebd565b5b6020026020010181815250508080611ace90611fee565b915050611857565b50611adf611c6f565b6000602082602086026020860160086107d05a03fa90508060008114611b0457611b06565bfe5b5080611b47576040517f08c379a0000000000000000000000000000000000000000000000000000000008152600401611b3e906122e4565b60405180910390fd5b600082600060018110611b5d57611b5c611ebd565b5b602002015114159550505050505092915050565b6040518060600160405280611b84611beb565b8152602001611b91611c49565b8152602001611b9e611beb565b81525090565b6040518060a00160405280611bb7611beb565b8152602001611bc4611c49565b8152602001611bd1611c49565b8152602001611bde611c49565b8152602001606081525090565b604051806040016040528060008152602001600081525090565b6040518060600160405280600390602082028036833780820191505090505090565b6040518060800160405280600490602082028036833780820191505090505090565b6040518060400160405280611c5c611c91565b8152602001611c69611c91565b81525090565b6040518060200160405280600190602082028036833780820191505090505090565b6040518060400160405280600290602082028036833780820191505090505090565b600080fd5b600080fd5b600060ff82169050919050565b611cd381611cbd565b8114611cde57600080fd5b50565b600081359050611cf081611cca565b92915050565b600080fd5b600081905082602060020282011115611d1757611d16611cf6565b5b92915050565b600081905082604060020282011115611d3957611d38611cf6565b5b92915050565b600080fd5b600080fd5b60008083601f840112611d5f57611d5e611d3f565b5b8235905067ffffffffffffffff811115611d7c57611d7b611d44565b5b602083019150836020820283011115611d9857611d97611cf6565b5b9250929050565b6000819050919050565b611db281611d9f565b8114611dbd57600080fd5b50565b600081359050611dcf81611da9565b92915050565b6000806000806000806000610160888a031215611df557611df4611cb3565b5b6000611e038a828b01611ce1565b9750506020611e148a828b01611cfb565b9650506060611e258a828b01611d1d565b95505060e0611e368a828b01611cfb565b94505061012088013567ffffffffffffffff811115611e5857611e57611cb8565b5b611e648a828b01611d49565b9350935050610140611e788a828b01611dc0565b91505092959891949750929550565b60008115159050919050565b611e9c81611e87565b82525050565b6000602082019050611eb76000830184611e93565b92915050565b7f4e487b7100000000000000000000000000000000000000000000000000000000600052603260045260246000fd5b600082825260208201905092915050565b7f76657269666965722d6774652d736e61726b2d7363616c61722d6669656c6400600082015250565b6000611f33601f83611eec565b9150611f3e82611efd565b602082019050919050565b60006020820190508181036000830152611f6281611f26565b9050919050565b7f4e487b7100000000000000000000000000000000000000000000000000000000600052601160045260246000fd5b6000611fa382611d9f565b9150611fae83611d9f565b9250827fffffffffffffffffffffffffffffffffffffffffffffffffffffffffffffffff03821115611fe357611fe2611f69565b5b828201905092915050565b6000611ff982611d9f565b91507fffffffffffffffffffffffffffffffffffffffffffffffffffffffffffffffff82141561202c5761202b611f69565b5b600182019050919050565b7f4e487b7100000000000000000000000000000000000000000000000000000000600052604160045260246000fd5b7f70616972696e672d6d756c2d6661696c65640000000000000000000000000000600082015250565b600061209c601283611eec565b91506120a782612066565b602082019050919050565b600060208201905081810360008301526120cb8161208f565b9050919050565b7f70616972696e672d6164642d6661696c65640000000000000000000000000000600082015250565b6000612108601283611eec565b9150612113826120d2565b602082019050919050565b60006020820190508181036000830152612137816120fb565b9050919050565b7f4e487b7100000000000000000000000000000000000000000000000000000000600052601260045260246000fd5b600061217882611d9f565b915061218383611d9f565b9250826121935761219261213e565b5b828206905092915050565b60006121a982611d9f565b91506121b483611d9f565b9250828210156121c7576121c6611f69565b5b828203905092915050565b7f70616972696e672d6c656e677468732d6661696c656400000000000000000000600082015250565b6000612208601683611eec565b9150612213826121d2565b602082019050919050565b60006020820190508181036000830152612237816121fb565b9050919050565b600061224982611d9f565b915061225483611d9f565b9250817fffffffffffffffffffffffffffffffffffffffffffffffffffffffffffffffff048311821515161561228d5761228c611f69565b5b828202905092915050565b7f70616972696e672d6f70636f64652d6661696c65640000000000000000000000600082015250565b60006122ce601583611eec565b91506122d982612298565b602082019050919050565b600060208201905081810360008301526122fd816122c1565b905091905056fea26469706673582212202b1d0d646995cc167c44d72ac5fa03250708ecc2b38b202031138e2f0e11eb6564736f6c63430008090033",
  "linkReferences": {},
  "deployedLinkReferences": {}
}