{
  "_format": "hh-sol-artifact-1",
  "contractName": "Credentials",
  "sourceName": "contracts/Credentials.sol",
  "abi": [
    {
      "inputs": [],
      "stateMutability": "nonpayable",
      "type": "constructor"
    },
    {
      "anonymous": false,
      "inputs": [
        {
          "indexed": true,
          "internalType": "address",
          "name": "owner",
          "type": "address"
        },
        {
          "indexed": true,
          "internalType": "address",
          "name": "approved",
          "type": "address"
        },
        {
          "indexed": true,
          "internalType": "uint256",
          "name": "tokenId",
          "type": "uint256"
        }
      ],
      "name": "Approval",
      "type": "event"
    },
    {
      "anonymous": false,
      "inputs": [
        {
          "indexed": true,
          "internalType": "address",
          "name": "owner",
          "type": "address"
        },
        {
          "indexed": true,
          "internalType": "address",
          "name": "operator",
          "type": "address"
        },
        {
          "indexed": false,
          "internalType": "bool",
          "name": "approved",
          "type": "bool"
        }
      ],
      "name": "ApprovalForAll",
      "type": "event"
    },
    {
      "anonymous": false,
      "inputs": [
        {
          "indexed": true,
          "internalType": "address",
          "name": "previousOwner",
          "type": "address"
        },
        {
          "indexed": true,
          "internalType": "address",
          "name": "newOwner",
          "type": "address"
        }
      ],
      "name": "OwnershipTransferred",
      "type": "event"
    },
    {
      "anonymous": false,
      "inputs": [
        {
          "indexed": true,
          "internalType": "address",
          "name": "from",
          "type": "address"
        },
        {
          "indexed": true,
          "internalType": "address",
          "name": "to",
          "type": "address"
        },
        {
          "indexed": true,
          "internalType": "uint256",
          "name": "tokenId",
          "type": "uint256"
        }
      ],
      "name": "Transfer",
      "type": "event"
    },
    {
      "inputs": [
        {
          "internalType": "address",
          "name": "",
          "type": "address"
        },
        {
          "internalType": "uint256",
          "name": "",
          "type": "uint256"
        }
      ],
      "name": "approve",
      "outputs": [],
      "stateMutability": "view",
      "type": "function"
    },
    {
      "inputs": [
        {
          "internalType": "address",
          "name": "_owner",
          "type": "address"
        }
      ],
      "name": "balanceOf",
      "outputs": [
        {
          "internalType": "uint256",
          "name": "",
          "type": "uint256"
        }
      ],
      "stateMutability": "view",
      "type": "function"
    },
    {
      "inputs": [
        {
          "internalType": "uint256",
          "name": "testId",
          "type": "uint256"
        }
      ],
      "name": "credentialReceivers",
      "outputs": [
        {
          "internalType": "address[]",
          "name": "",
          "type": "address[]"
        }
      ],
      "stateMutability": "view",
      "type": "function"
    },
    {
      "inputs": [
        {
          "internalType": "uint256",
          "name": "",
          "type": "uint256"
        }
      ],
      "name": "getApproved",
      "outputs": [
        {
          "internalType": "address",
          "name": "",
          "type": "address"
        }
      ],
      "stateMutability": "view",
      "type": "function"
    },
    {
      "inputs": [
        {
          "internalType": "uint256",
          "name": "testId",
          "type": "uint256"
        }
      ],
      "name": "getCredential",
      "outputs": [
        {
          "internalType": "string",
          "name": "",
          "type": "string"
        }
      ],
      "stateMutability": "view",
      "type": "function"
    },
    {
      "inputs": [
        {
          "internalType": "uint256",
          "name": "testId",
          "type": "uint256"
        }
      ],
      "name": "getCredentialType",
      "outputs": [
        {
          "internalType": "uint8",
          "name": "",
          "type": "uint8"
        }
      ],
      "stateMutability": "view",
      "type": "function"
    },
    {
      "inputs": [
        {
          "internalType": "address",
          "name": "receiver",
          "type": "address"
        },
        {
          "internalType": "uint256",
          "name": "testId",
          "type": "uint256"
        }
      ],
      "name": "getResults",
      "outputs": [
        {
          "internalType": "uint256",
          "name": "",
          "type": "uint256"
        }
      ],
      "stateMutability": "view",
      "type": "function"
    },
    {
      "inputs": [
        {
          "internalType": "address",
          "name": "receiver",
          "type": "address"
        },
        {
          "internalType": "uint256",
          "name": "testId",
          "type": "uint256"
        },
        {
          "internalType": "uint256",
          "name": "results",
          "type": "uint256"
        }
      ],
      "name": "giveCredentials",
      "outputs": [],
      "stateMutability": "nonpayable",
      "type": "function"
    },
    {
      "inputs": [
        {
          "internalType": "address",
          "name": "",
          "type": "address"
        },
        {
          "internalType": "address",
          "name": "",
          "type": "address"
        }
      ],
      "name": "isApprovedForAll",
      "outputs": [
        {
          "internalType": "bool",
          "name": "",
          "type": "bool"
        }
      ],
      "stateMutability": "view",
      "type": "function"
    },
    {
      "inputs": [],
      "name": "name",
      "outputs": [
        {
          "internalType": "string",
          "name": "",
          "type": "string"
        }
      ],
      "stateMutability": "view",
      "type": "function"
    },
    {
      "inputs": [],
      "name": "owner",
      "outputs": [
        {
          "internalType": "address",
          "name": "",
          "type": "address"
        }
      ],
      "stateMutability": "view",
      "type": "function"
    },
    {
      "inputs": [
        {
          "internalType": "uint256",
          "name": "testId",
          "type": "uint256"
        }
      ],
      "name": "ownerOf",
      "outputs": [
        {
          "internalType": "address",
          "name": "",
          "type": "address"
        }
      ],
      "stateMutability": "view",
      "type": "function"
    },
    {
      "inputs": [
        {
          "internalType": "address",
          "name": "receiver",
          "type": "address"
        }
      ],
      "name": "receivedCredentials",
      "outputs": [
        {
          "internalType": "uint256[]",
          "name": "",
          "type": "uint256[]"
        }
      ],
      "stateMutability": "view",
      "type": "function"
    },
    {
      "inputs": [],
      "name": "renounceOwnership",
      "outputs": [],
      "stateMutability": "nonpayable",
      "type": "function"
    },
    {
      "inputs": [
        {
          "internalType": "address",
          "name": "from",
          "type": "address"
        },
        {
          "internalType": "address",
          "name": "to",
          "type": "address"
        },
        {
          "internalType": "uint256",
          "name": "testId",
          "type": "uint256"
        }
      ],
      "name": "safeTransferFrom",
      "outputs": [],
      "stateMutability": "nonpayable",
      "type": "function"
    },
    {
      "inputs": [
        {
          "internalType": "address",
          "name": "",
          "type": "address"
        },
        {
          "internalType": "address",
          "name": "",
          "type": "address"
        },
        {
          "internalType": "uint256",
          "name": "",
          "type": "uint256"
        },
        {
          "internalType": "bytes",
          "name": "",
          "type": "bytes"
        }
      ],
      "name": "safeTransferFrom",
      "outputs": [],
      "stateMutability": "view",
      "type": "function"
    },
    {
      "inputs": [
        {
          "internalType": "address",
          "name": "",
          "type": "address"
        },
        {
          "internalType": "bool",
          "name": "",
          "type": "bool"
        }
      ],
      "name": "setApprovalForAll",
      "outputs": [],
      "stateMutability": "view",
      "type": "function"
    },
    {
      "inputs": [
        {
          "internalType": "bytes4",
          "name": "interfaceId",
          "type": "bytes4"
        }
      ],
      "name": "supportsInterface",
      "outputs": [
        {
          "internalType": "bool",
          "name": "",
          "type": "bool"
        }
      ],
      "stateMutability": "view",
      "type": "function"
    },
    {
      "inputs": [],
      "name": "symbol",
      "outputs": [
        {
          "internalType": "string",
          "name": "",
          "type": "string"
        }
      ],
      "stateMutability": "view",
      "type": "function"
    },
    {
      "inputs": [
        {
          "internalType": "uint256",
          "name": "index",
          "type": "uint256"
        }
      ],
      "name": "tokenByIndex",
      "outputs": [
        {
          "internalType": "uint256",
          "name": "",
          "type": "uint256"
        }
      ],
      "stateMutability": "view",
      "type": "function"
    },
    {
      "inputs": [
        {
          "internalType": "address",
          "name": "_owner",
          "type": "address"
        },
        {
          "internalType": "uint256",
          "name": "index",
          "type": "uint256"
        }
      ],
      "name": "tokenOfOwnerByIndex",
      "outputs": [
        {
          "internalType": "uint256",
          "name": "",
          "type": "uint256"
        }
      ],
      "stateMutability": "view",
      "type": "function"
    },
    {
      "inputs": [
        {
          "internalType": "uint256",
          "name": "testId",
          "type": "uint256"
        }
      ],
      "name": "tokenURI",
      "outputs": [
        {
          "internalType": "string",
          "name": "",
          "type": "string"
        }
      ],
      "stateMutability": "view",
      "type": "function"
    },
    {
      "inputs": [],
      "name": "totalSupply",
      "outputs": [
        {
          "internalType": "uint256",
          "name": "count",
          "type": "uint256"
        }
      ],
      "stateMutability": "view",
      "type": "function"
    },
    {
      "inputs": [
        {
          "internalType": "address",
          "name": "",
          "type": "address"
        },
        {
          "internalType": "address",
          "name": "",
          "type": "address"
        },
        {
          "internalType": "uint256",
          "name": "",
          "type": "uint256"
        }
      ],
      "name": "transferFrom",
      "outputs": [],
      "stateMutability": "view",
      "type": "function"
    },
    {
      "inputs": [
        {
          "internalType": "address",
          "name": "newOwner",
          "type": "address"
        }
      ],
      "name": "transferOwnership",
      "outputs": [],
      "stateMutability": "nonpayable",
      "type": "function"
    }
  ],
  "bytecode": "0x60806040526040518060400160405280601f81526020017f4251433a2063616e6e6f7420617070726f76652063726564656e7469616c730081525060029080519060200190620000519291906200039f565b506040518060400160405280602081526020017f4251433a2063616e6e6f74207472616e736665722063726564656e7469616c73815250600390805190602001906200009f9291906200039f565b50348015620000ad57600080fd5b50620000ce620000c2620001f960201b60201c565b6200020160201b60201c565b6040518060400160405280601b81526020017f426c6f636b205175616c69666965642043726564656e7469616c730000000000815250600890805190602001906200011b9291906200039f565b506040518060400160405280600381526020017f425143000000000000000000000000000000000000000000000000000000000081525060099080519060200190620001699291906200039f565b5033600460006101000a81548173ffffffffffffffffffffffffffffffffffffffff021916908373ffffffffffffffffffffffffffffffffffffffff160217905550620001c36380ac58cd60e01b620002c760201b60201c565b620001db635b5e139f60e01b620002c760201b60201c565b620001f363780e9d6360e01b620002c760201b60201c565b62000537565b600033905090565b6000600160009054906101000a900473ffffffffffffffffffffffffffffffffffffffff16905081600160006101000a81548173ffffffffffffffffffffffffffffffffffffffff021916908373ffffffffffffffffffffffffffffffffffffffff1602179055508173ffffffffffffffffffffffffffffffffffffffff168173ffffffffffffffffffffffffffffffffffffffff167f8be0079c531659141344cd1fd0a4f28419497f9722a3daafe3b4186f6b6457e060405160405180910390a35050565b63ffffffff60e01b817bffffffffffffffffffffffffffffffffffffffffffffffffffffffff1916141562000333576040517f08c379a00000000000000000000000000000000000000000000000000000000081526004016200032a90620004b0565b60405180910390fd5b6001600080837bffffffffffffffffffffffffffffffffffffffffffffffffffffffff19167bffffffffffffffffffffffffffffffffffffffffffffffffffffffff1916815260200190815260200160002060006101000a81548160ff02191690831515021790555050565b828054620003ad9062000501565b90600052602060002090601f016020900481019282620003d157600085556200041d565b82601f10620003ec57805160ff19168380011785556200041d565b828001600101855582156200041d579182015b828111156200041c578251825591602001919060010190620003ff565b5b5090506200042c919062000430565b5090565b5b808211156200044b57600081600090555060010162000431565b5090565b600082825260208201905092915050565b7f4552433136353a20696e76616c696420696e7465726661636520696400000000600082015250565b600062000498601c836200044f565b9150620004a58262000460565b602082019050919050565b60006020820190508181036000830152620004cb8162000489565b9050919050565b7f4e487b7100000000000000000000000000000000000000000000000000000000600052602260045260246000fd5b600060028204905060018216806200051a57607f821691505b60208210811415620005315762000530620004d2565b5b50919050565b6127cd80620005476000396000f3fe608060405234801561001057600080fd5b50600436106101735760003560e01c80636352211e116100de578063a22cb46511610097578063e985e9c511610071578063e985e9c514610482578063f2fde38b146104b2578063f34071da146104ce578063ff4236f8146104fe57610173565b8063a22cb4651461041a578063b88d4fde14610436578063c87b56dd1461045257610173565b80636352211e1461034457806370a0823114610374578063715018a6146103a45780638da5cb5b146103ae5780638dd18d2d146103cc57806395d89b41146103fc57610173565b806323b872dd1161013057806323b872dd1461026057806329edae3a1461027c5780632f745c59146102ac57806332cbe31c146102dc57806342842e0e146102f85780634f6ccce71461031457610173565b806301ffc9a714610178578063061e4dde146101a857806306fdde03146101d8578063081812fc146101f6578063095ea7b31461022657806318160ddd14610242575b600080fd5b610192600480360381019061018d91906117d7565b61052e565b60405161019f919061181f565b60405180910390f35b6101c260048036038101906101bd9190611898565b6105a5565b6040516101cf919061198d565b60405180910390f35b6101e06105f5565b6040516101ed9190611a48565b60405180910390f35b610210600480360381019061020b9190611a96565b610687565b60405161021d9190611ad2565b60405180910390f35b610240600480360381019061023b9190611aed565b61068e565b005b61024a6106cc565b6040516102579190611b3c565b60405180910390f35b61027a60048036038101906102759190611b57565b61086a565b005b61029660048036038101906102919190611aed565b6108a8565b6040516102a39190611b3c565b60405180910390f35b6102c660048036038101906102c19190611aed565b610903565b6040516102d39190611b3c565b60405180910390f35b6102f660048036038101906102f19190611baa565b6109a8565b005b610312600480360381019061030d9190611b57565b610b55565b005b61032e60048036038101906103299190611a96565b610b75565b60405161033b9190611b3c565b60405180910390f35b61035e60048036038101906103599190611a96565b610c29565b60405161036b9190611ad2565b60405180910390f35b61038e60048036038101906103899190611898565b610cdd565b60405161039b9190611b3c565b60405180910390f35b6103ac610d9c565b005b6103b6610db0565b6040516103c39190611ad2565b60405180910390f35b6103e660048036038101906103e19190611a96565b610dda565b6040516103f39190611a48565b60405180910390f35b610404610f82565b6040516104119190611a48565b60405180910390f35b610434600480360381019061042f9190611c29565b611014565b005b610450600480360381019061044b9190611d9e565b611052565b005b61046c60048036038101906104679190611a96565b611090565b6040516104799190611a48565b60405180910390f35b61049c60048036038101906104979190611e21565b611149565b6040516104a9919061181f565b60405180910390f35b6104cc60048036038101906104c79190611898565b611151565b005b6104e860048036038101906104e39190611a96565b6111d5565b6040516104f59190611f1f565b60405180910390f35b61051860048036038101906105139190611a96565b6111f9565b6040516105259190611f5d565b60405180910390f35b6000610539826113a0565b8061059e5750600080837bffffffffffffffffffffffffffffffffffffffffffffffffffffffff19167bffffffffffffffffffffffffffffffffffffffffffffffffffffffff1916815260200190815260200160002060009054906101000a900460ff165b9050919050565b60606105ee600560008473ffffffffffffffffffffffffffffffffffffffff1673ffffffffffffffffffffffffffffffffffffffff16815260200190815260200160002061140a565b9050919050565b60606008805461060490611fa7565b80601f016020809104026020016040519081016040528092919081815260200182805461063090611fa7565b801561067d5780601f106106525761010080835404028352916020019161067d565b820191906000526020600020905b81548152906001019060200180831161066057829003601f168201915b5050505050905090565b6000919050565b60026040517f08c379a00000000000000000000000000000000000000000000000000000000081526004016106c3919061206e565b60405180910390fd5b600080600460009054906101000a900473ffffffffffffffffffffffffffffffffffffffff1673ffffffffffffffffffffffffffffffffffffffff166318160ddd6040518163ffffffff1660e01b815260040160206040518083038186803b15801561073757600080fd5b505afa15801561074b573d6000803e3d6000fd5b505050506040513d601f19601f8201168201806040525081019061076f91906120a5565b905060005b81811015610865576000600460009054906101000a900473ffffffffffffffffffffffffffffffffffffffff1673ffffffffffffffffffffffffffffffffffffffff16634f6ccce7836040518263ffffffff1660e01b81526004016107d99190611b3c565b60206040518083038186803b1580156107f157600080fd5b505afa158015610805573d6000803e3d6000fd5b505050506040513d601f19601f8201168201806040525081019061082991906120a5565b90506108466007600083815260200190815260200160002061142b565b846108519190612101565b9350508061085e90612157565b9050610774565b505090565b60036040517f08c379a000000000000000000000000000000000000000000000000000000000815260040161089f919061206e565b60405180910390fd5b60006006600083815260200190815260200160002060008473ffffffffffffffffffffffffffffffffffffffff1673ffffffffffffffffffffffffffffffffffffffff16815260200190815260200160002054905092915050565b600061090e83610cdd565b821061094f576040517f08c379a0000000000000000000000000000000000000000000000000000000008152600401610946906121ec565b60405180910390fd5b6109a082600560008673ffffffffffffffffffffffffffffffffffffffff1673ffffffffffffffffffffffffffffffffffffffff16815260200190815260200160002061144090919063ffffffff16565b905092915050565b6109b061145a565b806006600084815260200190815260200160002060008573ffffffffffffffffffffffffffffffffffffffff1673ffffffffffffffffffffffffffffffffffffffff16815260200190815260200160002081905550610a5682600560008673ffffffffffffffffffffffffffffffffffffffff1673ffffffffffffffffffffffffffffffffffffffff1681526020019081526020016000206114d890919063ffffffff16565b610b5057610aab82600560008673ffffffffffffffffffffffffffffffffffffffff1673ffffffffffffffffffffffffffffffffffffffff1681526020019081526020016000206114f290919063ffffffff16565b50610ad1836007600085815260200190815260200160002061150c90919063ffffffff16565b50818373ffffffffffffffffffffffffffffffffffffffff16600460009054906101000a900473ffffffffffffffffffffffffffffffffffffffff1673ffffffffffffffffffffffffffffffffffffffff167fddf252ad1be2c89b69c2b068fc378daa952ba7f163c4a11628f55a4df523b3ef60405160405180910390a45b505050565b610b7083838360405180602001604052806000815250611052565b505050565b6000600460009054906101000a900473ffffffffffffffffffffffffffffffffffffffff1673ffffffffffffffffffffffffffffffffffffffff16634f6ccce7836040518263ffffffff1660e01b8152600401610bd29190611b3c565b60206040518083038186803b158015610bea57600080fd5b505afa158015610bfe573d6000803e3d6000fd5b505050506040513d601f19601f82011682018060405250810190610c2291906120a5565b9050919050565b6000600460009054906101000a900473ffffffffffffffffffffffffffffffffffffffff1673ffffffffffffffffffffffffffffffffffffffff16636352211e836040518263ffffffff1660e01b8152600401610c869190611b3c565b60206040518083038186803b158015610c9e57600080fd5b505afa158015610cb2573d6000803e3d6000fd5b505050506040513d601f19601f82011682018060405250810190610cd69190612221565b9050919050565b60008073ffffffffffffffffffffffffffffffffffffffff168273ffffffffffffffffffffffffffffffffffffffff161415610d4e576040517f08c379a0000000000000000000000000000000000000000000000000000000008152600401610d45906122c0565b60405180910390fd5b610d95600560008473ffffffffffffffffffffffffffffffffffffffff1673ffffffffffffffffffffffffffffffffffffffff16815260200190815260200160002061153c565b9050919050565b610da461145a565b610dae6000611551565b565b6000600160009054906101000a900473ffffffffffffffffffffffffffffffffffffffff16905090565b6060600460009054906101000a900473ffffffffffffffffffffffffffffffffffffffff1673ffffffffffffffffffffffffffffffffffffffff1663d8b05250836040518263ffffffff1660e01b8152600401610e379190611b3c565b60206040518083038186803b158015610e4f57600080fd5b505afa158015610e63573d6000803e3d6000fd5b505050506040513d601f19601f82011682018060405250810190610e8791906122f5565b610ec6576040517f08c379a0000000000000000000000000000000000000000000000000000000008152600401610ebd9061236e565b60405180910390fd5b600460009054906101000a900473ffffffffffffffffffffffffffffffffffffffff1673ffffffffffffffffffffffffffffffffffffffff1663edef019d836040518263ffffffff1660e01b8152600401610f219190611b3c565b60006040518083038186803b158015610f3957600080fd5b505afa158015610f4d573d6000803e3d6000fd5b505050506040513d6000823e3d601f19601f82011682018060405250810190610f7691906125d8565b61010001519050919050565b606060098054610f9190611fa7565b80601f0160208091040260200160405190810160405280929190818152602001828054610fbd90611fa7565b801561100a5780601f10610fdf5761010080835404028352916020019161100a565b820191906000526020600020905b815481529060010190602001808311610fed57829003601f168201915b5050505050905090565b60026040517f08c379a0000000000000000000000000000000000000000000000000000000008152600401611049919061206e565b60405180910390fd5b60036040517f08c379a0000000000000000000000000000000000000000000000000000000008152600401611087919061206e565b60405180910390fd5b6060600460009054906101000a900473ffffffffffffffffffffffffffffffffffffffff1673ffffffffffffffffffffffffffffffffffffffff1663c87b56dd836040518263ffffffff1660e01b81526004016110ed9190611b3c565b60006040518083038186803b15801561110557600080fd5b505afa158015611119573d6000803e3d6000fd5b505050506040513d6000823e3d601f19601f820116820180604052508101906111429190612621565b9050919050565b600092915050565b61115961145a565b600073ffffffffffffffffffffffffffffffffffffffff168173ffffffffffffffffffffffffffffffffffffffff1614156111c9576040517f08c379a00000000000000000000000000000000000000000000000000000000081526004016111c0906126dc565b60405180910390fd5b6111d281611551565b50565b60606111f260076000848152602001908152602001600020611617565b9050919050565b6000600460009054906101000a900473ffffffffffffffffffffffffffffffffffffffff1673ffffffffffffffffffffffffffffffffffffffff1663d8b05250836040518263ffffffff1660e01b81526004016112569190611b3c565b60206040518083038186803b15801561126e57600080fd5b505afa158015611282573d6000803e3d6000fd5b505050506040513d601f19601f820116820180604052508101906112a691906122f5565b6112e5576040517f08c379a00000000000000000000000000000000000000000000000000000000081526004016112dc9061236e565b60405180910390fd5b600460009054906101000a900473ffffffffffffffffffffffffffffffffffffffff1673ffffffffffffffffffffffffffffffffffffffff1663edef019d836040518263ffffffff1660e01b81526004016113409190611b3c565b60006040518083038186803b15801561135857600080fd5b505afa15801561136c573d6000803e3d6000fd5b505050506040513d6000823e3d601f19601f8201168201806040525081019061139591906125d8565b600001519050919050565b60007f01ffc9a7000000000000000000000000000000000000000000000000000000007bffffffffffffffffffffffffffffffffffffffffffffffffffffffff1916827bffffffffffffffffffffffffffffffffffffffffffffffffffffffff1916149050919050565b6060600061141a83600001611638565b905060608190508092505050919050565b600061143982600001611694565b9050919050565b600061144f83600001836116a5565b60001c905092915050565b6114626116d0565b73ffffffffffffffffffffffffffffffffffffffff16611480610db0565b73ffffffffffffffffffffffffffffffffffffffff16146114d6576040517f08c379a00000000000000000000000000000000000000000000000000000000081526004016114cd90612748565b60405180910390fd5b565b60006114ea836000018360001b6116d8565b905092915050565b6000611504836000018360001b6116fb565b905092915050565b6000611534836000018373ffffffffffffffffffffffffffffffffffffffff1660001b6116fb565b905092915050565b600061154a82600001611694565b9050919050565b6000600160009054906101000a900473ffffffffffffffffffffffffffffffffffffffff16905081600160006101000a81548173ffffffffffffffffffffffffffffffffffffffff021916908373ffffffffffffffffffffffffffffffffffffffff1602179055508173ffffffffffffffffffffffffffffffffffffffff168173ffffffffffffffffffffffffffffffffffffffff167f8be0079c531659141344cd1fd0a4f28419497f9722a3daafe3b4186f6b6457e060405160405180910390a35050565b6060600061162783600001611638565b905060608190508092505050919050565b60608160000180548060200260200160405190810160405280929190818152602001828054801561168857602002820191906000526020600020905b815481526020019060010190808311611674575b50505050509050919050565b600081600001805490509050919050565b60008260000182815481106116bd576116bc612768565b5b9060005260206000200154905092915050565b600033905090565b600080836001016000848152602001908152602001600020541415905092915050565b600061170783836116d8565b611760578260000182908060018154018082558091505060019003906000526020600020016000909190919091505582600001805490508360010160008481526020019081526020016000208190555060019050611765565b600090505b92915050565b6000604051905090565b600080fd5b600080fd5b60007fffffffff0000000000000000000000000000000000000000000000000000000082169050919050565b6117b48161177f565b81146117bf57600080fd5b50565b6000813590506117d1816117ab565b92915050565b6000602082840312156117ed576117ec611775565b5b60006117fb848285016117c2565b91505092915050565b60008115159050919050565b61181981611804565b82525050565b60006020820190506118346000830184611810565b92915050565b600073ffffffffffffffffffffffffffffffffffffffff82169050919050565b60006118658261183a565b9050919050565b6118758161185a565b811461188057600080fd5b50565b6000813590506118928161186c565b92915050565b6000602082840312156118ae576118ad611775565b5b60006118bc84828501611883565b91505092915050565b600081519050919050565b600082825260208201905092915050565b6000819050602082019050919050565b6000819050919050565b611904816118f1565b82525050565b600061191683836118fb565b60208301905092915050565b6000602082019050919050565b600061193a826118c5565b61194481856118d0565b935061194f836118e1565b8060005b83811015611980578151611967888261190a565b975061197283611922565b925050600181019050611953565b5085935050505092915050565b600060208201905081810360008301526119a7818461192f565b905092915050565b600081519050919050565b600082825260208201905092915050565b60005b838110156119e95780820151818401526020810190506119ce565b838111156119f8576000848401525b50505050565b6000601f19601f8301169050919050565b6000611a1a826119af565b611a2481856119ba565b9350611a348185602086016119cb565b611a3d816119fe565b840191505092915050565b60006020820190508181036000830152611a628184611a0f565b905092915050565b611a73816118f1565b8114611a7e57600080fd5b50565b600081359050611a9081611a6a565b92915050565b600060208284031215611aac57611aab611775565b5b6000611aba84828501611a81565b91505092915050565b611acc8161185a565b82525050565b6000602082019050611ae76000830184611ac3565b92915050565b60008060408385031215611b0457611b03611775565b5b6000611b1285828601611883565b9250506020611b2385828601611a81565b9150509250929050565b611b36816118f1565b82525050565b6000602082019050611b516000830184611b2d565b92915050565b600080600060608486031215611b7057611b6f611775565b5b6000611b7e86828701611883565b9350506020611b8f86828701611883565b9250506040611ba086828701611a81565b9150509250925092565b600080600060608486031215611bc357611bc2611775565b5b6000611bd186828701611883565b9350506020611be286828701611a81565b9250506040611bf386828701611a81565b9150509250925092565b611c0681611804565b8114611c1157600080fd5b50565b600081359050611c2381611bfd565b92915050565b60008060408385031215611c4057611c3f611775565b5b6000611c4e85828601611883565b9250506020611c5f85828601611c14565b9150509250929050565b600080fd5b600080fd5b7f4e487b7100000000000000000000000000000000000000000000000000000000600052604160045260246000fd5b611cab826119fe565b810181811067ffffffffffffffff82111715611cca57611cc9611c73565b5b80604052505050565b6000611cdd61176b565b9050611ce98282611ca2565b919050565b600067ffffffffffffffff821115611d0957611d08611c73565b5b611d12826119fe565b9050602081019050919050565b82818337600083830152505050565b6000611d41611d3c84611cee565b611cd3565b905082815260208101848484011115611d5d57611d5c611c6e565b5b611d68848285611d1f565b509392505050565b600082601f830112611d8557611d84611c69565b5b8135611d95848260208601611d2e565b91505092915050565b60008060008060808587031215611db857611db7611775565b5b6000611dc687828801611883565b9450506020611dd787828801611883565b9350506040611de887828801611a81565b925050606085013567ffffffffffffffff811115611e0957611e0861177a565b5b611e1587828801611d70565b91505092959194509250565b60008060408385031215611e3857611e37611775565b5b6000611e4685828601611883565b9250506020611e5785828601611883565b9150509250929050565b600081519050919050565b600082825260208201905092915050565b6000819050602082019050919050565b611e968161185a565b82525050565b6000611ea88383611e8d565b60208301905092915050565b6000602082019050919050565b6000611ecc82611e61565b611ed68185611e6c565b9350611ee183611e7d565b8060005b83811015611f12578151611ef98882611e9c565b9750611f0483611eb4565b925050600181019050611ee5565b5085935050505092915050565b60006020820190508181036000830152611f398184611ec1565b905092915050565b600060ff82169050919050565b611f5781611f41565b82525050565b6000602082019050611f726000830184611f4e565b92915050565b7f4e487b7100000000000000000000000000000000000000000000000000000000600052602260045260246000fd5b60006002820490506001821680611fbf57607f821691505b60208210811415611fd357611fd2611f78565b5b50919050565b60008190508160005260206000209050919050565b60008154611ffb81611fa7565b61200581866119ba565b94506001821660008114612020576001811461203257612065565b60ff1983168652602086019350612065565b61203b85611fd9565b60005b8381101561205d5781548189015260018201915060208101905061203e565b808801955050505b50505092915050565b600060208201905081810360008301526120888184611fee565b905092915050565b60008151905061209f81611a6a565b92915050565b6000602082840312156120bb576120ba611775565b5b60006120c984828501612090565b91505092915050565b7f4e487b7100000000000000000000000000000000000000000000000000000000600052601160045260246000fd5b600061210c826118f1565b9150612117836118f1565b9250827fffffffffffffffffffffffffffffffffffffffffffffffffffffffffffffffff0382111561214c5761214b6120d2565b5b828201905092915050565b6000612162826118f1565b91507fffffffffffffffffffffffffffffffffffffffffffffffffffffffffffffffff821415612195576121946120d2565b5b600182019050919050565b7f496e646578206f7574206f6620626f756e647300000000000000000000000000600082015250565b60006121d66013836119ba565b91506121e1826121a0565b602082019050919050565b60006020820190508181036000830152612205816121c9565b9050919050565b60008151905061221b8161186c565b92915050565b60006020828403121561223757612236611775565b5b60006122458482850161220c565b91505092915050565b7f4552433732313a2062616c616e636520717565727920666f7220746865207a6560008201527f726f206164647265737300000000000000000000000000000000000000000000602082015250565b60006122aa602a836119ba565b91506122b58261224e565b604082019050919050565b600060208201905081810360008301526122d98161229d565b9050919050565b6000815190506122ef81611bfd565b92915050565b60006020828403121561230b5761230a611775565b5b6000612319848285016122e0565b91505092915050565b7f7465737420646f6573206e6f7420657869737400000000000000000000000000600082015250565b60006123586013836119ba565b915061236382612322565b602082019050919050565b600060208201905081810360008301526123878161234b565b9050919050565b600080fd5b600080fd5b6123a181611f41565b81146123ac57600080fd5b50565b6000815190506123be81612398565b92915050565b600062ffffff82169050919050565b6123dc816123c4565b81146123e757600080fd5b50565b6000815190506123f9816123d3565b92915050565b600063ffffffff82169050919050565b612418816123ff565b811461242357600080fd5b50565b6000815190506124358161240f565b92915050565b600067ffffffffffffffff82111561245657612455611c73565b5b61245f826119fe565b9050602081019050919050565b600061247f61247a8461243b565b611cd3565b90508281526020810184848401111561249b5761249a611c6e565b5b6124a68482856119cb565b509392505050565b600082601f8301126124c3576124c2611c69565b5b81516124d384826020860161246c565b91505092915050565b600061012082840312156124f3576124f261238e565b5b6124fe610120611cd3565b9050600061250e848285016123af565b6000830152506020612522848285016123af565b6020830152506040612536848285016123af565b604083015250606061254a848285016123ea565b606083015250608061255e848285016123ea565b60808301525060a061257284828501612426565b60a08301525060c06125868482850161220c565b60c08301525060e061259a84828501612090565b60e08301525061010082015167ffffffffffffffff8111156125bf576125be612393565b5b6125cb848285016124ae565b6101008301525092915050565b6000602082840312156125ee576125ed611775565b5b600082015167ffffffffffffffff81111561260c5761260b61177a565b5b612618848285016124dc565b91505092915050565b60006020828403121561263757612636611775565b5b600082015167ffffffffffffffff8111156126555761265461177a565b5b612661848285016124ae565b91505092915050565b7f4f776e61626c653a206e6577206f776e657220697320746865207a65726f206160008201527f6464726573730000000000000000000000000000000000000000000000000000602082015250565b60006126c66026836119ba565b91506126d18261266a565b604082019050919050565b600060208201905081810360008301526126f5816126b9565b9050919050565b7f4f776e61626c653a2063616c6c6572206973206e6f7420746865206f776e6572600082015250565b60006127326020836119ba565b915061273d826126fc565b602082019050919050565b6000602082019050818103600083015261276181612725565b9050919050565b7f4e487b7100000000000000000000000000000000000000000000000000000000600052603260045260246000fdfea26469706673582212201be4c2a4170e7174952d1220910e72f251737b1d66fd5b793fe7ed70afd23de064736f6c63430008090033",
  "linkReferences": {},
  "deployedLinkReferences": {}
}