{
  "_format": "hh-sol-artifact-1",
  "contractName": "TestCreator",
  "sourceName": "contracts/TestCreator.sol",
  "abi": [
    {
      "inputs": [],
      "stateMutability": "nonpayable",
      "type": "constructor"
    },
    {
      "anonymous": false,
      "inputs": [
        {
          "indexed": true,
          "internalType": "address",
          "name": "owner",
          "type": "address"
        },
        {
          "indexed": true,
          "internalType": "address",
          "name": "approved",
          "type": "address"
        },
        {
          "indexed": true,
          "internalType": "uint256",
          "name": "tokenId",
          "type": "uint256"
        }
      ],
      "name": "Approval",
      "type": "event"
    },
    {
      "anonymous": false,
      "inputs": [
        {
          "indexed": true,
          "internalType": "address",
          "name": "owner",
          "type": "address"
        },
        {
          "indexed": true,
          "internalType": "address",
          "name": "operator",
          "type": "address"
        },
        {
          "indexed": false,
          "internalType": "bool",
          "name": "approved",
          "type": "bool"
        }
      ],
      "name": "ApprovalForAll",
      "type": "event"
    },
    {
      "anonymous": false,
      "inputs": [
        {
          "indexed": true,
          "internalType": "address",
          "name": "previousOwner",
          "type": "address"
        },
        {
          "indexed": true,
          "internalType": "address",
          "name": "newOwner",
          "type": "address"
        }
      ],
      "name": "OwnershipTransferred",
      "type": "event"
    },
    {
      "anonymous": false,
      "inputs": [
        {
          "indexed": true,
          "internalType": "address",
          "name": "from",
          "type": "address"
        },
        {
          "indexed": true,
          "internalType": "address",
          "name": "to",
          "type": "address"
        },
        {
          "indexed": true,
          "internalType": "uint256",
          "name": "tokenId",
          "type": "uint256"
        }
      ],
      "name": "Transfer",
      "type": "event"
    },
    {
      "inputs": [
        {
          "internalType": "address",
          "name": "",
          "type": "address"
        },
        {
          "internalType": "uint256",
          "name": "",
          "type": "uint256"
        }
      ],
      "name": "approve",
      "outputs": [],
      "stateMutability": "view",
      "type": "function"
    },
    {
      "inputs": [
        {
          "internalType": "address",
          "name": "owner",
          "type": "address"
        }
      ],
      "name": "balanceOf",
      "outputs": [
        {
          "internalType": "uint256",
          "name": "",
          "type": "uint256"
        }
      ],
      "stateMutability": "view",
      "type": "function"
    },
    {
      "inputs": [
        {
          "internalType": "uint8",
          "name": "_testType",
          "type": "uint8"
        },
        {
          "internalType": "uint8",
          "name": "_nQuestions",
          "type": "uint8"
        },
        {
          "internalType": "uint8",
          "name": "_minimumGrade",
          "type": "uint8"
        },
        {
          "internalType": "uint24",
          "name": "_credentialLimit",
          "type": "uint24"
        },
        {
          "internalType": "uint32",
          "name": "_timeLimit",
          "type": "uint32"
        },
        {
          "internalType": "uint256[]",
          "name": "_solvingHashes",
          "type": "uint256[]"
        },
        {
          "internalType": "address",
          "name": "_requiredPass",
          "type": "address"
        },
        {
          "internalType": "string",
          "name": "_credentialsGained",
          "type": "string"
        },
        {
          "internalType": "string",
          "name": "_testURI",
          "type": "string"
        }
      ],
      "name": "createTest",
      "outputs": [],
      "stateMutability": "payable",
      "type": "function"
    },
    {
      "inputs": [],
      "name": "credentialsContract",
      "outputs": [
        {
          "internalType": "contract Credentials",
          "name": "",
          "type": "address"
        }
      ],
      "stateMutability": "view",
      "type": "function"
    },
    {
      "inputs": [
        {
          "internalType": "uint256",
          "name": "testId",
          "type": "uint256"
        }
      ],
      "name": "fundTest",
      "outputs": [],
      "stateMutability": "payable",
      "type": "function"
    },
    {
      "inputs": [
        {
          "internalType": "uint256",
          "name": "",
          "type": "uint256"
        }
      ],
      "name": "getApproved",
      "outputs": [
        {
          "internalType": "address",
          "name": "",
          "type": "address"
        }
      ],
      "stateMutability": "view",
      "type": "function"
    },
    {
      "inputs": [
        {
          "internalType": "uint256",
          "name": "testId",
          "type": "uint256"
        }
      ],
      "name": "getMultipleChoiceRoot",
      "outputs": [
        {
          "internalType": "uint256",
          "name": "",
          "type": "uint256"
        }
      ],
      "stateMutability": "view",
      "type": "function"
    },
    {
      "inputs": [
        {
          "internalType": "uint256",
          "name": "testId",
          "type": "uint256"
        }
      ],
      "name": "getOpenAnswersHashes",
      "outputs": [
        {
          "internalType": "uint256[]",
          "name": "",
          "type": "uint256[]"
        }
      ],
      "stateMutability": "view",
      "type": "function"
    },
    {
      "inputs": [
        {
          "internalType": "uint256",
          "name": "testId",
          "type": "uint256"
        }
      ],
      "name": "getOpenAnswersRoot",
      "outputs": [
        {
          "internalType": "uint256",
          "name": "",
          "type": "uint256"
        }
      ],
      "stateMutability": "view",
      "type": "function"
    },
    {
      "inputs": [
        {
          "internalType": "uint256",
          "name": "testId",
          "type": "uint256"
        }
      ],
      "name": "getTest",
      "outputs": [
        {
          "components": [
            {
              "internalType": "uint8",
              "name": "testType",
              "type": "uint8"
            },
            {
              "internalType": "uint8",
              "name": "nQuestions",
              "type": "uint8"
            },
            {
              "internalType": "uint8",
              "name": "minimumGrade",
              "type": "uint8"
            },
            {
              "internalType": "uint24",
              "name": "solvers",
              "type": "uint24"
            },
            {
              "internalType": "uint24",
              "name": "credentialLimit",
              "type": "uint24"
            },
            {
              "internalType": "uint32",
              "name": "timeLimit",
              "type": "uint32"
            },
            {
              "internalType": "address",
              "name": "requiredPass",
              "type": "address"
            },
            {
              "internalType": "uint256",
              "name": "gasFund",
              "type": "uint256"
            },
            {
              "internalType": "string",
              "name": "credentialsGained",
              "type": "string"
            }
          ],
          "internalType": "struct TestCreator.Test",
          "name": "",
          "type": "tuple"
        }
      ],
      "stateMutability": "view",
      "type": "function"
    },
    {
      "inputs": [
        {
          "internalType": "uint256",
          "name": "testId",
          "type": "uint256"
        }
      ],
      "name": "invalidateTest",
      "outputs": [],
      "stateMutability": "nonpayable",
      "type": "function"
    },
    {
      "inputs": [
        {
          "internalType": "address",
          "name": "",
          "type": "address"
        },
        {
          "internalType": "address",
          "name": "",
          "type": "address"
        }
      ],
      "name": "isApprovedForAll",
      "outputs": [
        {
          "internalType": "bool",
          "name": "",
          "type": "bool"
        }
      ],
      "stateMutability": "view",
      "type": "function"
    },
    {
      "inputs": [],
      "name": "name",
      "outputs": [
        {
          "internalType": "string",
          "name": "",
          "type": "string"
        }
      ],
      "stateMutability": "view",
      "type": "function"
    },
    {
      "inputs": [],
      "name": "owner",
      "outputs": [
        {
          "internalType": "address",
          "name": "",
          "type": "address"
        }
      ],
      "stateMutability": "view",
      "type": "function"
    },
    {
      "inputs": [
        {
          "internalType": "uint256",
          "name": "testId",
          "type": "uint256"
        }
      ],
      "name": "ownerOf",
      "outputs": [
        {
          "internalType": "address",
          "name": "",
          "type": "address"
        }
      ],
      "stateMutability": "view",
      "type": "function"
    },
    {
      "inputs": [],
      "name": "renounceOwnership",
      "outputs": [],
      "stateMutability": "nonpayable",
      "type": "function"
    },
    {
      "inputs": [
        {
          "internalType": "address",
          "name": "from",
          "type": "address"
        },
        {
          "internalType": "address",
          "name": "to",
          "type": "address"
        },
        {
          "internalType": "uint256",
          "name": "testId",
          "type": "uint256"
        }
      ],
      "name": "safeTransferFrom",
      "outputs": [],
      "stateMutability": "nonpayable",
      "type": "function"
    },
    {
      "inputs": [
        {
          "internalType": "address",
          "name": "",
          "type": "address"
        },
        {
          "internalType": "address",
          "name": "",
          "type": "address"
        },
        {
          "internalType": "uint256",
          "name": "",
          "type": "uint256"
        },
        {
          "internalType": "bytes",
          "name": "",
          "type": "bytes"
        }
      ],
      "name": "safeTransferFrom",
      "outputs": [],
      "stateMutability": "view",
      "type": "function"
    },
    {
      "inputs": [
        {
          "internalType": "address",
          "name": "",
          "type": "address"
        },
        {
          "internalType": "bool",
          "name": "",
          "type": "bool"
        }
      ],
      "name": "setApprovalForAll",
      "outputs": [],
      "stateMutability": "view",
      "type": "function"
    },
    {
      "inputs": [
        {
          "internalType": "uint256",
          "name": "testId",
          "type": "uint256"
        },
        {
          "internalType": "uint256[2]",
          "name": "a",
          "type": "uint256[2]"
        },
        {
          "internalType": "uint256[2][2]",
          "name": "b",
          "type": "uint256[2][2]"
        },
        {
          "internalType": "uint256[2]",
          "name": "c",
          "type": "uint256[2]"
        },
        {
          "internalType": "uint256[]",
          "name": "input",
          "type": "uint256[]"
        }
      ],
      "name": "solveTest",
      "outputs": [],
      "stateMutability": "nonpayable",
      "type": "function"
    },
    {
      "inputs": [
        {
          "internalType": "bytes4",
          "name": "interfaceId",
          "type": "bytes4"
        }
      ],
      "name": "supportsInterface",
      "outputs": [
        {
          "internalType": "bool",
          "name": "",
          "type": "bool"
        }
      ],
      "stateMutability": "view",
      "type": "function"
    },
    {
      "inputs": [],
      "name": "symbol",
      "outputs": [
        {
          "internalType": "string",
          "name": "",
          "type": "string"
        }
      ],
      "stateMutability": "view",
      "type": "function"
    },
    {
      "inputs": [
        {
          "internalType": "uint256",
          "name": "testId",
          "type": "uint256"
        }
      ],
      "name": "testExists",
      "outputs": [
        {
          "internalType": "bool",
          "name": "",
          "type": "bool"
        }
      ],
      "stateMutability": "view",
      "type": "function"
    },
    {
      "inputs": [
        {
          "internalType": "uint256",
          "name": "testId",
          "type": "uint256"
        }
      ],
      "name": "testIsValid",
      "outputs": [
        {
          "internalType": "bool",
          "name": "",
          "type": "bool"
        }
      ],
      "stateMutability": "view",
      "type": "function"
    },
    {
      "inputs": [
        {
          "internalType": "uint256",
          "name": "index",
          "type": "uint256"
        }
      ],
      "name": "tokenByIndex",
      "outputs": [
        {
          "internalType": "uint256",
          "name": "",
          "type": "uint256"
        }
      ],
      "stateMutability": "view",
      "type": "function"
    },
    {
      "inputs": [
        {
          "internalType": "address",
          "name": "_owner",
          "type": "address"
        },
        {
          "internalType": "uint256",
          "name": "index",
          "type": "uint256"
        }
      ],
      "name": "tokenOfOwnerByIndex",
      "outputs": [
        {
          "internalType": "uint256",
          "name": "",
          "type": "uint256"
        }
      ],
      "stateMutability": "view",
      "type": "function"
    },
    {
      "inputs": [
        {
          "internalType": "uint256",
          "name": "testId",
          "type": "uint256"
        }
      ],
      "name": "tokenURI",
      "outputs": [
        {
          "internalType": "string",
          "name": "",
          "type": "string"
        }
      ],
      "stateMutability": "view",
      "type": "function"
    },
    {
      "inputs": [],
      "name": "totalSupply",
      "outputs": [
        {
          "internalType": "uint256",
          "name": "count",
          "type": "uint256"
        }
      ],
      "stateMutability": "view",
      "type": "function"
    },
    {
      "inputs": [
        {
          "internalType": "address",
          "name": "",
          "type": "address"
        },
        {
          "internalType": "address",
          "name": "",
          "type": "address"
        },
        {
          "internalType": "uint256",
          "name": "",
          "type": "uint256"
        }
      ],
      "name": "transferFrom",
      "outputs": [],
      "stateMutability": "view",
      "type": "function"
    },
    {
      "inputs": [
        {
          "internalType": "address",
          "name": "newOwner",
          "type": "address"
        }
      ],
      "name": "transferOwnership",
      "outputs": [],
      "stateMutability": "nonpayable",
      "type": "function"
    },
    {
      "inputs": [
        {
          "internalType": "uint256",
          "name": "",
          "type": "uint256"
        }
      ],
      "name": "usedSalts",
      "outputs": [
        {
          "internalType": "bool",
          "name": "",
          "type": "bool"
        }
      ],
      "stateMutability": "view",
      "type": "function"
    },
    {
      "inputs": [],
      "name": "verifierContract",
      "outputs": [
        {
          "internalType": "contract TestVerifier",
          "name": "",
          "type": "address"
        }
      ],
      "stateMutability": "view",
      "type": "function"
    },
    {
      "inputs": [
        {
          "internalType": "uint256",
          "name": "testId",
          "type": "uint256"
        },
        {
          "internalType": "uint256[]",
          "name": "answerHashes",
          "type": "uint256[]"
        }
      ],
      "name": "verifyTestAnswers",
      "outputs": [],
      "stateMutability": "nonpayable",
      "type": "function"
    }
  ],
  "bytecode": "0x60806040526040518060400160405280601981526020017f4251543a2063616e6e6f7420617070726f76652074657374730000000000000081525060039080519060200190620000519291906200043e565b506040518060400160405280601a81526020017f4251543a2063616e6e6f74207472616e73666572207465737473000000000000815250600490805190602001906200009f9291906200043e565b50348015620000ad57600080fd5b50620000ce620000c26200029860201b60201c565b620002a060201b60201c565b60016002819055506040518060400160405280601581526020017f426c6f636b205175616c69666965642074657374730000000000000000000000815250600c9080519060200190620001239291906200043e565b506040518060400160405280600381526020017f4251540000000000000000000000000000000000000000000000000000000000815250600d9080519060200190620001719291906200043e565b506040516200018090620004cf565b604051809103906000f0801580156200019d573d6000803e3d6000fd5b50600660006101000a81548173ffffffffffffffffffffffffffffffffffffffff021916908373ffffffffffffffffffffffffffffffffffffffff160217905550604051620001ec90620004dd565b604051809103906000f08015801562000209573d6000803e3d6000fd5b50600560006101000a81548173ffffffffffffffffffffffffffffffffffffffff021916908373ffffffffffffffffffffffffffffffffffffffff160217905550620002626380ac58cd60e01b6200036660201b60201c565b6200027a635b5e139f60e01b6200036660201b60201c565b6200029263780e9d6360e01b6200036660201b60201c565b620005f2565b600033905090565b6000600160009054906101000a900473ffffffffffffffffffffffffffffffffffffffff16905081600160006101000a81548173ffffffffffffffffffffffffffffffffffffffff021916908373ffffffffffffffffffffffffffffffffffffffff1602179055508173ffffffffffffffffffffffffffffffffffffffff168173ffffffffffffffffffffffffffffffffffffffff167f8be0079c531659141344cd1fd0a4f28419497f9722a3daafe3b4186f6b6457e060405160405180910390a35050565b63ffffffff60e01b817bffffffffffffffffffffffffffffffffffffffffffffffffffffffff19161415620003d2576040517f08c379a0000000000000000000000000000000000000000000000000000000008152600401620003c9906200056b565b60405180910390fd5b6001600080837bffffffffffffffffffffffffffffffffffffffffffffffffffffffff19167bffffffffffffffffffffffffffffffffffffffffffffffffffffffff1916815260200190815260200160002060006101000a81548160ff02191690831515021790555050565b8280546200044c90620005bc565b90600052602060002090601f016020900481019282620004705760008555620004bc565b82601f106200048b57805160ff1916838001178555620004bc565b82800160010185558215620004bc579182015b82811115620004bb5782518255916020019190600101906200049e565b5b509050620004cb9190620004eb565b5090565b612d1480620065d183390190565b612d5b80620092e583390190565b5b8082111562000506576000816000905550600101620004ec565b5090565b600082825260208201905092915050565b7f4552433136353a20696e76616c696420696e7465726661636520696400000000600082015250565b600062000553601c836200050a565b915062000560826200051b565b602082019050919050565b60006020820190508181036000830152620005868162000544565b9050919050565b7f4e487b7100000000000000000000000000000000000000000000000000000000600052602260045260246000fd5b60006002820490506001821680620005d557607f821691505b60208210811415620005ec57620005eb6200058d565b5b50919050565b615fcf80620006026000396000f3fe6080604052600436106101ee5760003560e01c80638da5cb5b1161010d578063ca48621c116100a0578063d8b052501161006f578063d8b052501461073f578063dc2138ea1461077c578063e985e9c5146107a5578063edef019d146107e2578063f2fde38b1461081f576101ee565b8063ca48621c1461066f578063ce421e49146106ac578063cf695688146106d7578063d7887f7314610702576101ee565b8063b88d4fde116100dc578063b88d4fde146105a3578063c775a2e4146105cc578063c87b56dd14610609578063c8ac410014610646576101ee565b80638da5cb5b146104fb57806395d89b4114610526578063a22cb46514610551578063a9998a731461057a576101ee565b806342842e0e1161018557806370a082311161015457806370a082311461046f578063715018a6146104ac5780638262b2f7146104c35780638845d284146104df576101ee565b806342842e0e1461038f57806349804669146103b85780634f6ccce7146103f55780636352211e14610432576101ee565b806318160ddd116101c157806318160ddd146102c157806323b872dd146102ec5780632f745c5914610315578063391f3c7914610352576101ee565b806301ffc9a7146101f357806306fdde0314610230578063081812fc1461025b578063095ea7b314610298575b600080fd5b3480156101ff57600080fd5b5061021a60048036038101906102159190613b5e565b610848565b6040516102279190613ba6565b60405180910390f35b34801561023c57600080fd5b506102456108bf565b6040516102529190613c5a565b60405180910390f35b34801561026757600080fd5b50610282600480360381019061027d9190613cb2565b610951565b60405161028f9190613d20565b60405180910390f35b3480156102a457600080fd5b506102bf60048036038101906102ba9190613d67565b610958565b005b3480156102cd57600080fd5b506102d6610996565b6040516102e39190613db6565b60405180910390f35b3480156102f857600080fd5b50610313600480360381019061030e9190613dd1565b6109a7565b005b34801561032157600080fd5b5061033c60048036038101906103379190613d67565b6109e5565b6040516103499190613db6565b60405180910390f35b34801561035e57600080fd5b5061037960048036038101906103749190613cb2565b610a8a565b6040516103869190613db6565b60405180910390f35b34801561039b57600080fd5b506103b660048036038101906103b19190613dd1565b610b8b565b005b3480156103c457600080fd5b506103df60048036038101906103da9190613cb2565b610bab565b6040516103ec9190613db6565b60405180910390f35b34801561040157600080fd5b5061041c60048036038101906104179190613cb2565b610c79565b6040516104299190613db6565b60405180910390f35b34801561043e57600080fd5b5061045960048036038101906104549190613cb2565b610ce6565b6040516104669190613d20565b60405180910390f35b34801561047b57600080fd5b5061049660048036038101906104919190613e24565b610d1d565b6040516104a39190613db6565b60405180910390f35b3480156104b857600080fd5b506104c1610ddc565b005b6104dd60048036038101906104d89190613cb2565b610df0565b005b6104f960048036038101906104f49190614096565b610f55565b005b34801561050757600080fd5b5061051061161a565b60405161051d9190613d20565b60405180910390f35b34801561053257600080fd5b5061053b611644565b6040516105489190613c5a565b60405180910390f35b34801561055d57600080fd5b50610578600480360381019061057391906141e5565b6116d6565b005b34801561058657600080fd5b506105a1600480360381019061059c9190613cb2565b611714565b005b3480156105af57600080fd5b506105ca60048036038101906105c591906142c6565b61197c565b005b3480156105d857600080fd5b506105f360048036038101906105ee9190613cb2565b6119ba565b6040516106009190613ba6565b60405180910390f35b34801561061557600080fd5b50610630600480360381019061062b9190613cb2565b6119da565b60405161063d9190613c5a565b60405180910390f35b34801561065257600080fd5b5061066d6004803603810190610668919061440c565b611ac7565b005b34801561067b57600080fd5b5061069660048036038101906106919190613cb2565b611cdc565b6040516106a39190613ba6565b60405180910390f35b3480156106b857600080fd5b506106c1611d58565b6040516106ce91906144c7565b60405180910390f35b3480156106e357600080fd5b506106ec611d7e565b6040516106f99190614503565b60405180910390f35b34801561070e57600080fd5b5061072960048036038101906107249190613cb2565b611da4565b60405161073691906145dc565b60405180910390f35b34801561074b57600080fd5b5061076660048036038101906107619190613cb2565b611f19565b6040516107739190613ba6565b60405180910390f35b34801561078857600080fd5b506107a3600480360381019061079e9190614642565b611f2b565b005b3480156107b157600080fd5b506107cc60048036038101906107c791906146de565b612f87565b6040516107d99190613ba6565b60405180910390f35b3480156107ee57600080fd5b5061080960048036038101906108049190613cb2565b612f8f565b6040516108169190614869565b60405180910390f35b34801561082b57600080fd5b5061084660048036038101906108419190613e24565b6131ba565b005b60006108538261323e565b806108b85750600080837bffffffffffffffffffffffffffffffffffffffffffffffffffffffff19167bffffffffffffffffffffffffffffffffffffffffffffffffffffffff1916815260200190815260200160002060009054906101000a900460ff165b9050919050565b6060600c80546108ce906148ba565b80601f01602080910402602001604051908101604052809291908181526020018280546108fa906148ba565b80156109475780601f1061091c57610100808354040283529160200191610947565b820191906000526020600020905b81548152906001019060200180831161092a57829003601f168201915b5050505050905090565b6000919050565b60036040517f08c379a000000000000000000000000000000000000000000000000000000000815260040161098d9190614981565b60405180910390fd5b60006109a260086132a8565b905090565b60046040517f08c379a00000000000000000000000000000000000000000000000000000000081526004016109dc9190614981565b60405180910390fd5b60006109f083610d1d565b8210610a31576040517f08c379a0000000000000000000000000000000000000000000000000000000008152600401610a28906149ef565b60405180910390fd5b610a8282600760008673ffffffffffffffffffffffffffffffffffffffff1673ffffffffffffffffffffffffffffffffffffffff1681526020019081526020016000206132bd90919063ffffffff16565b905092915050565b6000610a95826132d7565b610ad4576040517f08c379a0000000000000000000000000000000000000000000000000000000008152600401610acb90614a5b565b60405180910390fd5b6000600e600084815260200190815260200160002060000160009054906101000a900460ff1660ff16118015610b3157506064600e600084815260200190815260200160002060000160009054906101000a900460ff1660ff1611155b610b70576040517f08c379a0000000000000000000000000000000000000000000000000000000008152600401610b6790614aed565b60405180910390fd5b600f6000838152602001908152602001600020549050919050565b610ba68383836040518060200160405280600081525061197c565b505050565b6000610bb6826132d7565b610bf5576040517f08c379a0000000000000000000000000000000000000000000000000000000008152600401610bec90614a5b565b60405180910390fd5b6064600e600084815260200190815260200160002060000160009054906101000a900460ff1660ff1610610c5e576040517f08c379a0000000000000000000000000000000000000000000000000000000008152600401610c5590614b59565b60405180910390fd5b60106000838152602001908152602001600020549050919050565b6000610c83610996565b8210610cc4576040517f08c379a0000000000000000000000000000000000000000000000000000000008152600401610cbb906149ef565b60405180910390fd5b6000610cda8360086132f490919063ffffffff16565b50905080915050919050565b6000610d1682604051806060016040528060298152602001615f716029913960086133209092919063ffffffff16565b9050919050565b60008073ffffffffffffffffffffffffffffffffffffffff168273ffffffffffffffffffffffffffffffffffffffff161415610d8e576040517f08c379a0000000000000000000000000000000000000000000000000000000008152600401610d8590614beb565b60405180910390fd5b610dd5600760008473ffffffffffffffffffffffffffffffffffffffff1673ffffffffffffffffffffffffffffffffffffffff16815260200190815260200160002061333f565b9050919050565b610de4613354565b610dee60006133d2565b565b60003411610dfd57600080fd5b610e06816132d7565b610e45576040517f08c379a0000000000000000000000000000000000000000000000000000000008152600401610e3c90614a5b565b60405180910390fd5b3373ffffffffffffffffffffffffffffffffffffffff16610e6582610ce6565b73ffffffffffffffffffffffffffffffffffffffff1614610ebb576040517f08c379a0000000000000000000000000000000000000000000000000000000008152600401610eb290614c57565b60405180910390fd5b60ff600e600083815260200190815260200160002060000160009054906101000a900460ff1660ff161415610f25576040517f08c379a0000000000000000000000000000000000000000000000000000000008152600401610f1c90614ce9565b60405180910390fd5b34600e60008381526020019081526020016000206002016000828254610f4b9190614d38565b9250508190555050565b610f5d613354565b600b6000815480929190610f7090614d8e565b91905055506000600b549050428763ffffffff1611610fc4576040517f08c379a0000000000000000000000000000000000000000000000000000000008152600401610fbb90614e23565b60405180910390fd5b60008862ffffff161161100c576040517f08c379a000000000000000000000000000000000000000000000000000000000815260040161100390614eb5565b60405180910390fd5b600073ffffffffffffffffffffffffffffffffffffffff168473ffffffffffffffffffffffffffffffffffffffff16146110d75760008473ffffffffffffffffffffffffffffffffffffffff166370a08231336040518263ffffffff1660e01b815260040161107b9190613d20565b60206040518083038186803b15801561109357600080fd5b505afa1580156110a7573d6000803e3d6000fd5b505050506040513d601f19601f820116820180604052508101906110cb9190614eea565b10156110d657600080fd5b5b60018a60ff16101580156110ef575060408a60ff1611155b61112e576040517f08c379a000000000000000000000000000000000000000000000000000000000815260040161112590614f63565b60405180910390fd5b60008960ff16118015611145575060648960ff1611155b611184576040517f08c379a000000000000000000000000000000000000000000000000000000000815260040161117b90614fcf565b60405180910390fd5b60008b60ff1614156111c757858560008181106111a4576111a3614fef565b5b905060200201356010600083815260200190815260200160002081905550611357565b60008b60ff161180156111dd575060648b60ff16105b1561124b57858560008181106111f6576111f5614fef565b5b90506020020135600f6000838152602001908152602001600020819055508585600181811061122857611227614fef565b5b905060200201356010600083815260200190815260200160002081905550611356565b60648b60ff16141561131a5760648960ff161461129d576040517f08c379a000000000000000000000000000000000000000000000000000000000815260040161129490615090565b60405180910390fd5b60018a60ff16146112e3576040517f08c379a00000000000000000000000000000000000000000000000000000000081526004016112da90615122565b60405180910390fd5b858560008181106112f7576112f6614fef565b5b90506020020135600f600083815260200190815260200160002081905550611355565b6040517f08c379a000000000000000000000000000000000000000000000000000000000815260040161134c9061518e565b60405180910390fd5b5b5b8160126000838152602001908152602001600020908051906020019061137e929190613987565b506040518061012001604052808c60ff1681526020018b60ff1681526020018a60ff168152602001600062ffffff1681526020018962ffffff1681526020018863ffffffff1681526020018573ffffffffffffffffffffffffffffffffffffffff16815260200134815260200184815250600e600083815260200190815260200160002060008201518160000160006101000a81548160ff021916908360ff16021790555060208201518160000160016101000a81548160ff021916908360ff16021790555060408201518160000160026101000a81548160ff021916908360ff16021790555060608201518160000160036101000a81548162ffffff021916908362ffffff16021790555060808201518160000160066101000a81548162ffffff021916908362ffffff16021790555060a08201518160000160096101000a81548163ffffffff021916908363ffffffff16021790555060c08201518160010160006101000a81548173ffffffffffffffffffffffffffffffffffffffff021916908373ffffffffffffffffffffffffffffffffffffffff16021790555060e08201518160020155610100820151816003019080519060200190611544929190613987565b5090505061159981600760003373ffffffffffffffffffffffffffffffffffffffff1673ffffffffffffffffffffffffffffffffffffffff16815260200190815260200160002061349890919063ffffffff16565b506115b0813360086134b29092919063ffffffff16565b50803373ffffffffffffffffffffffffffffffffffffffff16600073ffffffffffffffffffffffffffffffffffffffff167fddf252ad1be2c89b69c2b068fc378daa952ba7f163c4a11628f55a4df523b3ef60405160405180910390a45050505050505050505050565b6000600160009054906101000a900473ffffffffffffffffffffffffffffffffffffffff16905090565b6060600d8054611653906148ba565b80601f016020809104026020016040519081016040528092919081815260200182805461167f906148ba565b80156116cc5780601f106116a1576101008083540402835291602001916116cc565b820191906000526020600020905b8154815290600101906020018083116116af57829003601f168201915b5050505050905090565b60036040517f08c379a000000000000000000000000000000000000000000000000000000000815260040161170b9190614981565b60405180910390fd5b600280541415611759576040517f08c379a0000000000000000000000000000000000000000000000000000000008152600401611750906151fa565b60405180910390fd5b60028081905550611769816132d7565b6117a8576040517f08c379a000000000000000000000000000000000000000000000000000000000815260040161179f90614a5b565b60405180910390fd5b60ff600e600083815260200190815260200160002060000160009054906101000a900460ff1660ff161415611812576040517f08c379a000000000000000000000000000000000000000000000000000000000815260040161180990615266565b60405180910390fd5b3373ffffffffffffffffffffffffffffffffffffffff1661183282610ce6565b73ffffffffffffffffffffffffffffffffffffffff1614611888576040517f08c379a000000000000000000000000000000000000000000000000000000000815260040161187f906152f8565b60405180910390fd5b60ff600e600083815260200190815260200160002060000160006101000a81548160ff021916908360ff1602179055503373ffffffffffffffffffffffffffffffffffffffff166108fc600e6000848152602001908152602001600020600201549081150290604051600060405180830381858888f19350505050158015611914573d6000803e3d6000fd5b5080600073ffffffffffffffffffffffffffffffffffffffff163373ffffffffffffffffffffffffffffffffffffffff167fddf252ad1be2c89b69c2b068fc378daa952ba7f163c4a11628f55a4df523b3ef60405160405180910390a4600160028190555050565b60046040517f08c379a00000000000000000000000000000000000000000000000000000000081526004016119b19190614981565b60405180910390fd5b60136020528060005260406000206000915054906101000a900460ff1681565b60606119e5826132d7565b611a24576040517f08c379a0000000000000000000000000000000000000000000000000000000008152600401611a1b90614a5b565b60405180910390fd5b601260008381526020019081526020016000208054611a42906148ba565b80601f0160208091040260200160405190810160405280929190818152602001828054611a6e906148ba565b8015611abb5780601f10611a9057610100808354040283529160200191611abb565b820191906000526020600020905b815481529060010190602001808311611a9e57829003601f168201915b50505050509050919050565b611ad0826132d7565b611b0f576040517f08c379a0000000000000000000000000000000000000000000000000000000008152600401611b0690614a5b565b60405180910390fd5b6064600e600084815260200190815260200160002060000160009054906101000a900460ff1660ff1610611b78576040517f08c379a0000000000000000000000000000000000000000000000000000000008152600401611b6f90614b59565b60405180910390fd5b6000601160008481526020019081526020016000208054905014611bd1576040517f08c379a0000000000000000000000000000000000000000000000000000000008152600401611bc890615364565b60405180910390fd5b3373ffffffffffffffffffffffffffffffffffffffff16611bf183610ce6565b73ffffffffffffffffffffffffffffffffffffffff1614611c47576040517f08c379a0000000000000000000000000000000000000000000000000000000008152600401611c3e906153d0565b60405180910390fd5b600e600083815260200190815260200160002060000160019054906101000a900460ff1660ff16815114611cb0576040517f08c379a0000000000000000000000000000000000000000000000000000000008152600401611ca79061543c565b60405180910390fd5b80601160008481526020019081526020016000209080519060200190611cd7929190613a0d565b505050565b6000611ce7826132d7565b611d26576040517f08c379a0000000000000000000000000000000000000000000000000000000008152600401611d1d90614a5b565b60405180910390fd5b60ff600e600084815260200190815260200160002060000160009054906101000a900460ff1660ff1614159050919050565b600660009054906101000a900473ffffffffffffffffffffffffffffffffffffffff1681565b600560009054906101000a900473ffffffffffffffffffffffffffffffffffffffff1681565b6060611daf826132d7565b611dee576040517f08c379a0000000000000000000000000000000000000000000000000000000008152600401611de590614a5b565b60405180910390fd5b6064600e600084815260200190815260200160002060000160009054906101000a900460ff1660ff1610611e57576040517f08c379a0000000000000000000000000000000000000000000000000000000008152600401611e4e90614b59565b60405180910390fd5b6000601160008481526020019081526020016000208054905011611eb0576040517f08c379a0000000000000000000000000000000000000000000000000000000008152600401611ea7906154a8565b60405180910390fd5b60116000838152602001908152602001600020805480602002602001604051908101604052809291908181526020018280548015611f0d57602002820191906000526020600020905b815481526020019060010190808311611ef9575b50505050509050919050565b6000611f24826132d7565b9050919050565b600280541415611f70576040517f08c379a0000000000000000000000000000000000000000000000000000000008152600401611f67906151fa565b60405180910390fd5b6002808190555060005a9050611f85876132d7565b611fc4576040517f08c379a0000000000000000000000000000000000000000000000000000000008152600401611fbb90615514565b60405180910390fd5b6000600e6000898152602001908152602001600020604051806101200160405290816000820160009054906101000a900460ff1660ff1660ff1681526020016000820160019054906101000a900460ff1660ff1660ff1681526020016000820160029054906101000a900460ff1660ff1660ff1681526020016000820160039054906101000a900462ffffff1662ffffff1662ffffff1681526020016000820160069054906101000a900462ffffff1662ffffff1662ffffff1681526020016000820160099054906101000a900463ffffffff1663ffffffff1663ffffffff1681526020016001820160009054906101000a900473ffffffffffffffffffffffffffffffffffffffff1673ffffffffffffffffffffffffffffffffffffffff1673ffffffffffffffffffffffffffffffffffffffff16815260200160028201548152602001600382018054612118906148ba565b80601f0160208091040260200160405190810160405280929190818152602001828054612144906148ba565b80156121915780601f1061216657610100808354040283529160200191612191565b820191906000526020600020905b81548152906001019060200180831161217457829003601f168201915b50505050508152505090506000816000015190506000808260ff16141561250857600386869050146121f8576040517f08c379a00000000000000000000000000000000000000000000000000000000081526004016121ef90615580565b60405180910390fd5b60136000878760028181106122105761220f614fef565b5b90506020020135815260200190815260200160002060009054906101000a900460ff1615612273576040517f08c379a000000000000000000000000000000000000000000000000000000000815260040161226a906155ec565b60405180910390fd5b61227d8a846134e7565b601060008b815260200190815260200160002054868660018181106122a5576122a4614fef565b5b90506020020135146122ec576040517f08c379a00000000000000000000000000000000000000000000000000000000081526004016122e390615658565b60405180910390fd5b600560009054906101000a900473ffffffffffffffffffffffffffffffffffffffff1673ffffffffffffffffffffffffffffffffffffffff1663a728bc798a8a8a8a8a6040518663ffffffff1660e01b815260040161234f9594939291906157a8565b60206040518083038186803b15801561236757600080fd5b505afa15801561237b573d6000803e3d6000fd5b505050506040513d601f19601f8201168201806040525081019061239f919061580d565b6123de576040517f08c379a00000000000000000000000000000000000000000000000000000000081526004016123d590615886565b60405180910390fd5b6040836020015160ff16878760008181106123fc576123fb614fef565b5b9050602002013561240d9190614d38565b11612419576000612471565b826020015160ff166040846020015160ff168888600081811061243f5761243e614fef565b5b905060200201356124509190614d38565b61245a91906158a6565b606461246691906158da565b6124709190615963565b5b9050826040015160ff168110156124bd576040517f08c379a00000000000000000000000000000000000000000000000000000000081526004016124b4906159e0565b60405180910390fd5b600160136000888860028181106124d7576124d6614fef565b5b90506020020135815260200190815260200160002060006101000a81548160ff021916908315150217905550612c2c565b60008260ff1611801561251e575060648260ff16105b1561295b5760058686905014612569576040517f08c379a000000000000000000000000000000000000000000000000000000000815260040161256090615580565b60405180910390fd5b601360008787600381811061258157612580614fef565b5b90506020020135815260200190815260200160002060009054906101000a900460ff161580156125e9575060136000878760048181106125c4576125c3614fef565b5b90506020020135815260200190815260200160002060009054906101000a900460ff16155b612628576040517f08c379a000000000000000000000000000000000000000000000000000000000815260040161261f906155ec565b60405180910390fd5b6126328a846134e7565b601060008b8152602001908152602001600020548686600281811061265a57612659614fef565b5b90506020020135146126a1576040517f08c379a000000000000000000000000000000000000000000000000000000000815260040161269890615658565b60405180910390fd5b600560009054906101000a900473ffffffffffffffffffffffffffffffffffffffff1673ffffffffffffffffffffffffffffffffffffffff166361a906a28a8a8a8a8a6040518663ffffffff1660e01b81526004016127049594939291906157a8565b60206040518083038186803b15801561271c57600080fd5b505afa158015612730573d6000803e3d6000fd5b505050506040513d601f19601f82011682018060405250810190612754919061580d565b612793576040517f08c379a000000000000000000000000000000000000000000000000000000000815260040161278a90615886565b60405180910390fd5b6040836020015160ff16878760018181106127b1576127b0614fef565b5b905060200201356127c29190614d38565b116127ce576000612834565b826020015160ff168260646127e39190615a00565b60ff166040856020015160ff168989600181811061280457612803614fef565b5b905060200201356128159190614d38565b61281f91906158a6565b61282991906158da565b6128339190615963565b5b600f60008c8152602001908152602001600020548787600081811061285c5761285b614fef565b5b905060200201351461286f576000612871565b825b60ff1661287e9190614d38565b9050826040015160ff168110156128ca576040517f08c379a00000000000000000000000000000000000000000000000000000000081526004016128c1906159e0565b60405180910390fd5b600160136000888860038181106128e4576128e3614fef565b5b90506020020135815260200190815260200160002060006101000a81548160ff0219169083151502179055506001601360008888600481811061292a57612929614fef565b5b90506020020135815260200190815260200160002060006101000a81548160ff021916908315150217905550612c2b565b60648260ff161415612be257600286869050146129ad576040517f08c379a00000000000000000000000000000000000000000000000000000000081526004016129a490615580565b60405180910390fd5b60136000878760018181106129c5576129c4614fef565b5b90506020020135815260200190815260200160002060009054906101000a900460ff1615612a28576040517f08c379a0000000000000000000000000000000000000000000000000000000008152600401612a1f906155ec565b60405180910390fd5b612a328a846134e7565b600560009054906101000a900473ffffffffffffffffffffffffffffffffffffffff1673ffffffffffffffffffffffffffffffffffffffff1663de2e4a298a8a8a8a8a6040518663ffffffff1660e01b8152600401612a959594939291906157a8565b60206040518083038186803b158015612aad57600080fd5b505afa158015612ac1573d6000803e3d6000fd5b505050506040513d601f19601f82011682018060405250810190612ae5919061580d565b612b24576040517f08c379a0000000000000000000000000000000000000000000000000000000008152600401612b1b90615886565b60405180910390fd5b60649050600f60008b81526020019081526020016000205486866000818110612b5057612b4f614fef565b5b9050602002013514612b97576040517f08c379a0000000000000000000000000000000000000000000000000000000008152600401612b8e90615a80565b60405180910390fd5b60016013600088886001818110612bb157612bb0614fef565b5b90506020020135815260200190815260200160002060006101000a81548160ff021916908315150217905550612c2a565b60ff8260ff161415612c29576040517f08c379a0000000000000000000000000000000000000000000000000000000008152600401612c2090615b12565b60405180910390fd5b5b5b5b6000600660009054906101000a900473ffffffffffffffffffffffffffffffffffffffff1673ffffffffffffffffffffffffffffffffffffffff166329edae3a338d6040518363ffffffff1660e01b8152600401612c8b929190615b32565b60206040518083038186803b158015612ca357600080fd5b505afa158015612cb7573d6000803e3d6000fd5b505050506040513d601f19601f82011682018060405250810190612cdb9190614eea565b1415612d3857600e60008b8152602001908152602001600020600001600381819054906101000a900462ffffff1680929190612d1690615b5b565b91906101000a81548162ffffff021916908362ffffff16021790555050612e27565b600660009054906101000a900473ffffffffffffffffffffffffffffffffffffffff1673ffffffffffffffffffffffffffffffffffffffff166329edae3a338c6040518363ffffffff1660e01b8152600401612d95929190615b32565b60206040518083038186803b158015612dad57600080fd5b505afa158015612dc1573d6000803e3d6000fd5b505050506040513d601f19601f82011682018060405250810190612de59190614eea565b8111612e26576040517f08c379a0000000000000000000000000000000000000000000000000000000008152600401612e1d90615bf9565b60405180910390fd5b5b600660009054906101000a900473ffffffffffffffffffffffffffffffffffffffff1673ffffffffffffffffffffffffffffffffffffffff166332cbe31c338c846040518463ffffffff1660e01b8152600401612e8693929190615c19565b600060405180830381600087803b158015612ea057600080fd5b505af1158015612eb4573d6000803e3d6000fd5b5050505060003a619c405a87612eca91906158a6565b612ed49190614d38565b612ede91906158da565b905080600e60008d81526020019081526020016000206002015410612f725780600e60008d81526020019081526020016000206002016000828254612f2391906158a6565b925050819055503373ffffffffffffffffffffffffffffffffffffffff166108fc829081150290604051600060405180830381858888f19350505050158015612f70573d6000803e3d6000fd5b505b50505050506001600281905550505050505050565b600092915050565b612f97613a5a565b612fa0826132d7565b612fdf576040517f08c379a0000000000000000000000000000000000000000000000000000000008152600401612fd690614a5b565b60405180910390fd5b600e6000838152602001908152602001600020604051806101200160405290816000820160009054906101000a900460ff1660ff1660ff1681526020016000820160019054906101000a900460ff1660ff1660ff1681526020016000820160029054906101000a900460ff1660ff1660ff1681526020016000820160039054906101000a900462ffffff1662ffffff1662ffffff1681526020016000820160069054906101000a900462ffffff1662ffffff1662ffffff1681526020016000820160099054906101000a900463ffffffff1663ffffffff1663ffffffff1681526020016001820160009054906101000a900473ffffffffffffffffffffffffffffffffffffffff1673ffffffffffffffffffffffffffffffffffffffff1673ffffffffffffffffffffffffffffffffffffffff16815260200160028201548152602001600382018054613131906148ba565b80601f016020809104026020016040519081016040528092919081815260200182805461315d906148ba565b80156131aa5780601f1061317f576101008083540402835291602001916131aa565b820191906000526020600020905b81548152906001019060200180831161318d57829003601f168201915b5050505050815250509050919050565b6131c2613354565b600073ffffffffffffffffffffffffffffffffffffffff168173ffffffffffffffffffffffffffffffffffffffff161415613232576040517f08c379a000000000000000000000000000000000000000000000000000000000815260040161322990615cc2565b60405180910390fd5b61323b816133d2565b50565b60007f01ffc9a7000000000000000000000000000000000000000000000000000000007bffffffffffffffffffffffffffffffffffffffffffffffffffffffff1916827bffffffffffffffffffffffffffffffffffffffffffffffffffffffff1916149050919050565b60006132b68260000161370b565b9050919050565b60006132cc8360000183613720565b60001c905092915050565b60006132ed82600861374b90919063ffffffff16565b9050919050565b6000806000806133078660000186613765565b915091508160001c8160001c9350935050509250929050565b6000613333846000018460001b846137a5565b60001c90509392505050565b600061334d82600001613826565b9050919050565b61335c613837565b73ffffffffffffffffffffffffffffffffffffffff1661337a61161a565b73ffffffffffffffffffffffffffffffffffffffff16146133d0576040517f08c379a00000000000000000000000000000000000000000000000000000000081526004016133c790615d2e565b60405180910390fd5b565b6000600160009054906101000a900473ffffffffffffffffffffffffffffffffffffffff16905081600160006101000a81548173ffffffffffffffffffffffffffffffffffffffff021916908373ffffffffffffffffffffffffffffffffffffffff1602179055508173ffffffffffffffffffffffffffffffffffffffff168173ffffffffffffffffffffffffffffffffffffffff167f8be0079c531659141344cd1fd0a4f28419497f9722a3daafe3b4186f6b6457e060405160405180910390a35050565b60006134aa836000018360001b61383f565b905092915050565b60006134de846000018460001b8473ffffffffffffffffffffffffffffffffffffffff1660001b6138af565b90509392505050565b6134f082610ce6565b73ffffffffffffffffffffffffffffffffffffffff163373ffffffffffffffffffffffffffffffffffffffff16141561355e576040517f08c379a000000000000000000000000000000000000000000000000000000000815260040161355590615d9a565b60405180910390fd5b806080015162ffffff16816060015162ffffff16106135b2576040517f08c379a00000000000000000000000000000000000000000000000000000000081526004016135a990615e2c565b60405180910390fd5b8060a0015163ffffffff164211156135ff576040517f08c379a00000000000000000000000000000000000000000000000000000000081526004016135f690615ebe565b60405180910390fd5b600073ffffffffffffffffffffffffffffffffffffffff168160c0015173ffffffffffffffffffffffffffffffffffffffff16146137075760008160c0015173ffffffffffffffffffffffffffffffffffffffff166370a08231336040518263ffffffff1660e01b81526004016136769190613d20565b60206040518083038186803b15801561368e57600080fd5b505afa1580156136a2573d6000803e3d6000fd5b505050506040513d601f19601f820116820180604052508101906136c69190614eea565b11613706576040517f08c379a00000000000000000000000000000000000000000000000000000000081526004016136fd90615f50565b60405180910390fd5b5b5050565b6000613719826000016138ea565b9050919050565b600082600001828154811061373857613737614fef565b5b9060005260206000200154905092915050565b600061375d836000018360001b6138ff565b905092915050565b6000806000613780848660000161391f90919063ffffffff16565b9050808560020160008381526020019081526020016000205492509250509250929050565b6000808460020160008581526020019081526020016000205490506000801b811415806137d857506137d785856138ff565b5b839061381a576040517f08c379a00000000000000000000000000000000000000000000000000000000081526004016138119190613c5a565b60405180910390fd5b50809150509392505050565b600081600001805490509050919050565b600033905090565b600061384b8383613936565b6138a45782600001829080600181540180825580915050600190039060005260206000200160009091909190915055826000018054905083600101600084815260200190815260200160002081905550600190506138a9565b600090505b92915050565b600081846002016000858152602001908152602001600020819055506138e1838560000161395990919063ffffffff16565b90509392505050565b60006138f882600001613826565b9050919050565b6000613917828460000161397090919063ffffffff16565b905092915050565b600061392e8360000183613720565b905092915050565b600080836001016000848152602001908152602001600020541415905092915050565b6000613968836000018361383f565b905092915050565b600061397f8360000183613936565b905092915050565b828054613993906148ba565b90600052602060002090601f0160209004810192826139b557600085556139fc565b82601f106139ce57805160ff19168380011785556139fc565b828001600101855582156139fc579182015b828111156139fb5782518255916020019190600101906139e0565b5b509050613a099190613ad5565b5090565b828054828255906000526020600020908101928215613a49579160200282015b82811115613a48578251825591602001919060010190613a2d565b5b509050613a569190613ad5565b5090565b604051806101200160405280600060ff168152602001600060ff168152602001600060ff168152602001600062ffffff168152602001600062ffffff168152602001600063ffffffff168152602001600073ffffffffffffffffffffffffffffffffffffffff16815260200160008152602001606081525090565b5b80821115613aee576000816000905550600101613ad6565b5090565b6000604051905090565b600080fd5b600080fd5b60007fffffffff0000000000000000000000000000000000000000000000000000000082169050919050565b613b3b81613b06565b8114613b4657600080fd5b50565b600081359050613b5881613b32565b92915050565b600060208284031215613b7457613b73613afc565b5b6000613b8284828501613b49565b91505092915050565b60008115159050919050565b613ba081613b8b565b82525050565b6000602082019050613bbb6000830184613b97565b92915050565b600081519050919050565b600082825260208201905092915050565b60005b83811015613bfb578082015181840152602081019050613be0565b83811115613c0a576000848401525b50505050565b6000601f19601f8301169050919050565b6000613c2c82613bc1565b613c368185613bcc565b9350613c46818560208601613bdd565b613c4f81613c10565b840191505092915050565b60006020820190508181036000830152613c748184613c21565b905092915050565b6000819050919050565b613c8f81613c7c565b8114613c9a57600080fd5b50565b600081359050613cac81613c86565b92915050565b600060208284031215613cc857613cc7613afc565b5b6000613cd684828501613c9d565b91505092915050565b600073ffffffffffffffffffffffffffffffffffffffff82169050919050565b6000613d0a82613cdf565b9050919050565b613d1a81613cff565b82525050565b6000602082019050613d356000830184613d11565b92915050565b613d4481613cff565b8114613d4f57600080fd5b50565b600081359050613d6181613d3b565b92915050565b60008060408385031215613d7e57613d7d613afc565b5b6000613d8c85828601613d52565b9250506020613d9d85828601613c9d565b9150509250929050565b613db081613c7c565b82525050565b6000602082019050613dcb6000830184613da7565b92915050565b600080600060608486031215613dea57613de9613afc565b5b6000613df886828701613d52565b9350506020613e0986828701613d52565b9250506040613e1a86828701613c9d565b9150509250925092565b600060208284031215613e3a57613e39613afc565b5b6000613e4884828501613d52565b91505092915050565b600060ff82169050919050565b613e6781613e51565b8114613e7257600080fd5b50565b600081359050613e8481613e5e565b92915050565b600062ffffff82169050919050565b613ea281613e8a565b8114613ead57600080fd5b50565b600081359050613ebf81613e99565b92915050565b600063ffffffff82169050919050565b613ede81613ec5565b8114613ee957600080fd5b50565b600081359050613efb81613ed5565b92915050565b600080fd5b600080fd5b600080fd5b60008083601f840112613f2657613f25613f01565b5b8235905067ffffffffffffffff811115613f4357613f42613f06565b5b602083019150836020820283011115613f5f57613f5e613f0b565b5b9250929050565b600080fd5b7f4e487b7100000000000000000000000000000000000000000000000000000000600052604160045260246000fd5b613fa382613c10565b810181811067ffffffffffffffff82111715613fc257613fc1613f6b565b5b80604052505050565b6000613fd5613af2565b9050613fe18282613f9a565b919050565b600067ffffffffffffffff82111561400157614000613f6b565b5b61400a82613c10565b9050602081019050919050565b82818337600083830152505050565b600061403961403484613fe6565b613fcb565b90508281526020810184848401111561405557614054613f66565b5b614060848285614017565b509392505050565b600082601f83011261407d5761407c613f01565b5b813561408d848260208601614026565b91505092915050565b6000806000806000806000806000806101208b8d0312156140ba576140b9613afc565b5b60006140c88d828e01613e75565b9a505060206140d98d828e01613e75565b99505060406140ea8d828e01613e75565b98505060606140fb8d828e01613eb0565b975050608061410c8d828e01613eec565b96505060a08b013567ffffffffffffffff81111561412d5761412c613b01565b5b6141398d828e01613f10565b955095505060c061414c8d828e01613d52565b93505060e08b013567ffffffffffffffff81111561416d5761416c613b01565b5b6141798d828e01614068565b9250506101008b013567ffffffffffffffff81111561419b5761419a613b01565b5b6141a78d828e01614068565b9150509295989b9194979a5092959850565b6141c281613b8b565b81146141cd57600080fd5b50565b6000813590506141df816141b9565b92915050565b600080604083850312156141fc576141fb613afc565b5b600061420a85828601613d52565b925050602061421b858286016141d0565b9150509250929050565b600067ffffffffffffffff8211156142405761423f613f6b565b5b61424982613c10565b9050602081019050919050565b600061426961426484614225565b613fcb565b90508281526020810184848401111561428557614284613f66565b5b614290848285614017565b509392505050565b600082601f8301126142ad576142ac613f01565b5b81356142bd848260208601614256565b91505092915050565b600080600080608085870312156142e0576142df613afc565b5b60006142ee87828801613d52565b94505060206142ff87828801613d52565b935050604061431087828801613c9d565b925050606085013567ffffffffffffffff81111561433157614330613b01565b5b61433d87828801614298565b91505092959194509250565b600067ffffffffffffffff82111561436457614363613f6b565b5b602082029050602081019050919050565b600061438861438384614349565b613fcb565b905080838252602082019050602084028301858111156143ab576143aa613f0b565b5b835b818110156143d457806143c08882613c9d565b8452602084019350506020810190506143ad565b5050509392505050565b600082601f8301126143f3576143f2613f01565b5b8135614403848260208601614375565b91505092915050565b6000806040838503121561442357614422613afc565b5b600061443185828601613c9d565b925050602083013567ffffffffffffffff81111561445257614451613b01565b5b61445e858286016143de565b9150509250929050565b6000819050919050565b600061448d61448861448384613cdf565b614468565b613cdf565b9050919050565b600061449f82614472565b9050919050565b60006144b182614494565b9050919050565b6144c1816144a6565b82525050565b60006020820190506144dc60008301846144b8565b92915050565b60006144ed82614494565b9050919050565b6144fd816144e2565b82525050565b600060208201905061451860008301846144f4565b92915050565b600081519050919050565b600082825260208201905092915050565b6000819050602082019050919050565b61455381613c7c565b82525050565b6000614565838361454a565b60208301905092915050565b6000602082019050919050565b60006145898261451e565b6145938185614529565b935061459e8361453a565b8060005b838110156145cf5781516145b68882614559565b97506145c183614571565b9250506001810190506145a2565b5085935050505092915050565b600060208201905081810360008301526145f6818461457e565b905092915050565b60008190508260206002028201111561461a57614619613f0b565b5b92915050565b60008190508260406002028201111561463c5761463b613f0b565b5b92915050565b60008060008060008061014087890312156146605761465f613afc565b5b600061466e89828a01613c9d565b965050602061467f89828a016145fe565b955050606061469089828a01614620565b94505060e06146a189828a016145fe565b93505061012087013567ffffffffffffffff8111156146c3576146c2613b01565b5b6146cf89828a01613f10565b92509250509295509295509295565b600080604083850312156146f5576146f4613afc565b5b600061470385828601613d52565b925050602061471485828601613d52565b9150509250929050565b61472781613e51565b82525050565b61473681613e8a565b82525050565b61474581613ec5565b82525050565b61475481613cff565b82525050565b600082825260208201905092915050565b600061477682613bc1565b614780818561475a565b9350614790818560208601613bdd565b61479981613c10565b840191505092915050565b6000610120830160008301516147bd600086018261471e565b5060208301516147d0602086018261471e565b5060408301516147e3604086018261471e565b5060608301516147f6606086018261472d565b506080830151614809608086018261472d565b5060a083015161481c60a086018261473c565b5060c083015161482f60c086018261474b565b5060e083015161484260e086018261454a565b5061010083015184820361010086015261485c828261476b565b9150508091505092915050565b6000602082019050818103600083015261488381846147a4565b905092915050565b7f4e487b7100000000000000000000000000000000000000000000000000000000600052602260045260246000fd5b600060028204905060018216806148d257607f821691505b602082108114156148e6576148e561488b565b5b50919050565b60008190508160005260206000209050919050565b6000815461490e816148ba565b6149188186613bcc565b94506001821660008114614933576001811461494557614978565b60ff1983168652602086019350614978565b61494e856148ec565b60005b8381101561497057815481890152600182019150602081019050614951565b808801955050505b50505092915050565b6000602082019050818103600083015261499b8184614901565b905092915050565b7f496e646578206f7574206f6620626f756e647300000000000000000000000000600082015250565b60006149d9601383613bcc565b91506149e4826149a3565b602082019050919050565b60006020820190508181036000830152614a08816149cc565b9050919050565b7f5465737420646f6573206e6f7420657869737400000000000000000000000000600082015250565b6000614a45601383613bcc565b9150614a5082614a0f565b602082019050919050565b60006020820190508181036000830152614a7481614a38565b9050919050565b7f54657374206973206e6f74206d756c7469706c652063686f696365206f72206d60008201527f6978656400000000000000000000000000000000000000000000000000000000602082015250565b6000614ad7602483613bcc565b9150614ae282614a7b565b604082019050919050565b60006020820190508181036000830152614b0681614aca565b9050919050565b7f54657374206973206e6f74206f70656e20616e73776572206f72206d69786564600082015250565b6000614b43602083613bcc565b9150614b4e82614b0d565b602082019050919050565b60006020820190508181036000830152614b7281614b36565b9050919050565b7f4552433732313a2062616c616e636520717565727920666f7220746865207a6560008201527f726f206164647265737300000000000000000000000000000000000000000000602082015250565b6000614bd5602a83613bcc565b9150614be082614b79565b604082019050919050565b60006020820190508181036000830152614c0481614bc8565b9050919050565b7f46756e64696e6720746573742074686174206973206e6f74206f776e00000000600082015250565b6000614c41601c83613bcc565b9150614c4c82614c0b565b602082019050919050565b60006020820190508181036000830152614c7081614c34565b9050919050565b7f5465737420686173206265656e2064656c6574656420616e642063616e206e6f60008201527f206c6f6e6765722062652066756e646564000000000000000000000000000000602082015250565b6000614cd3603183613bcc565b9150614cde82614c77565b604082019050919050565b60006020820190508181036000830152614d0281614cc6565b9050919050565b7f4e487b7100000000000000000000000000000000000000000000000000000000600052601160045260246000fd5b6000614d4382613c7c565b9150614d4e83613c7c565b9250827fffffffffffffffffffffffffffffffffffffffffffffffffffffffffffffffff03821115614d8357614d82614d09565b5b828201905092915050565b6000614d9982613c7c565b91507fffffffffffffffffffffffffffffffffffffffffffffffffffffffffffffffff821415614dcc57614dcb614d09565b5b600182019050919050565b7f54696d65206c696d697420697320696e20746865207061737400000000000000600082015250565b6000614e0d601983613bcc565b9150614e1882614dd7565b602082019050919050565b60006020820190508181036000830152614e3c81614e00565b9050919050565b7f43726564656e7469616c206c696d6974206d7573742062652061626f7665207a60008201527f65726f0000000000000000000000000000000000000000000000000000000000602082015250565b6000614e9f602383613bcc565b9150614eaa82614e43565b604082019050919050565b60006020820190508181036000830152614ece81614e92565b9050919050565b600081519050614ee481613c86565b92915050565b600060208284031215614f0057614eff613afc565b5b6000614f0e84828501614ed5565b91505092915050565b7f496e76616c6964206e756d626572206f66207175657374696f6e730000000000600082015250565b6000614f4d601b83613bcc565b9150614f5882614f17565b602082019050919050565b60006020820190508181036000830152614f7c81614f40565b9050919050565b7f496e76616c6964206d696e696d756d2067726164650000000000000000000000600082015250565b6000614fb9601583613bcc565b9150614fc482614f83565b602082019050919050565b60006020820190508181036000830152614fe881614fac565b9050919050565b7f4e487b7100000000000000000000000000000000000000000000000000000000600052603260045260246000fd5b7f4d756c7469706c652063686f6963652074657374206d7573742068617665203160008201527f3030206173206d696e696d756d20677261646500000000000000000000000000602082015250565b600061507a603383613bcc565b91506150858261501e565b604082019050919050565b600060208201905081810360008301526150a98161506d565b9050919050565b7f4d756c7469706c652063686f6963652074657374206d7573742068617665203160008201527f206173206e756d626572206f66206f70656e207175657374696f6e7300000000602082015250565b600061510c603c83613bcc565b9150615117826150b0565b604082019050919050565b6000602082019050818103600083015261513b816150ff565b9050919050565b7f496e76616c696420746573742074797065000000000000000000000000000000600082015250565b6000615178601183613bcc565b915061518382615142565b602082019050919050565b600060208201905081810360008301526151a78161516b565b9050919050565b7f5265656e7472616e637947756172643a207265656e7472616e742063616c6c00600082015250565b60006151e4601f83613bcc565b91506151ef826151ae565b602082019050919050565b60006020820190508181036000830152615213816151d7565b9050919050565b7f546573742077617320616c726561647920696e76616c69646174656400000000600082015250565b6000615250601c83613bcc565b915061525b8261521a565b602082019050919050565b6000602082019050818103600083015261527f81615243565b9050919050565b7f496e76616c69646174696e6720746573742074686174206973206e6f74206f7760008201527f6e00000000000000000000000000000000000000000000000000000000000000602082015250565b60006152e2602183613bcc565b91506152ed82615286565b604082019050919050565b60006020820190508181036000830152615311816152d5565b9050919050565b7f546573742077617320616c726561647920766572696669656400000000000000600082015250565b600061534e601983613bcc565b915061535982615318565b602082019050919050565b6000602082019050818103600083015261537d81615341565b9050919050565b7f566572696679696e6720746573742074686174206973206e6f74206f776e0000600082015250565b60006153ba601e83613bcc565b91506153c582615384565b602082019050919050565b600060208201905081810360008301526153e9816153ad565b9050919050565b7f496e76616c6964206e756d6265722070726f7669646564000000000000000000600082015250565b6000615426601783613bcc565b9150615431826153f0565b602082019050919050565b6000602082019050818103600083015261545581615419565b9050919050565b7f5465737420776173206e6f742076657269666965640000000000000000000000600082015250565b6000615492601583613bcc565b915061549d8261545c565b602082019050919050565b600060208201905081810360008301526154c181615485565b9050919050565b7f536f6c76696e672074657374207468617420646f6573206e6f74206578697374600082015250565b60006154fe602083613bcc565b9150615509826154c8565b602082019050919050565b6000602082019050818103600083015261552d816154f1565b9050919050565b7f496e76616c696420696e707574206c656e677468000000000000000000000000600082015250565b600061556a601483613bcc565b915061557582615534565b602082019050919050565b600060208201905081810360008301526155998161555d565b9050919050565b7f53616c742077617320616c726561647920757365640000000000000000000000600082015250565b60006155d6601583613bcc565b91506155e1826155a0565b602082019050919050565b60006020820190508181036000830152615605816155c9565b9050919050565b7f536f6c76696e6720666f7220616e6f7468657220746573740000000000000000600082015250565b6000615642601883613bcc565b915061564d8261560c565b602082019050919050565b6000602082019050818103600083015261567181615635565b9050919050565b61568460408383614017565b5050565b600060029050919050565b600081905092915050565b6000819050919050565b6156b460408383614017565b5050565b60006156c483836156a8565b60408301905092915050565b600082905092915050565b6000604082019050919050565b6156f181615688565b6156fb8184615693565b92506157068261569e565b8060005b8381101561573f5761571c82846156d0565b61572687826156b8565b9650615731836156db565b92505060018101905061570a565b505050505050565b600080fd5b60006157588385614529565b93507f07ffffffffffffffffffffffffffffffffffffffffffffffffffffffffffffff83111561578b5761578a615747565b5b60208302925061579c838584614017565b82840190509392505050565b6000610120820190506157be6000830188615678565b6157cb60408301876156e8565b6157d860c0830186615678565b8181036101008301526157ec81848661574c565b90509695505050505050565b600081519050615807816141b9565b92915050565b60006020828403121561582357615822613afc565b5b6000615831848285016157f8565b91505092915050565b7f496e76616c69642070726f6f6600000000000000000000000000000000000000600082015250565b6000615870600d83613bcc565b915061587b8261583a565b602082019050919050565b6000602082019050818103600083015261589f81615863565b9050919050565b60006158b182613c7c565b91506158bc83613c7c565b9250828210156158cf576158ce614d09565b5b828203905092915050565b60006158e582613c7c565b91506158f083613c7c565b9250817fffffffffffffffffffffffffffffffffffffffffffffffffffffffffffffffff048311821515161561592957615928614d09565b5b828202905092915050565b7f4e487b7100000000000000000000000000000000000000000000000000000000600052601260045260246000fd5b600061596e82613c7c565b915061597983613c7c565b92508261598957615988615934565b5b828204905092915050565b7f47726164652069732062656c6f77206d696e696d756d00000000000000000000600082015250565b60006159ca601683613bcc565b91506159d582615994565b602082019050919050565b600060208201905081810360008301526159f9816159bd565b9050919050565b6000615a0b82613e51565b9150615a1683613e51565b925082821015615a2957615a28614d09565b5b828203905092915050565b7f57726f6e6720736f6c7574696f6e000000000000000000000000000000000000600082015250565b6000615a6a600e83613bcc565b9150615a7582615a34565b602082019050919050565b60006020820190508181036000830152615a9981615a5d565b9050919050565b7f5465737420686173206265656e2064656c6574656420616e642063616e206e6f60008201527f206c6f6e67657220626520736f6c766564000000000000000000000000000000602082015250565b6000615afc603183613bcc565b9150615b0782615aa0565b604082019050919050565b60006020820190508181036000830152615b2b81615aef565b9050919050565b6000604082019050615b476000830185613d11565b615b546020830184613da7565b9392505050565b6000615b6682613e8a565b915062ffffff821415615b7c57615b7b614d09565b5b600182019050919050565b7f596f7572206578697374696e672063726564656e7469616c206861732061206260008201527f657474657220726573756c740000000000000000000000000000000000000000602082015250565b6000615be3602c83613bcc565b9150615bee82615b87565b604082019050919050565b60006020820190508181036000830152615c1281615bd6565b9050919050565b6000606082019050615c2e6000830186613d11565b615c3b6020830185613da7565b615c486040830184613da7565b949350505050565b7f4f776e61626c653a206e6577206f776e657220697320746865207a65726f206160008201527f6464726573730000000000000000000000000000000000000000000000000000602082015250565b6000615cac602683613bcc565b9150615cb782615c50565b604082019050919050565b60006020820190508181036000830152615cdb81615c9f565b9050919050565b7f4f776e61626c653a2063616c6c6572206973206e6f7420746865206f776e6572600082015250565b6000615d18602083613bcc565b9150615d2382615ce2565b602082019050919050565b60006020820190508181036000830152615d4781615d0b565b9050919050565b7f546573742063616e6e6f7420626520736f6c766564206279206f776e65720000600082015250565b6000615d84601e83613bcc565b9150615d8f82615d4e565b602082019050919050565b60006020820190508181036000830152615db381615d77565b9050919050565b7f4d6178696d756d206e756d626572206f662063726564656e7469616c7320726560008201527f6163686564000000000000000000000000000000000000000000000000000000602082015250565b6000615e16602583613bcc565b9150615e2182615dba565b604082019050919050565b60006020820190508181036000830152615e4581615e09565b9050919050565b7f54696d65206c696d697420666f7220746869732063726564656e7469616c207260008201527f6561636865640000000000000000000000000000000000000000000000000000602082015250565b6000615ea8602683613bcc565b9150615eb382615e4c565b604082019050919050565b60006020820190508181036000830152615ed781615e9b565b9050919050565b7f536f6c76657220646f6573206e6f74206f776e2074686520726571756972656460008201527f20746f6b656e0000000000000000000000000000000000000000000000000000602082015250565b6000615f3a602683613bcc565b9150615f4582615ede565b604082019050919050565b60006020820190508181036000830152615f6981615f2d565b905091905056fe4552433732313a206f776e657220717565727920666f72206e6f6e6578697374656e7420746f6b656ea2646970667358221220971224bbb0a2a7f6d90aadd50316669857b67bf270d6e12697b9c7a3119386e064736f6c6343000809003360806040526040518060400160405280601f81526020017f4251433a2063616e6e6f7420617070726f76652063726564656e7469616c730081525060029080519060200190620000519291906200039f565b506040518060400160405280602081526020017f4251433a2063616e6e6f74207472616e736665722063726564656e7469616c73815250600390805190602001906200009f9291906200039f565b50348015620000ad57600080fd5b50620000ce620000c2620001f960201b60201c565b6200020160201b60201c565b6040518060400160405280601b81526020017f426c6f636b205175616c69666965642043726564656e7469616c730000000000815250600890805190602001906200011b9291906200039f565b506040518060400160405280600381526020017f425143000000000000000000000000000000000000000000000000000000000081525060099080519060200190620001699291906200039f565b5033600460006101000a81548173ffffffffffffffffffffffffffffffffffffffff021916908373ffffffffffffffffffffffffffffffffffffffff160217905550620001c36380ac58cd60e01b620002c760201b60201c565b620001db635b5e139f60e01b620002c760201b60201c565b620001f363780e9d6360e01b620002c760201b60201c565b62000537565b600033905090565b6000600160009054906101000a900473ffffffffffffffffffffffffffffffffffffffff16905081600160006101000a81548173ffffffffffffffffffffffffffffffffffffffff021916908373ffffffffffffffffffffffffffffffffffffffff1602179055508173ffffffffffffffffffffffffffffffffffffffff168173ffffffffffffffffffffffffffffffffffffffff167f8be0079c531659141344cd1fd0a4f28419497f9722a3daafe3b4186f6b6457e060405160405180910390a35050565b63ffffffff60e01b817bffffffffffffffffffffffffffffffffffffffffffffffffffffffff1916141562000333576040517f08c379a00000000000000000000000000000000000000000000000000000000081526004016200032a90620004b0565b60405180910390fd5b6001600080837bffffffffffffffffffffffffffffffffffffffffffffffffffffffff19167bffffffffffffffffffffffffffffffffffffffffffffffffffffffff1916815260200190815260200160002060006101000a81548160ff02191690831515021790555050565b828054620003ad9062000501565b90600052602060002090601f016020900481019282620003d157600085556200041d565b82601f10620003ec57805160ff19168380011785556200041d565b828001600101855582156200041d579182015b828111156200041c578251825591602001919060010190620003ff565b5b5090506200042c919062000430565b5090565b5b808211156200044b57600081600090555060010162000431565b5090565b600082825260208201905092915050565b7f4552433136353a20696e76616c696420696e7465726661636520696400000000600082015250565b600062000498601c836200044f565b9150620004a58262000460565b602082019050919050565b60006020820190508181036000830152620004cb8162000489565b9050919050565b7f4e487b7100000000000000000000000000000000000000000000000000000000600052602260045260246000fd5b600060028204905060018216806200051a57607f821691505b60208210811415620005315762000530620004d2565b5b50919050565b6127cd80620005476000396000f3fe608060405234801561001057600080fd5b50600436106101735760003560e01c80636352211e116100de578063a22cb46511610097578063e985e9c511610071578063e985e9c514610482578063f2fde38b146104b2578063f34071da146104ce578063ff4236f8146104fe57610173565b8063a22cb4651461041a578063b88d4fde14610436578063c87b56dd1461045257610173565b80636352211e1461034457806370a0823114610374578063715018a6146103a45780638da5cb5b146103ae5780638dd18d2d146103cc57806395d89b41146103fc57610173565b806323b872dd1161013057806323b872dd1461026057806329edae3a1461027c5780632f745c59146102ac57806332cbe31c146102dc57806342842e0e146102f85780634f6ccce71461031457610173565b806301ffc9a714610178578063061e4dde146101a857806306fdde03146101d8578063081812fc146101f6578063095ea7b31461022657806318160ddd14610242575b600080fd5b610192600480360381019061018d91906117d7565b61052e565b60405161019f919061181f565b60405180910390f35b6101c260048036038101906101bd9190611898565b6105a5565b6040516101cf919061198d565b60405180910390f35b6101e06105f5565b6040516101ed9190611a48565b60405180910390f35b610210600480360381019061020b9190611a96565b610687565b60405161021d9190611ad2565b60405180910390f35b610240600480360381019061023b9190611aed565b61068e565b005b61024a6106cc565b6040516102579190611b3c565b60405180910390f35b61027a60048036038101906102759190611b57565b61086a565b005b61029660048036038101906102919190611aed565b6108a8565b6040516102a39190611b3c565b60405180910390f35b6102c660048036038101906102c19190611aed565b610903565b6040516102d39190611b3c565b60405180910390f35b6102f660048036038101906102f19190611baa565b6109a8565b005b610312600480360381019061030d9190611b57565b610b55565b005b61032e60048036038101906103299190611a96565b610b75565b60405161033b9190611b3c565b60405180910390f35b61035e60048036038101906103599190611a96565b610c29565b60405161036b9190611ad2565b60405180910390f35b61038e60048036038101906103899190611898565b610cdd565b60405161039b9190611b3c565b60405180910390f35b6103ac610d9c565b005b6103b6610db0565b6040516103c39190611ad2565b60405180910390f35b6103e660048036038101906103e19190611a96565b610dda565b6040516103f39190611a48565b60405180910390f35b610404610f82565b6040516104119190611a48565b60405180910390f35b610434600480360381019061042f9190611c29565b611014565b005b610450600480360381019061044b9190611d9e565b611052565b005b61046c60048036038101906104679190611a96565b611090565b6040516104799190611a48565b60405180910390f35b61049c60048036038101906104979190611e21565b611149565b6040516104a9919061181f565b60405180910390f35b6104cc60048036038101906104c79190611898565b611151565b005b6104e860048036038101906104e39190611a96565b6111d5565b6040516104f59190611f1f565b60405180910390f35b61051860048036038101906105139190611a96565b6111f9565b6040516105259190611f5d565b60405180910390f35b6000610539826113a0565b8061059e5750600080837bffffffffffffffffffffffffffffffffffffffffffffffffffffffff19167bffffffffffffffffffffffffffffffffffffffffffffffffffffffff1916815260200190815260200160002060009054906101000a900460ff165b9050919050565b60606105ee600560008473ffffffffffffffffffffffffffffffffffffffff1673ffffffffffffffffffffffffffffffffffffffff16815260200190815260200160002061140a565b9050919050565b60606008805461060490611fa7565b80601f016020809104026020016040519081016040528092919081815260200182805461063090611fa7565b801561067d5780601f106106525761010080835404028352916020019161067d565b820191906000526020600020905b81548152906001019060200180831161066057829003601f168201915b5050505050905090565b6000919050565b60026040517f08c379a00000000000000000000000000000000000000000000000000000000081526004016106c3919061206e565b60405180910390fd5b600080600460009054906101000a900473ffffffffffffffffffffffffffffffffffffffff1673ffffffffffffffffffffffffffffffffffffffff166318160ddd6040518163ffffffff1660e01b815260040160206040518083038186803b15801561073757600080fd5b505afa15801561074b573d6000803e3d6000fd5b505050506040513d601f19601f8201168201806040525081019061076f91906120a5565b905060005b81811015610865576000600460009054906101000a900473ffffffffffffffffffffffffffffffffffffffff1673ffffffffffffffffffffffffffffffffffffffff16634f6ccce7836040518263ffffffff1660e01b81526004016107d99190611b3c565b60206040518083038186803b1580156107f157600080fd5b505afa158015610805573d6000803e3d6000fd5b505050506040513d601f19601f8201168201806040525081019061082991906120a5565b90506108466007600083815260200190815260200160002061142b565b846108519190612101565b9350508061085e90612157565b9050610774565b505090565b60036040517f08c379a000000000000000000000000000000000000000000000000000000000815260040161089f919061206e565b60405180910390fd5b60006006600083815260200190815260200160002060008473ffffffffffffffffffffffffffffffffffffffff1673ffffffffffffffffffffffffffffffffffffffff16815260200190815260200160002054905092915050565b600061090e83610cdd565b821061094f576040517f08c379a0000000000000000000000000000000000000000000000000000000008152600401610946906121ec565b60405180910390fd5b6109a082600560008673ffffffffffffffffffffffffffffffffffffffff1673ffffffffffffffffffffffffffffffffffffffff16815260200190815260200160002061144090919063ffffffff16565b905092915050565b6109b061145a565b806006600084815260200190815260200160002060008573ffffffffffffffffffffffffffffffffffffffff1673ffffffffffffffffffffffffffffffffffffffff16815260200190815260200160002081905550610a5682600560008673ffffffffffffffffffffffffffffffffffffffff1673ffffffffffffffffffffffffffffffffffffffff1681526020019081526020016000206114d890919063ffffffff16565b610b5057610aab82600560008673ffffffffffffffffffffffffffffffffffffffff1673ffffffffffffffffffffffffffffffffffffffff1681526020019081526020016000206114f290919063ffffffff16565b50610ad1836007600085815260200190815260200160002061150c90919063ffffffff16565b50818373ffffffffffffffffffffffffffffffffffffffff16600460009054906101000a900473ffffffffffffffffffffffffffffffffffffffff1673ffffffffffffffffffffffffffffffffffffffff167fddf252ad1be2c89b69c2b068fc378daa952ba7f163c4a11628f55a4df523b3ef60405160405180910390a45b505050565b610b7083838360405180602001604052806000815250611052565b505050565b6000600460009054906101000a900473ffffffffffffffffffffffffffffffffffffffff1673ffffffffffffffffffffffffffffffffffffffff16634f6ccce7836040518263ffffffff1660e01b8152600401610bd29190611b3c565b60206040518083038186803b158015610bea57600080fd5b505afa158015610bfe573d6000803e3d6000fd5b505050506040513d601f19601f82011682018060405250810190610c2291906120a5565b9050919050565b6000600460009054906101000a900473ffffffffffffffffffffffffffffffffffffffff1673ffffffffffffffffffffffffffffffffffffffff16636352211e836040518263ffffffff1660e01b8152600401610c869190611b3c565b60206040518083038186803b158015610c9e57600080fd5b505afa158015610cb2573d6000803e3d6000fd5b505050506040513d601f19601f82011682018060405250810190610cd69190612221565b9050919050565b60008073ffffffffffffffffffffffffffffffffffffffff168273ffffffffffffffffffffffffffffffffffffffff161415610d4e576040517f08c379a0000000000000000000000000000000000000000000000000000000008152600401610d45906122c0565b60405180910390fd5b610d95600560008473ffffffffffffffffffffffffffffffffffffffff1673ffffffffffffffffffffffffffffffffffffffff16815260200190815260200160002061153c565b9050919050565b610da461145a565b610dae6000611551565b565b6000600160009054906101000a900473ffffffffffffffffffffffffffffffffffffffff16905090565b6060600460009054906101000a900473ffffffffffffffffffffffffffffffffffffffff1673ffffffffffffffffffffffffffffffffffffffff1663d8b05250836040518263ffffffff1660e01b8152600401610e379190611b3c565b60206040518083038186803b158015610e4f57600080fd5b505afa158015610e63573d6000803e3d6000fd5b505050506040513d601f19601f82011682018060405250810190610e8791906122f5565b610ec6576040517f08c379a0000000000000000000000000000000000000000000000000000000008152600401610ebd9061236e565b60405180910390fd5b600460009054906101000a900473ffffffffffffffffffffffffffffffffffffffff1673ffffffffffffffffffffffffffffffffffffffff1663edef019d836040518263ffffffff1660e01b8152600401610f219190611b3c565b60006040518083038186803b158015610f3957600080fd5b505afa158015610f4d573d6000803e3d6000fd5b505050506040513d6000823e3d601f19601f82011682018060405250810190610f7691906125d8565b61010001519050919050565b606060098054610f9190611fa7565b80601f0160208091040260200160405190810160405280929190818152602001828054610fbd90611fa7565b801561100a5780601f10610fdf5761010080835404028352916020019161100a565b820191906000526020600020905b815481529060010190602001808311610fed57829003601f168201915b5050505050905090565b60026040517f08c379a0000000000000000000000000000000000000000000000000000000008152600401611049919061206e565b60405180910390fd5b60036040517f08c379a0000000000000000000000000000000000000000000000000000000008152600401611087919061206e565b60405180910390fd5b6060600460009054906101000a900473ffffffffffffffffffffffffffffffffffffffff1673ffffffffffffffffffffffffffffffffffffffff1663c87b56dd836040518263ffffffff1660e01b81526004016110ed9190611b3c565b60006040518083038186803b15801561110557600080fd5b505afa158015611119573d6000803e3d6000fd5b505050506040513d6000823e3d601f19601f820116820180604052508101906111429190612621565b9050919050565b600092915050565b61115961145a565b600073ffffffffffffffffffffffffffffffffffffffff168173ffffffffffffffffffffffffffffffffffffffff1614156111c9576040517f08c379a00000000000000000000000000000000000000000000000000000000081526004016111c0906126dc565b60405180910390fd5b6111d281611551565b50565b60606111f260076000848152602001908152602001600020611617565b9050919050565b6000600460009054906101000a900473ffffffffffffffffffffffffffffffffffffffff1673ffffffffffffffffffffffffffffffffffffffff1663d8b05250836040518263ffffffff1660e01b81526004016112569190611b3c565b60206040518083038186803b15801561126e57600080fd5b505afa158015611282573d6000803e3d6000fd5b505050506040513d601f19601f820116820180604052508101906112a691906122f5565b6112e5576040517f08c379a00000000000000000000000000000000000000000000000000000000081526004016112dc9061236e565b60405180910390fd5b600460009054906101000a900473ffffffffffffffffffffffffffffffffffffffff1673ffffffffffffffffffffffffffffffffffffffff1663edef019d836040518263ffffffff1660e01b81526004016113409190611b3c565b60006040518083038186803b15801561135857600080fd5b505afa15801561136c573d6000803e3d6000fd5b505050506040513d6000823e3d601f19601f8201168201806040525081019061139591906125d8565b600001519050919050565b60007f01ffc9a7000000000000000000000000000000000000000000000000000000007bffffffffffffffffffffffffffffffffffffffffffffffffffffffff1916827bffffffffffffffffffffffffffffffffffffffffffffffffffffffff1916149050919050565b6060600061141a83600001611638565b905060608190508092505050919050565b600061143982600001611694565b9050919050565b600061144f83600001836116a5565b60001c905092915050565b6114626116d0565b73ffffffffffffffffffffffffffffffffffffffff16611480610db0565b73ffffffffffffffffffffffffffffffffffffffff16146114d6576040517f08c379a00000000000000000000000000000000000000000000000000000000081526004016114cd90612748565b60405180910390fd5b565b60006114ea836000018360001b6116d8565b905092915050565b6000611504836000018360001b6116fb565b905092915050565b6000611534836000018373ffffffffffffffffffffffffffffffffffffffff1660001b6116fb565b905092915050565b600061154a82600001611694565b9050919050565b6000600160009054906101000a900473ffffffffffffffffffffffffffffffffffffffff16905081600160006101000a81548173ffffffffffffffffffffffffffffffffffffffff021916908373ffffffffffffffffffffffffffffffffffffffff1602179055508173ffffffffffffffffffffffffffffffffffffffff168173ffffffffffffffffffffffffffffffffffffffff167f8be0079c531659141344cd1fd0a4f28419497f9722a3daafe3b4186f6b6457e060405160405180910390a35050565b6060600061162783600001611638565b905060608190508092505050919050565b60608160000180548060200260200160405190810160405280929190818152602001828054801561168857602002820191906000526020600020905b815481526020019060010190808311611674575b50505050509050919050565b600081600001805490509050919050565b60008260000182815481106116bd576116bc612768565b5b9060005260206000200154905092915050565b600033905090565b600080836001016000848152602001908152602001600020541415905092915050565b600061170783836116d8565b611760578260000182908060018154018082558091505060019003906000526020600020016000909190919091505582600001805490508360010160008481526020019081526020016000208190555060019050611765565b600090505b92915050565b6000604051905090565b600080fd5b600080fd5b60007fffffffff0000000000000000000000000000000000000000000000000000000082169050919050565b6117b48161177f565b81146117bf57600080fd5b50565b6000813590506117d1816117ab565b92915050565b6000602082840312156117ed576117ec611775565b5b60006117fb848285016117c2565b91505092915050565b60008115159050919050565b61181981611804565b82525050565b60006020820190506118346000830184611810565b92915050565b600073ffffffffffffffffffffffffffffffffffffffff82169050919050565b60006118658261183a565b9050919050565b6118758161185a565b811461188057600080fd5b50565b6000813590506118928161186c565b92915050565b6000602082840312156118ae576118ad611775565b5b60006118bc84828501611883565b91505092915050565b600081519050919050565b600082825260208201905092915050565b6000819050602082019050919050565b6000819050919050565b611904816118f1565b82525050565b600061191683836118fb565b60208301905092915050565b6000602082019050919050565b600061193a826118c5565b61194481856118d0565b935061194f836118e1565b8060005b83811015611980578151611967888261190a565b975061197283611922565b925050600181019050611953565b5085935050505092915050565b600060208201905081810360008301526119a7818461192f565b905092915050565b600081519050919050565b600082825260208201905092915050565b60005b838110156119e95780820151818401526020810190506119ce565b838111156119f8576000848401525b50505050565b6000601f19601f8301169050919050565b6000611a1a826119af565b611a2481856119ba565b9350611a348185602086016119cb565b611a3d816119fe565b840191505092915050565b60006020820190508181036000830152611a628184611a0f565b905092915050565b611a73816118f1565b8114611a7e57600080fd5b50565b600081359050611a9081611a6a565b92915050565b600060208284031215611aac57611aab611775565b5b6000611aba84828501611a81565b91505092915050565b611acc8161185a565b82525050565b6000602082019050611ae76000830184611ac3565b92915050565b60008060408385031215611b0457611b03611775565b5b6000611b1285828601611883565b9250506020611b2385828601611a81565b9150509250929050565b611b36816118f1565b82525050565b6000602082019050611b516000830184611b2d565b92915050565b600080600060608486031215611b7057611b6f611775565b5b6000611b7e86828701611883565b9350506020611b8f86828701611883565b9250506040611ba086828701611a81565b9150509250925092565b600080600060608486031215611bc357611bc2611775565b5b6000611bd186828701611883565b9350506020611be286828701611a81565b9250506040611bf386828701611a81565b9150509250925092565b611c0681611804565b8114611c1157600080fd5b50565b600081359050611c2381611bfd565b92915050565b60008060408385031215611c4057611c3f611775565b5b6000611c4e85828601611883565b9250506020611c5f85828601611c14565b9150509250929050565b600080fd5b600080fd5b7f4e487b7100000000000000000000000000000000000000000000000000000000600052604160045260246000fd5b611cab826119fe565b810181811067ffffffffffffffff82111715611cca57611cc9611c73565b5b80604052505050565b6000611cdd61176b565b9050611ce98282611ca2565b919050565b600067ffffffffffffffff821115611d0957611d08611c73565b5b611d12826119fe565b9050602081019050919050565b82818337600083830152505050565b6000611d41611d3c84611cee565b611cd3565b905082815260208101848484011115611d5d57611d5c611c6e565b5b611d68848285611d1f565b509392505050565b600082601f830112611d8557611d84611c69565b5b8135611d95848260208601611d2e565b91505092915050565b60008060008060808587031215611db857611db7611775565b5b6000611dc687828801611883565b9450506020611dd787828801611883565b9350506040611de887828801611a81565b925050606085013567ffffffffffffffff811115611e0957611e0861177a565b5b611e1587828801611d70565b91505092959194509250565b60008060408385031215611e3857611e37611775565b5b6000611e4685828601611883565b9250506020611e5785828601611883565b9150509250929050565b600081519050919050565b600082825260208201905092915050565b6000819050602082019050919050565b611e968161185a565b82525050565b6000611ea88383611e8d565b60208301905092915050565b6000602082019050919050565b6000611ecc82611e61565b611ed68185611e6c565b9350611ee183611e7d565b8060005b83811015611f12578151611ef98882611e9c565b9750611f0483611eb4565b925050600181019050611ee5565b5085935050505092915050565b60006020820190508181036000830152611f398184611ec1565b905092915050565b600060ff82169050919050565b611f5781611f41565b82525050565b6000602082019050611f726000830184611f4e565b92915050565b7f4e487b7100000000000000000000000000000000000000000000000000000000600052602260045260246000fd5b60006002820490506001821680611fbf57607f821691505b60208210811415611fd357611fd2611f78565b5b50919050565b60008190508160005260206000209050919050565b60008154611ffb81611fa7565b61200581866119ba565b94506001821660008114612020576001811461203257612065565b60ff1983168652602086019350612065565b61203b85611fd9565b60005b8381101561205d5781548189015260018201915060208101905061203e565b808801955050505b50505092915050565b600060208201905081810360008301526120888184611fee565b905092915050565b60008151905061209f81611a6a565b92915050565b6000602082840312156120bb576120ba611775565b5b60006120c984828501612090565b91505092915050565b7f4e487b7100000000000000000000000000000000000000000000000000000000600052601160045260246000fd5b600061210c826118f1565b9150612117836118f1565b9250827fffffffffffffffffffffffffffffffffffffffffffffffffffffffffffffffff0382111561214c5761214b6120d2565b5b828201905092915050565b6000612162826118f1565b91507fffffffffffffffffffffffffffffffffffffffffffffffffffffffffffffffff821415612195576121946120d2565b5b600182019050919050565b7f496e646578206f7574206f6620626f756e647300000000000000000000000000600082015250565b60006121d66013836119ba565b91506121e1826121a0565b602082019050919050565b60006020820190508181036000830152612205816121c9565b9050919050565b60008151905061221b8161186c565b92915050565b60006020828403121561223757612236611775565b5b60006122458482850161220c565b91505092915050565b7f4552433732313a2062616c616e636520717565727920666f7220746865207a6560008201527f726f206164647265737300000000000000000000000000000000000000000000602082015250565b60006122aa602a836119ba565b91506122b58261224e565b604082019050919050565b600060208201905081810360008301526122d98161229d565b9050919050565b6000815190506122ef81611bfd565b92915050565b60006020828403121561230b5761230a611775565b5b6000612319848285016122e0565b91505092915050565b7f7465737420646f6573206e6f7420657869737400000000000000000000000000600082015250565b60006123586013836119ba565b915061236382612322565b602082019050919050565b600060208201905081810360008301526123878161234b565b9050919050565b600080fd5b600080fd5b6123a181611f41565b81146123ac57600080fd5b50565b6000815190506123be81612398565b92915050565b600062ffffff82169050919050565b6123dc816123c4565b81146123e757600080fd5b50565b6000815190506123f9816123d3565b92915050565b600063ffffffff82169050919050565b612418816123ff565b811461242357600080fd5b50565b6000815190506124358161240f565b92915050565b600067ffffffffffffffff82111561245657612455611c73565b5b61245f826119fe565b9050602081019050919050565b600061247f61247a8461243b565b611cd3565b90508281526020810184848401111561249b5761249a611c6e565b5b6124a68482856119cb565b509392505050565b600082601f8301126124c3576124c2611c69565b5b81516124d384826020860161246c565b91505092915050565b600061012082840312156124f3576124f261238e565b5b6124fe610120611cd3565b9050600061250e848285016123af565b6000830152506020612522848285016123af565b6020830152506040612536848285016123af565b604083015250606061254a848285016123ea565b606083015250608061255e848285016123ea565b60808301525060a061257284828501612426565b60a08301525060c06125868482850161220c565b60c08301525060e061259a84828501612090565b60e08301525061010082015167ffffffffffffffff8111156125bf576125be612393565b5b6125cb848285016124ae565b6101008301525092915050565b6000602082840312156125ee576125ed611775565b5b600082015167ffffffffffffffff81111561260c5761260b61177a565b5b612618848285016124dc565b91505092915050565b60006020828403121561263757612636611775565b5b600082015167ffffffffffffffff8111156126555761265461177a565b5b612661848285016124ae565b91505092915050565b7f4f776e61626c653a206e6577206f776e657220697320746865207a65726f206160008201527f6464726573730000000000000000000000000000000000000000000000000000602082015250565b60006126c66026836119ba565b91506126d18261266a565b604082019050919050565b600060208201905081810360008301526126f5816126b9565b9050919050565b7f4f776e61626c653a2063616c6c6572206973206e6f7420746865206f776e6572600082015250565b60006127326020836119ba565b915061273d826126fc565b602082019050919050565b6000602082019050818103600083015261276181612725565b9050919050565b7f4e487b7100000000000000000000000000000000000000000000000000000000600052603260045260246000fdfea26469706673582212201be4c2a4170e7174952d1220910e72f251737b1d66fd5b793fe7ed70afd23de064736f6c63430008090033608060405234801561001057600080fd5b50612d3b806100206000396000f3fe608060405234801561001057600080fd5b50600436106100415760003560e01c806361a906a214610046578063a728bc7914610076578063de2e4a29146100a6575b600080fd5b610060600480360381019061005b9190612788565b6100d6565b60405161006d919061282d565b60405180910390f35b610090600480360381019061008b9190612788565b610353565b60405161009d919061282d565b60405180910390f35b6100c060048036038101906100bb9190612788565b6105d0565b6040516100cd919061282d565b60405180910390f35b60006100e0612593565b6040518060400160405280886000600281106100ff576100fe612848565b5b602002013581526020018860016002811061011d5761011c612848565b5b60200201358152508160000181905250604051806040016040528060405180604001604052808960006002811061015757610156612848565b5b6040020160006002811061016e5761016d612848565b5b602002013581526020018960006002811061018c5761018b612848565b5b604002016001600281106101a3576101a2612848565b5b602002013581525081526020016040518060400160405280896001600281106101cf576101ce612848565b5b604002016000600281106101e6576101e5612848565b5b602002013581526020018960016002811061020457610203612848565b5b6040020160016002811061021b5761021a612848565b5b6020020135815250815250816020018190525060405180604001604052808660006002811061024d5761024c612848565b5b602002013581526020018660016002811061026b5761026a612848565b5b6020020135815250816040018190525060008484905067ffffffffffffffff81111561029a57610299612877565b5b6040519080825280602002602001820160405280156102c85781602001602082028036833780820191505090505b50905060005b85859050811015610325578585828181106102ec576102eb612848565b5b9050602002013582828151811061030657610305612848565b5b602002602001018181525050808061031d906128df565b9150506102ce565b506000610332828461084d565b14156103435760019250505061034a565b6000925050505b95945050505050565b600061035d612593565b60405180604001604052808860006002811061037c5761037b612848565b5b602002013581526020018860016002811061039a57610399612848565b5b6020020135815250816000018190525060405180604001604052806040518060400160405280896000600281106103d4576103d3612848565b5b604002016000600281106103eb576103ea612848565b5b602002013581526020018960006002811061040957610408612848565b5b604002016001600281106104205761041f612848565b5b6020020135815250815260200160405180604001604052808960016002811061044c5761044b612848565b5b6040020160006002811061046357610462612848565b5b602002013581526020018960016002811061048157610480612848565b5b6040020160016002811061049857610497612848565b5b602002013581525081525081602001819052506040518060400160405280866000600281106104ca576104c9612848565b5b60200201358152602001866001600281106104e8576104e7612848565b5b6020020135815250816040018190525060008484905067ffffffffffffffff81111561051757610516612877565b5b6040519080825280602002602001820160405280156105455781602001602082028036833780820191505090505b50905060005b858590508110156105a25785858281811061056957610568612848565b5b9050602002013582828151811061058357610582612848565b5b602002602001018181525050808061059a906128df565b91505061054b565b5060006105af8284610a40565b14156105c0576001925050506105c7565b6000925050505b95945050505050565b60006105da612593565b6040518060400160405280886000600281106105f9576105f8612848565b5b602002013581526020018860016002811061061757610616612848565b5b60200201358152508160000181905250604051806040016040528060405180604001604052808960006002811061065157610650612848565b5b6040020160006002811061066857610667612848565b5b602002013581526020018960006002811061068657610685612848565b5b6040020160016002811061069d5761069c612848565b5b602002013581525081526020016040518060400160405280896001600281106106c9576106c8612848565b5b604002016000600281106106e0576106df612848565b5b60200201358152602001896001600281106106fe576106fd612848565b5b6040020160016002811061071557610714612848565b5b6020020135815250815250816020018190525060405180604001604052808660006002811061074757610746612848565b5b602002013581526020018660016002811061076557610764612848565b5b6020020135815250816040018190525060008484905067ffffffffffffffff81111561079457610793612877565b5b6040519080825280602002602001820160405280156107c25781602001602082028036833780820191505090505b50905060005b8585905081101561081f578585828181106107e6576107e5612848565b5b90506020020135828281518110610800576107ff612848565b5b6020026020010181815250508080610817906128df565b9150506107c8565b50600061082c8284610c33565b141561083d57600192505050610844565b6000925050505b95945050505050565b6000807f30644e72e131a029b85045b68181585d2833e84879b9709143e1f593f00000019050600061087d610e26565b9050806080015151600186516108939190612928565b146108d3576040517f08c379a00000000000000000000000000000000000000000000000000000000081526004016108ca906129db565b60405180910390fd5b60006040518060400160405280600081526020016000815250905060005b86518110156109c2578387828151811061090e5761090d612848565b5b602002602001015110610956576040517f08c379a000000000000000000000000000000000000000000000000000000000815260040161094d90612a47565b60405180910390fd5b6109ad826109a8856080015160018561096f9190612928565b815181106109805761097f612848565b5b60200260200101518a858151811061099b5761099a612848565b5b602002602001015161140a565b6114e7565b915080806109ba906128df565b9150506108f1565b506109ec8183608001516000815181106109df576109de612848565b5b60200260200101516114e7565b9050610a226109fe86600001516115ea565b8660200151846000015185602001518587604001518b60400151896060015161168f565b610a325760019350505050610a3a565b600093505050505b92915050565b6000807f30644e72e131a029b85045b68181585d2833e84879b9709143e1f593f000000190506000610a7061185c565b905080608001515160018651610a869190612928565b14610ac6576040517f08c379a0000000000000000000000000000000000000000000000000000000008152600401610abd906129db565b60405180910390fd5b60006040518060400160405280600081526020016000815250905060005b8651811015610bb55783878281518110610b0157610b00612848565b5b602002602001015110610b49576040517f08c379a0000000000000000000000000000000000000000000000000000000008152600401610b4090612a47565b60405180910390fd5b610ba082610b9b8560800151600185610b629190612928565b81518110610b7357610b72612848565b5b60200260200101518a8581518110610b8e57610b8d612848565b5b602002602001015161140a565b6114e7565b91508080610bad906128df565b915050610ae4565b50610bdf818360800151600081518110610bd257610bd1612848565b5b60200260200101516114e7565b9050610c15610bf186600001516115ea565b8660200151846000015185602001518587604001518b60400151896060015161168f565b610c255760019350505050610c2d565b600093505050505b92915050565b6000807f30644e72e131a029b85045b68181585d2833e84879b9709143e1f593f000000190506000610c63611d50565b905080608001515160018651610c799190612928565b14610cb9576040517f08c379a0000000000000000000000000000000000000000000000000000000008152600401610cb0906129db565b60405180910390fd5b60006040518060400160405280600081526020016000815250905060005b8651811015610da85783878281518110610cf457610cf3612848565b5b602002602001015110610d3c576040517f08c379a0000000000000000000000000000000000000000000000000000000008152600401610d3390612a47565b60405180910390fd5b610d9382610d8e8560800151600185610d559190612928565b81518110610d6657610d65612848565b5b60200260200101518a8581518110610d8157610d80612848565b5b602002602001015161140a565b6114e7565b91508080610da0906128df565b915050610cd7565b50610dd2818360800151600081518110610dc557610dc4612848565b5b60200260200101516114e7565b9050610e08610de486600001516115ea565b8660200151846000015185602001518587604001518b60400151896060015161168f565b610e185760019350505050610e20565b600093505050505b92915050565b610e2e6125c6565b60405180604001604052807f2d4d9aa7e302d9df41749d5507949d05dbea33fbb16c643b22f599a2be6df2e281526020017f14bedd503c37ceb061d8ec60209fe345ce89830a19230301f076caff004d19268152508160000181905250604051806040016040528060405180604001604052807f0967032fcbf776d1afc985f88877f182d38480a653f2decaa9794cbc3bf3060c81526020017f0e187847ad4c798374d0d6732bf501847dd68bc0e071241e0213bc7fc13db7ab815250815260200160405180604001604052807f304cfbd1e08a704a99f5e847d93f8c3caafddec46b7a0d379da69a4d112346a781526020017f1739c1b1a457a8c7313123d24d2f9192f896b7c63eea05a9d57f06547ad0cec88152508152508160200181905250604051806040016040528060405180604001604052807f198e9393920d483a7260bfb731fb5d25f1aa493335a9e71297e485b7aef312c281526020017f1800deef121f1e76426a00665e5c4479674322d4f75edadd46debd5cd992f6ed815250815260200160405180604001604052807f090689d0585ff075ec9e99ad690c3395bc4b313370b38ef355acdadcd122975b81526020017f12c85ea5db8c6deb4aab71808dcb408fe3d1e7690c43d37b4ce6cc0166fa7daa8152508152508160400181905250604051806040016040528060405180604001604052807f1b8a33a9b8aa0c375bea581b151bb3eeb5f49a613a6c5b16780c72c02fea114781526020017f08f7c08aca18eb93f2385c0a0d520b687a4642fffb55693c3eb073e1e7190020815250815260200160405180604001604052807f123afb3eecc3db8153f63b107adb5a770d9c516b65a67e01ffea90f1a82b277a81526020017f2c315fa4900a9b379e00fcb924082979ad9d8ce60c1ac990fab7a2bd3f87c9788152508152508160600181905250600667ffffffffffffffff8111156110f5576110f4612877565b5b60405190808252806020026020018201604052801561112e57816020015b61111b61260d565b8152602001906001900390816111135790505b50816080018190525060405180604001604052807f1f4ba445cbf433891463eb34658a228cfc139224a18303d72006d4e16968a2e581526020017f2b3550e8cd8eb7b1bafcbfb4e7a914bbffbeb9e5dee527413d4ac53be6733efa81525081608001516000815181106111a4576111a3612848565b5b602002602001018190525060405180604001604052807f2d98e1dc7ebea7d6bab829bd81766fe856a49e7d49420a354786102aa9d59f4f81526020017f19b06c99722d87f37c6e2295c6a97d04b045c08a2956df595de95a58c3b76144815250816080015160018151811061121c5761121b612848565b5b602002602001018190525060405180604001604052807f180d8c99486e96ea6ecf52f5e08852bc3e8ad4c883e32224aca673d3ef34ee4e81526020017f2ab1c0f5045d94dd3f348719de26492286fae4bef4cfbcd11ffda6b4a0265941815250816080015160028151811061129457611293612848565b5b602002602001018190525060405180604001604052807f0a351bfe28d2e5bfee0ba5c331df4a6952f029e067cb219ade05744ae1b531a781526020017f2402bb748a5439a5e1d4232b19085d94c80f195f602fb97ba4419d4e0876afb0815250816080015160038151811061130c5761130b612848565b5b602002602001018190525060405180604001604052807f2403bc7368a9909cb31842e50f347fc657ffaeb0ae7e3efb41697947de54134881526020017f2352dff6c9fa902f3a73f4c29ea671580206cccdc0a0b02173c73fc66b45d991815250816080015160048151811061138457611383612848565b5b602002602001018190525060405180604001604052807f0fbf3322398b56d6d142901b39f446011e45fbffed708996d30b6e8943775a3b81526020017f1eec424d0a542f7e56407d76cad726d8a8acf9124decf5aedec76eef29c0655d81525081608001516005815181106113fc576113fb612848565b5b602002602001018190525090565b61141261260d565b61141a612627565b83600001518160006003811061143357611432612848565b5b60200201818152505083602001518160016003811061145557611454612848565b5b602002018181525050828160026003811061147357611472612848565b5b602002018181525050600060608360808460076107d05a03fa9050806000811461149c5761149e565bfe5b50806114df576040517f08c379a00000000000000000000000000000000000000000000000000000000081526004016114d690612ab3565b60405180910390fd5b505092915050565b6114ef61260d565b6114f7612649565b8360000151816000600481106115105761150f612848565b5b60200201818152505083602001518160016004811061153257611531612848565b5b60200201818152505082600001518160026004811061155457611553612848565b5b60200201818152505082602001518160036004811061157657611575612848565b5b602002018181525050600060608360c08460066107d05a03fa9050806000811461159f576115a1565bfe5b50806115e2576040517f08c379a00000000000000000000000000000000000000000000000000000000081526004016115d990612b1f565b60405180910390fd5b505092915050565b6115f261260d565b60007f30644e72e131a029b85045b68181585d97816a916871ca8d3c208c16d87cfd4790506000836000015114801561162f575060008360200151145b1561165357604051806040016040528060008152602001600081525091505061168a565b6040518060400160405280846000015181526020018285602001516116789190612b6e565b836116839190612b9f565b8152509150505b919050565b600080600467ffffffffffffffff8111156116ad576116ac612877565b5b6040519080825280602002602001820160405280156116e657816020015b6116d361260d565b8152602001906001900390816116cb5790505b5090506000600467ffffffffffffffff81111561170657611705612877565b5b60405190808252806020026020018201604052801561173f57816020015b61172c61266b565b8152602001906001900390816117245790505b5090508a8260008151811061175757611756612848565b5b6020026020010181905250888260018151811061177757611776612848565b5b6020026020010181905250868260028151811061179757611796612848565b5b602002602001018190525084826003815181106117b7576117b6612848565b5b602002602001018190525089816000815181106117d7576117d6612848565b5b602002602001018190525087816001815181106117f7576117f6612848565b5b6020026020010181905250858160028151811061181757611816612848565b5b6020026020010181905250838160038151811061183757611836612848565b5b602002602001018190525061184c82826121cc565b9250505098975050505050505050565b6118646125c6565b60405180604001604052807f2d4d9aa7e302d9df41749d5507949d05dbea33fbb16c643b22f599a2be6df2e281526020017f14bedd503c37ceb061d8ec60209fe345ce89830a19230301f076caff004d19268152508160000181905250604051806040016040528060405180604001604052807f0967032fcbf776d1afc985f88877f182d38480a653f2decaa9794cbc3bf3060c81526020017f0e187847ad4c798374d0d6732bf501847dd68bc0e071241e0213bc7fc13db7ab815250815260200160405180604001604052807f304cfbd1e08a704a99f5e847d93f8c3caafddec46b7a0d379da69a4d112346a781526020017f1739c1b1a457a8c7313123d24d2f9192f896b7c63eea05a9d57f06547ad0cec88152508152508160200181905250604051806040016040528060405180604001604052807f198e9393920d483a7260bfb731fb5d25f1aa493335a9e71297e485b7aef312c281526020017f1800deef121f1e76426a00665e5c4479674322d4f75edadd46debd5cd992f6ed815250815260200160405180604001604052807f090689d0585ff075ec9e99ad690c3395bc4b313370b38ef355acdadcd122975b81526020017f12c85ea5db8c6deb4aab71808dcb408fe3d1e7690c43d37b4ce6cc0166fa7daa8152508152508160400181905250604051806040016040528060405180604001604052807f11d84303b858fd1d8237c37b0338773c276dcfaa191b00198f96210f151d4e9481526020017f2903f8298e37db0281cbd132358739376a077b4a98078f7d86d3d8292f887200815250815260200160405180604001604052807f0e900d0b9da56dfd9a5aca7a37efd302afa2c06d23de43c21ce2f8e2689e6c8a81526020017f19852e360e1caedef0dd8710a604bd4cad7ef7a6444f3b0ce82ea8e8c8b959188152508152508160600181905250600467ffffffffffffffff811115611b2b57611b2a612877565b5b604051908082528060200260200182016040528015611b6457816020015b611b5161260d565b815260200190600190039081611b495790505b50816080018190525060405180604001604052807f2f1634eb673a2f1557942185fb57319a7095d9fc027574beeff07fd9b32a3d6281526020017f1f469af27dadfad4e6ae3c63d561a11d7e0837ca99ecc9a5085d4aaade658c698152508160800151600081518110611bda57611bd9612848565b5b602002602001018190525060405180604001604052807f131f19b4f1bc77f6f0a6331ef61402f894c6dbe98d70788d807ae5a6f7c26f8a81526020017f148a89a0c840ac542d120e2be1725920ce91585241fd96ccc78e31c8edd4142d8152508160800151600181518110611c5257611c51612848565b5b602002602001018190525060405180604001604052807f037ab1a6ad9b39a14e696e1a43b969e44cf99ddc86699268ae0e91b769743fca81526020017f015316314cddc2ae170c1c7033abf8e0b7713a95c7255771141d927447b58b638152508160800151600281518110611cca57611cc9612848565b5b602002602001018190525060405180604001604052807f2caf9b5246d8cabee9910ad40e0d8e3f85e78afe11796e5e348c3e215ba072b281526020017f19e8b4d2fdb9710cd17c517417e46b84ca7ba2b02f53f20d5c1067d483e2251e8152508160800151600381518110611d4257611d41612848565b5b602002602001018190525090565b611d586125c6565b60405180604001604052807f2d4d9aa7e302d9df41749d5507949d05dbea33fbb16c643b22f599a2be6df2e281526020017f14bedd503c37ceb061d8ec60209fe345ce89830a19230301f076caff004d19268152508160000181905250604051806040016040528060405180604001604052807f0967032fcbf776d1afc985f88877f182d38480a653f2decaa9794cbc3bf3060c81526020017f0e187847ad4c798374d0d6732bf501847dd68bc0e071241e0213bc7fc13db7ab815250815260200160405180604001604052807f304cfbd1e08a704a99f5e847d93f8c3caafddec46b7a0d379da69a4d112346a781526020017f1739c1b1a457a8c7313123d24d2f9192f896b7c63eea05a9d57f06547ad0cec88152508152508160200181905250604051806040016040528060405180604001604052807f198e9393920d483a7260bfb731fb5d25f1aa493335a9e71297e485b7aef312c281526020017f1800deef121f1e76426a00665e5c4479674322d4f75edadd46debd5cd992f6ed815250815260200160405180604001604052807f090689d0585ff075ec9e99ad690c3395bc4b313370b38ef355acdadcd122975b81526020017f12c85ea5db8c6deb4aab71808dcb408fe3d1e7690c43d37b4ce6cc0166fa7daa8152508152508160400181905250604051806040016040528060405180604001604052807f12d6e8a737766e6f60ca44e8668bd92d3a149f83f71f37759102688a7a023ca781526020017f1e424e7df6a5f5eeea518273f7f6cf2cf4956705625a9390b538d23bd8e2f5a4815250815260200160405180604001604052807f288de2493371363b1430e70ad1c78c84cabe44a678741277c89e3bee33b6ce7681526020017f13d32a179fbd3bd83f84f0a232e38c3d65e02d0d7c65e8461278d9a1deefb6438152508152508160600181905250600367ffffffffffffffff81111561201f5761201e612877565b5b60405190808252806020026020018201604052801561205857816020015b61204561260d565b81526020019060019003908161203d5790505b50816080018190525060405180604001604052807f1a89a0ded0f3385a8fc7b7b8a7c8681b5a9f3610e7ff1e982f519fe60045f67a81526020017f15e8dfe8148c111cd380dd55bea709b86989d294097d56d699a29c5a65d7f08a81525081608001516000815181106120ce576120cd612848565b5b602002602001018190525060405180604001604052807f2ef9e0d038f6956cc25a116cc80ccbf434f0745311273adcdf1f90b79b1c282b81526020017f120a3439fcbe29f6a8c21ac6d699403275b0f975f2054b1183f2b91681ff12c1815250816080015160018151811061214657612145612848565b5b602002602001018190525060405180604001604052807f26cb329ab5c21d41c4046ed3dfa13a046c8d9da444122104cd58f01e7f2e071081526020017f263cba2d47ba222c684257ce2a7feecedb82fbc2d67bc11cc13eb3203646a51f81525081608001516002815181106121be576121bd612848565b5b602002602001018190525090565b60008151835114612212576040517f08c379a000000000000000000000000000000000000000000000000000000000815260040161220990612c1f565b60405180910390fd5b60008351905060006006826122279190612c3f565b905060008167ffffffffffffffff81111561224557612244612877565b5b6040519080825280602002602001820160405280156122735781602001602082028036833780820191505090505b50905060005b838110156124f85786818151811061229457612293612848565b5b6020026020010151600001518260006006846122b09190612c3f565b6122ba9190612928565b815181106122cb576122ca612848565b5b6020026020010181815250508681815181106122ea576122e9612848565b5b6020026020010151602001518260016006846123069190612c3f565b6123109190612928565b8151811061232157612320612848565b5b6020026020010181815250508581815181106123405761233f612848565b5b60200260200101516000015160006002811061235f5761235e612848565b5b60200201518260026006846123749190612c3f565b61237e9190612928565b8151811061238f5761238e612848565b5b6020026020010181815250508581815181106123ae576123ad612848565b5b6020026020010151600001516001600281106123cd576123cc612848565b5b60200201518260036006846123e29190612c3f565b6123ec9190612928565b815181106123fd576123fc612848565b5b60200260200101818152505085818151811061241c5761241b612848565b5b60200260200101516020015160006002811061243b5761243a612848565b5b60200201518260046006846124509190612c3f565b61245a9190612928565b8151811061246b5761246a612848565b5b60200260200101818152505085818151811061248a57612489612848565b5b6020026020010151602001516001600281106124a9576124a8612848565b5b60200201518260056006846124be9190612c3f565b6124c89190612928565b815181106124d9576124d8612848565b5b60200260200101818152505080806124f0906128df565b915050612279565b50612501612691565b6000602082602086026020860160086107d05a03fa9050806000811461252657612528565bfe5b5080612569576040517f08c379a000000000000000000000000000000000000000000000000000000000815260040161256090612ce5565b60405180910390fd5b60008260006001811061257f5761257e612848565b5b602002015114159550505050505092915050565b60405180606001604052806125a661260d565b81526020016125b361266b565b81526020016125c061260d565b81525090565b6040518060a001604052806125d961260d565b81526020016125e661266b565b81526020016125f361266b565b815260200161260061266b565b8152602001606081525090565b604051806040016040528060008152602001600081525090565b6040518060600160405280600390602082028036833780820191505090505090565b6040518060800160405280600490602082028036833780820191505090505090565b604051806040016040528061267e6126b3565b815260200161268b6126b3565b81525090565b6040518060200160405280600190602082028036833780820191505090505090565b6040518060400160405280600290602082028036833780820191505090505090565b600080fd5b600080fd5b600080fd5b600081905082602060020282011115612700576126ff6126df565b5b92915050565b600081905082604060020282011115612722576127216126df565b5b92915050565b600080fd5b600080fd5b60008083601f84011261274857612747612728565b5b8235905067ffffffffffffffff8111156127655761276461272d565b5b602083019150836020820283011115612781576127806126df565b5b9250929050565b600080600080600061012086880312156127a5576127a46126d5565b5b60006127b3888289016126e4565b95505060406127c488828901612706565b94505060c06127d5888289016126e4565b93505061010086013567ffffffffffffffff8111156127f7576127f66126da565b5b61280388828901612732565b92509250509295509295909350565b60008115159050919050565b61282781612812565b82525050565b6000602082019050612842600083018461281e565b92915050565b7f4e487b7100000000000000000000000000000000000000000000000000000000600052603260045260246000fd5b7f4e487b7100000000000000000000000000000000000000000000000000000000600052604160045260246000fd5b7f4e487b7100000000000000000000000000000000000000000000000000000000600052601160045260246000fd5b6000819050919050565b60006128ea826128d5565b91507fffffffffffffffffffffffffffffffffffffffffffffffffffffffffffffffff82141561291d5761291c6128a6565b5b600182019050919050565b6000612933826128d5565b915061293e836128d5565b9250827fffffffffffffffffffffffffffffffffffffffffffffffffffffffffffffffff03821115612973576129726128a6565b5b828201905092915050565b600082825260208201905092915050565b7f76657269666965722d6261642d696e7075740000000000000000000000000000600082015250565b60006129c560128361297e565b91506129d08261298f565b602082019050919050565b600060208201905081810360008301526129f4816129b8565b9050919050565b7f76657269666965722d6774652d736e61726b2d7363616c61722d6669656c6400600082015250565b6000612a31601f8361297e565b9150612a3c826129fb565b602082019050919050565b60006020820190508181036000830152612a6081612a24565b9050919050565b7f70616972696e672d6d756c2d6661696c65640000000000000000000000000000600082015250565b6000612a9d60128361297e565b9150612aa882612a67565b602082019050919050565b60006020820190508181036000830152612acc81612a90565b9050919050565b7f70616972696e672d6164642d6661696c65640000000000000000000000000000600082015250565b6000612b0960128361297e565b9150612b1482612ad3565b602082019050919050565b60006020820190508181036000830152612b3881612afc565b9050919050565b7f4e487b7100000000000000000000000000000000000000000000000000000000600052601260045260246000fd5b6000612b79826128d5565b9150612b84836128d5565b925082612b9457612b93612b3f565b5b828206905092915050565b6000612baa826128d5565b9150612bb5836128d5565b925082821015612bc857612bc76128a6565b5b828203905092915050565b7f70616972696e672d6c656e677468732d6661696c656400000000000000000000600082015250565b6000612c0960168361297e565b9150612c1482612bd3565b602082019050919050565b60006020820190508181036000830152612c3881612bfc565b9050919050565b6000612c4a826128d5565b9150612c55836128d5565b9250817fffffffffffffffffffffffffffffffffffffffffffffffffffffffffffffffff0483118215151615612c8e57612c8d6128a6565b5b828202905092915050565b7f70616972696e672d6f70636f64652d6661696c65640000000000000000000000600082015250565b6000612ccf60158361297e565b9150612cda82612c99565b602082019050919050565b60006020820190508181036000830152612cfe81612cc2565b905091905056fea26469706673582212206dcd9406d7b24023a92a2cd0bcec2379349b7b3457e2b3e76e407ac30107230b64736f6c63430008090033",
  "linkReferences": {},
  "deployedLinkReferences": {}
}